:020000040800F2
:1000000048040020911100087503000877030008D8
:10001000790300087B0300087D030008000000004E
:100020000000000000000000000000007F03000846
:100030008103000800000000830300088503000816
:10004000AB110008AB110008AB110008AB110008A0
:10005000AB110008AB110008AB110008AB11000890
:10006000AB110008AB110008AB110008AB11000880
:10007000AB110008AB110008AB110008AB11000870
:10008000AB110008AB110008AB110008AB11000860
:10009000AB110008AB110008AB110008AB11000850
:1000A000AB110008AB110008AB110008AB11000840
:1000B000AB110008AB110008AB110008AB11000830
:1000C000AB110008AB110008AB110008AB11000820
:1000D000AB110008AB110008AB110008AB11000810
:1000E000AB110008AB110008AB110008AB11000800
:1000F000AB110008AB110008AB110008AB110008F0
:10010000AB110008AB110008AB110008AB110008DF
:10011000AB110008AB110008AB110008AB110008CF
:10012000AB110008AB110008AB110008AB110008BF
:10013000DFF80CD004F076F80048004745010008CD
:100140004804002086B0002401F034F801F082F861
:1001500001F050F801F0A8F84FF4165001F0BAF889
:1001600001F044FC5BA004F08FF8684F68484FF43E
:1001700078463E80828867A102A804F095F8DFF8EF
:10018000A091DFF8A0A14FF6FF7B0DF10808102524
:10019000584600E0002001F0F9FB22E01F20FAE7BA
:1001A0003046F8E74FF61F00F5E700BF4FF4FC605C
:1001B000F1E700BF47F6FF70EDE700BF4FF6E070D4
:1001C000E9E700BF4FF60740E5E700BF48F23040DF
:1001D000E1E700BF4CF21860DDE700BF4BF640409E
:1001E000D9E73E8050A0CDE900501023C82232212B
:1001F0001E2003F0B2FF50A0CDE900501023C8220A
:1002000046211E2003F0A9FF4FA0CDE90050102386
:10021000C8225A211E2003F0A0FFCDE90058102368
:10022000C8226E211E2003F098FF4BA0CDE900509C
:100230001023C82282211E2003F08FFF49A0CDE9A0
:1002400000501023C82296211E2003F086FF14229E
:10025000B421642003F007FE1922B421642003F0C6
:1002600002FE641CE4B20C2C23D02021484600F08E
:1002700074FBC0F10100C2B22021484600F07BFBB4
:10028000504600F0CEFF0C2CABD2DFE804F011108A
:100290000F0E0D0C0B0A090807069FE79AE795E772
:1002A00090E78BE786E781E77CE779E776E771E718
:1002B0006EE700242021484600F04FFBC0F101000A
:1002C000C2B22021484600F056FB504600F0A9FF7C
:1002D0005EE700000A0D41444320546573743A20E0
:1002E000A3A8B5C2B7C9C0B3A3A9C4E1C4AA4D337A
:1002F00053BFAAB7A2B0E5544654204C434420B2A1
:10030000E2CAD4B3CCD0F20D000000002C000020D3
:10031000340000204C43442049443A2530345800EE
:100320000018014040420F004D33532053544D33C9
:1003300032205B5E6F5E5D005446542D4C4344207A
:1003400074657374000000007777772E646F666CB5
:1003500079652E6E657400003031323334353637AE
:1003600038393000616263646566674142434445E1
:10037000464700007047FEE7FEE7FEE7FEE77047EE
:100380007047704700F055BF4FF0204202EB8001EC
:1003900040B143F2D20008606FF070404860C1F88D
:1003A0000401704743F2DB001060F5E710B5182434
:1003B00040234FF020414FF0FC32102805D041F887
:1003C000804F4B608A60CA6010BD0C664B668A66BF
:1003D000CA6610BDF74818210160002141604FF046
:1003E000FC318160C1600161704730B5D0E9011214
:1003F0001143D0E903231A431143426903681143AF
:1004000082691143C2691143026A1143426A11436E
:10041000826A1143C26A1143026B11434FF02042BA
:1004200042F823108168082906D1016802EB810196
:100430000B6843F040030B60416BD1E9003443EAA1
:1004400004138C688D89240244EA054423430C8AF2
:1004500043EA04530C7D896943EA04630B43016852
:1004600002EB81014B60C16AB1F5804F07D0006893
:100470006FF0704102EB8000C0F8041130BD816B59
:100480000068D1E9003443EA04138C680D8A240221
:1004900044EA055423430C7D896943EA046302EB73
:1004A00080000B43C0F8043130BD30B5D0E90112F3
:1004B0001143D0E903231A431143426941EA42211F
:1004C000826941EA4231C26941F00804D2E900136D
:1004D00041EA03211389127B1B0443EA0262036A87
:1004E0001143D3E9002542EA05221D891B7B2D0417
:1004F00045EA03631A4303684FF02040102B04D0F1
:1005000040F8804F8160C26030BD04668166C2667B
:1005100030BD10B5D0E9001241EA422281681023B3
:1005200043EA41310A43A3490A60C268D2E9003470
:1005300043EA04231489127B240444EA026213432D
:100540008B600269D2E9003443EA04231489127BE8
:10055000240444EA02621343CB604069D0E90023DB
:1005600042EA03220389007B1B0443EA0060024342
:100570000A6110BD10B500210222C0E9001281609D
:10058000C160016141618161D202C161C0E90812AB
:100590005200C0E90A210163436B0F221A60436BCA
:1005A0005A60446BFF23A360446BE260446B22619A
:1005B000446B6261446BA161846B2260846B6260F6
:1005C000846BA360836BDA60836B1A61836B5A61FF
:1005D000806B816110BD102101600021416081604C
:1005E000C160016141618161C269FC211160C26920
:1005F0005160C2699160C269D160026A1160026A89
:100600005160026A9160006AC16070470021016018
:1006100041608160C268FC211160C2685160C2689B
:100620009160C268D160026911600269516002691B
:1006300091600269D160426911604269516042690A
:1006400091604069C16070474FF0204202EB80002A
:100650000029016802D041F0010101E0564A114031
:10066000016070474FF0204251B1102804D052F879
:10067000800F40F004000AE0106E40F004000AE031
:100680004D49C91E102804D052F8800F0840106050
:100690007047106E08401066704746490028086889
:1006A00002D040F0040002E0434AD21E104008602D
:1006B00070474FF0204251B1102804D052F8800FFB
:1006C00040F040000AE0106E40F040000AE03A4975
:1006D0003F39102804D052F8800F0840106070474E
:1006E000106E0840106670474FF02041102802D06D
:1006F000D1F894007047486F704710B54FF480747C
:100700004FF020436AB1102803D0A04204D18433B3
:1007100003E0586E08430CE0A433186808431860DF
:1007200010BD102803D0A04205D1843304E0586ED8
:100730008843586610BDA43318688843EFE7034622
:1007400000204FF02042102B08D0B3F5807F07D057
:10075000D2F8A4200A4200D001207047526EF9E777
:10076000D2F88420F6E74FF02042102807D0B0F5E9
:10077000807F08D0A4321068884310607047506EA4
:100780008843506670478432F5E7034600204FF0F7
:100790002042102B0CD0B3F5807F0FD0D2F8A420CC
:1007A0000A4202EAD10102D0002900D0012070479C
:1007B000526EF5E7A00000A0FEFF0F00D2F88420E3
:1007C000EEE74FF02042102808D0B0F5807F0AD025
:1007D000A432106820EAD10010607047506E20EA01
:1007E000D100506670478432F3E700008F4910B59E
:1007F000884206D10121042000F048FA002104209B
:100800003BE08B49884206D10121082000F03EFAE6
:100810000021082031E08749884206D101211020BB
:1008200000F034FA0021102027E08349884206D1E5
:100830000121202000F02AFA002120201DE07F491C
:10084000884206D10121402000F020FA00214020FA
:1008500013E07B49884206D10121802000F016FA7E
:100860000021802009E0774988420AD184150121BE
:10087000204600F00BFA00212046BDE8104000F0B1
:1008800005BA10BD10B50121084600F0FFF900219E
:10089000BDE81040012000F0F9B9F0B5CA78002594
:1008A00002F00F03D20601D58A7813430C784FF07B
:1008B0000F0E0122E4B104680F8802FA05F63740F2
:1008C000B74211D14FEA850C0EFA0CF724EA07075C
:1008D00003FA0CF43C43CF78282F02D0482F02D0E3
:1008E00002E0466100E006616D1C082DE4D304605F
:1008F0000C88FF2C1ED944685FF0000606F108073B
:1009000002FA07F50F882F40AF420FD14FEA860C4D
:100910000EFA0CF7BC4303FA0CF73C43CF78282FB0
:1009200000D14561CF78482F00D10561761C082E93
:10093000E4D34460F0BD4FF6FF7101800221817065
:100940000421C17070470246002092680A4200D01C
:1009500001207047806880B2704702460020D2684C
:100960000A4200D001207047C06880B27047016120
:100970007047416170470AB101617047416170473A
:10098000C160704741F48032826181618261816916
:10099000806970472C4B10B51A684FF6807422405E
:1009A00042EA00100843186010BD2849C86170472A
:1009B000F0B5254C002801DAE36900E06368420DD8
:1009C000120185B2C0F301579540C0F30346032FCF
:1009D00005D0C2020AD50322B240934307E023F0B8
:1009E0007062636823F07063636002E0AB4343F0BE
:1009F000706201B12A43002801DAE261F0BD626051
:100A0000F0BD10B58A0721F003040F49130F2144EC
:100A10000F228C689A4094438C608A689840024305
:100A20008A6010BD0949DC31086070470008014048
:100A3000000C01400010014000140140001801406A
:100A4000001C014000200140000001400000204245
:100A5000A548016841F0010101604168A34A1140C5
:100A600041600168A24A11400160016821F48021BF
:100A70000160416821F4FE0141604FF41F01816073
:100A8000704799490A6822F480320A600A6822F4A1
:100A900080220A60B0F5803F07D0B0F5802F03D1E7
:100AA000086840F4A02008607047086840F480306F
:100AB000F9E70246002053098B49012B0AD0022B8B
:100AC0000AD0496A02F01F02012393400B4200D072
:100AD000012070470968F5E7096AF3E718B50020B7
:100AE0004FF4A06400903120FFF7E3FF0099491C08
:100AF0000091A14201D00028F5D03120FFF7D9FFA5
:100B0000002800D0012018BD77490A6822F0F802B9
:100B100042EAC00008607047764908607047724A30
:100B20005368084323F47C1318435060704771499D
:100B3000086670476C4A516821F003010143516017
:100B400070476948406800F00C007047664A516879
:100B500021F0F001014351607047634A516821F46C
:100B6000E0610143516070475F494A6822F4605276
:100B700042EAC000486070475B4A0029517A01D0C0
:100B8000014300E08143517270475A49D8310860EF
:100B90007047554A516821F4404101435160704704
:100BA0005149002281F8202081F82020012802D01C
:100BB000042802D1052081F8200070474E490860C2
:100BC000704749490A6A02430A6270474A494439F0
:100BD0000860704730B544494A6812F00C03474A30
:100BE00003D0042B01D0082B22D002604A680F23C7
:100BF000434C03EA1212A35C0268DA4042604B687D
:100C0000072505EA1323E35C22FA03F383604B68AC
:100C100005EAD323E35C22FA03F2C26049680323A6
:100C200003EA9131231F595CB2FBF1F1016130BD40
:100C30004A684B6802F470124FF0020413F4803FCC
:100C400004EB924202D04B689B0301D52D4B00E090
:100C50002A4B5A43C9E7244A0029516901D001436C
:100C600000E08143516170471F4A0029916901D01A
:100C7000014300E08143916170471B4A0029D1691B
:100C800001D0014300E08143D1617047164A002939
:100C9000D16801D0014300E08143D1607047124A1E
:100CA0000029116901D0014300E0814311617047BF
:100CB00011494039086070470E49C86470470A49B5
:100CC000C87170470848416A41F0807141627047BD
:100CD000054A0146002092680A4200D00120704770
:100CE0000149887270470000001002400000FFF8C0
:100CF000FFFFF6FE000042428004424200127A00EA
:100D00000400002000093D00C64910B588420AD100
:100D100001218C032046FFF7B9FF2046BDE81040B3
:100D20000021FFF7B3BFC049884202D101214C0422
:100D300010E0BE49884202D101218C040AE0BC497E
:100D4000884202D10121CC0404E0BA4988420AD188
:100D500001210C052046FFF7A2FF2046BDE8104008
:100D60000021FFF79CBF10BD30B50446008A85B056
:100D70000D464CF6FF710840E98801432182A189A4
:100D80004EF6F3100140A8882A8910436A890A4365
:100D90001043A081A08A4FF6FF410840A989014372
:100DA000A1826846FFF716FF9E48844201D103984E
:100DB00000E00298A1890904002900EBC00101EBC1
:100DC0000010296802DA4FEA410101E04FEA81018F
:100DD000B0FBF1F06422B0FBF2F14FEA01114FEAEF
:100DE00011136FF018056B4300EB8300A3891D04FA
:100DF0004FF0320306D503EBC000B0FBF2F000F079
:100E0000070005E003EB0010B0FBF2F000F00F006C
:100E10000843208105B030BD4FF416510160002118
:100E20008180C18001810C2242818181704710B58F
:100E3000038A4FF2FF0213400A884C8822438C88B1
:100E4000C9880C4322431A43028210BD002101804D
:100E500041808180C18070470029818902D041F49E
:100E6000005101E021F400518181704710B5C1F3B8
:100E7000421301F01F040121A140012B07D0022BD6
:100E800007D01430002A026805D00A4304E00C3071
:100E9000F8E71030F6E78A43026010BD002A828A24
:100EA00001D00A4300E08A4382827047028A22F01E
:100EB0000F020282028A0A4302827047828922F468
:100EC0000062828182890A43828170470029818978
:100ED00002D041F0020101E021F00201818170475E
:100EE000028A22F020020282028A0A4302827047AA
:100EF0000029018A02D041F4804101E021F48041BF
:100F000001827047C1F30801818070478088C0F377
:100F100008007047818941F0010181817047028B8F
:100F2000D2B20283028B42EA012101837047028B15
:100F300002F47F420283028B0A4302837047002936
:100F4000818A02D041F0200101E021F0200181825C
:100F500070470029818A02D041F0100101E021F0A0
:100F60001001818270470029818A02D041F0080176
:100F700001E021F00801818270470029818902D0B7
:100F800041F4004101E0C1F30E0181817047002965
:100F9000818A02D041F4006101E021F40061818284
:100FA0007047828A22F004028282828A0A43828205
:100FB00070470029818A02D041F0020101E021F04E
:100FC0000201818270470246002012880A4200D046
:100FD00001207047C9430180704730B501F01F02FE
:100FE00001240025C1F3421304FA02F2012B0FD0B1
:100FF000022B0FD0838A4FEA11210088134204FA92
:1010000001F400EA040001D000B10125284630BDFA
:101010008389F0E7038AEEE70A0A01219140C94378
:101020000180704700380140004400400048004003
:10103000004C0040005000400CB500214C4801918C
:101040000091026842F4803202604FF4A0630268AB
:1010500002F400320092019A521C0192009A12B9D5
:10106000019A9A42F3D10268920333D5012100918B
:1010700040490A6842F010020A600A6822F003023E
:101080000A600A6842F002020A60416841604168F1
:101090004160416841F480614160416821F47C1104
:1010A0004160416841F4E8114160016841F080719C
:1010B000016001688901FCD5416821F003014160AC
:1010C000416841F0020141604168C1F38101022998
:1010D000FAD10CBD00910CBD254810B5016841F056
:1010E000010101604168244A114041600168234ABE
:1010F00011400160016821F480210160416821F400
:10110000FE0141604FF41F018160FFF795FF1C490C
:101110004FF00060086010BD154910B54868194AC5
:1011200010F00C03184803D0042B01D0082B0BD06F
:1011300002604968144AC1F30311121D515C026830
:1011400022FA01F2026010BD4A684B6802F4701284
:101150004FF0020413F4803F04EB924202D04B683C
:101160009B0301D5094B00E0064B5A43E0E7000022
:1011700000100240002002400000FFF8FFFFF6FED2
:1011800008ED00E000127A001400002000093D0084
:101190000648804706480047FEE7FEE7FEE7FEE711
:1011A000FEE7FEE7FEE7FEE7FEE7FEE7D9100008F0
:1011B0003101000808B501210820FFF755FD012184
:1011C0004020FFF751FD2020ADF8000003208DF8EE
:1011D000020010208DF8030069460448FFF75DFB0C
:1011E00069460348FFF759FB08BD0000000C0140A9
:1011F00000180140134814490068B0FBF1F0B0F149
:10120000807F0DD220F07F414FF0E020491E4161E8
:101210000E4AF021117000218161072101617047A0
:10122000FEE701B50A480099016001680029FCD178
:1012300008BD07480168002902D00168491E016005
:10124000704700001400002040420F0023ED00E032
:101250002800002038B501210820FFF705FD0121F5
:101260000420FFF701FD01214020FFF7FDFC1C20B9
:10127000ADF8000001248DF8024048208DF80300ED
:1012800069460748FFF709FBADF800408DF80240BA
:1012900028208DF8030069460248FFF7FEFA38BDA2
:1012A000001801400008014008B501210820FFF79F
:1012B000DBFC4FF48070ADF8000003208DF80200D5
:1012C00010208DF8030069460148FFF7E6FA08BDD3
:1012D000000C014070B5044686B0012144F20400C0
:1012E000FFF7C2FC234D2846FFF70EFD6815ADF849
:1012F000100003208DF8120018201F4E8DF81300E7
:1013000004A93046FFF7C9FA2815ADF810000420EB
:101310008DF8130004A93046FFF7BFFA0020ADF89E
:101320000400ADF80600ADF80800ADF80C000C2084
:10133000ADF80A00009469462846FFF715FD012222
:1013400040F225512846FFF791FD01212846FFF77D
:1013500083FD06B070BD70B5064D0446C1B2284687
:10136000FFF7D0FD40212846FFF72DFE0028F9D0D9
:10137000204670BD0038014000080140FB4908804C
:101380007047FA49891C08807047F848801C00881B
:101390007047F64A1080901C01807047F34910B5E1
:1013A00008800520FFF73DFFF048801C008810BD35
:1013B000EF48EE49008908807047EC49891C088095
:1013C0007047C0F34511C20AC00200EB411010443F
:1013D00080B270470100A0F10100C0B2FAD170479D
:1013E0002DE9F043E24EE14A3746B5880C46931C9E
:1013F000B989B7F80A80A5F5134CBCF1410C0DD0A2
:10140000A5F5A647103F09D0B14696F806C0368824
:10141000A5F5D047361A761E043F04D11180E0B2FC
:101420001880BDE8F083A5F5AA47103F01D1491CFB
:10143000F4E74B46BCF1010F00D1B0B20146404683
:10144000FFF7A7FF98892146BDE8F043A1E7F0B573
:10145000C74D002634462A88824202D96A888A42C9
:1014600001D80020F0BDFFF7BBFFA98849F2413247
:10147000BE4846F6040345F2103545F21057914236
:1014800003D0994201D0A94201D12E2305E0B942EF
:1014900002D14FF4385300E022230380A1F513401A
:1014A000203805D101200300A0F10100C0B2FAD11B
:1014B000AE48801C012300885FEA030CA3F10103FE
:1014C000DBB2F9D1914203D0A94201D0B9420BD18C
:1014D00001231C00A3F10103DBB2FAD1C3B24FF622
:1014E000FF76044606EA0326A1F51343253BB9D04F
:1014F000A1F58A43353BB5D01B1DB3D0A1F50943F7
:10150000893BAFD0A1F53543053BABD0914203D029
:10151000A94201D0B94207D16FF30A00B10A40EAEB
:10152000411040EAD420F0BDBDE8F04049E79048C2
:101530008E498088A0F51342413A07D0A0F5D042E9
:10154000043A03D0A0F5A642103A01D1292005E0C3
:10155000A0F5AA42103A03D14FF4245008807047F6
:1015600040F27311072014E7814880498088A0F574
:101570001342413A07D0A0F5D042043A03D0A0F577
:10158000A642103A01D1282005E0A0F5AA42103A5F
:1015900003D14FF420500880704700210720F8E65F
:1015A000F0B5734D00242946AB79898846F60402CC
:1015B000012B18D1914216D0082814D2DFE800F090
:1015C0000406080A0C0E101206200CE007200AE0A0
:1015D000042008E0052006E0012004E0002002E0ED
:1015E000032000E00220A1F5134345F2103745F235
:1015F0001056413B05D0914203D0B94201D0B142CF
:1016000049D1082812D2DFE800F0110406080A0CBC
:101610000E1080240AE0402408E0C02406E02024C4
:1016200004E0602402E0A02400E0E024B14202D102
:101630004FF4585000E03620B94203D0B14201D0F7
:1016400044F00804914201D144F002042146FFF71E
:10165000A0FEA00614D4A879012811D02888698892
:10166000884201D9298068804049A8888A1CB042F4
:10167000A8890AD1AB785B1EC01C0880D8B208E0EC
:10168000288869888842EDD3EEE70880A878401E54
:10169000C0B21080F0BD082812D2DFE800F00406C6
:1016A00008110A0C0E1030240AE0102408E020244F
:1016B00006E0382404E0282402E0182400E008248E
:1016C000A1F50940893804D1112046F24001214397
:1016D00002E0032044F48051BDE8F04059E600B533
:1016E000FFF77EFEFFF764FE22482049891C008830
:1016F000088000BD2DE9F0471D4B92461F469A8891
:101700001A4C0E46A51CB989B7F80A90A2F5134CDD
:10171000BCF1410C13D0A2F5A647103F0FD0B7F58E
:10172000007701D1491C0AE0114FA2F5D04C97F87F
:1017300006803F883F1A7F1EBCF1040C03D1218034
:10174000F0B228800BE0B8F1010F00D1B8B2014629
:101750004846FFF71EFE98893146FFF71AFE1889A2
:101760002080A5F800A0BDE8F0870000FE07006C0F
:10177000340000202C0000202DE9F04F2C232A24D7
:101780002B252222212648F689194FF04E0A4FF0C8
:101790004F0B45F2105EF02749F24138FB4989882A
:1017A00098B1FA484FF0010C414580F806C04FF45B
:1017B000A07CA0F800C0478003D0A1F5A647103F49
:1017C00046D103814481858168E0F0484FF0000CE8
:1017D000414580F806C007804FF4A077478009D0C4
:1017E000A1F5D04CBCF1040C04D0A1F5A04CBCF583
:1017F000447C0ED103814481A1F5D0428581043A15
:1018000003D0A1F5A642103A55D107804FF4F071EC
:1018100017E0494505D10281A0F80AA0A0F80CB054
:1018200049E071450FD14FF4305101814FF42851F7
:1018300041814FF42C5181814FF4F07101804FF4BC
:101840004871418037E0028120214181868132E068
:10185000A1F5D047043F03D10381458184811DE078
:10186000494505D10281A0F80AB0A0F80CA015E006
:1018700071450FD14FF4305202814FF4285242810A
:101880004FF42C5282814FF4487202804FF4F07270
:10189000428003E00281468120228281A1F5D0426C
:1018A000043A03D0A1F5A642103A04D14FF4F071E6
:1018B0000180A0F802C0BDE8F04F002070E62DE9DD
:1018C000F04305461044401E86B2C818AF4A0C4685
:1018D000401E81B293881046AD4F8089A3F5134C0A
:1018E00007F10208BCF1410C09D0A3F5A04CBCF5EE
:1018F000447C04D0A3F5D04CBCF1040C04D1388056
:10190000C8B2A8F800008CE5A3F5A04CBCF5A26C09
:1019100001D1C01CF3E79079012811D03746284641
:1019200026468C46A3F50941893914D1442240EA60
:10193000072080B2914607464FF04508462310E045
:101940000F46118820468A1B521E491B491E96B21B
:101950001FFA81FCE6E750224FF051094FF0520880
:10196000532301461046FFF714FD39464846FFF75A
:1019700010FD31464046FFF70CFD61461846FFF763
:1019800008FD21462846BDE8F04329E52DE9F0434E
:101990007E4C81460025208866884643A088A0F5B5
:1019A000D041043902D1A079012808D0002108468D
:1019B000FFF716FDFFF7FCFC7548801C13E00020C4
:1019C000A0712A2767814FF02B08A4F80C800146EC
:1019D000FFF706FD0120A071A4F80A80A781E9E7BE
:1019E000A0F800906D1CB542FAD31AE52DE9F04F2E
:1019F0004FF48078A1B001214046FFF72CF9012176
:101A000040F26910FFF730F90120ADF83C001024D6
:101A10008DF83F4003208DF83E000FA95D48FEF78A
:101A20003CFF4CF23370ADF83C0018208DF83F00BD
:101A300003208DF83E000FA95748FEF72EFF4FF602
:101A40008070ADF83C0018208DF83F0003208DF821
:101A50003E000FA95148FEF720FF41F20100ADF80A
:101A60003C0018208DF83F0003208DF83E000FA9A0
:101A70004B48FEF712FF0120109000200F21CDE906
:101A80001101139014900321CDE9180115901690BF
:101A900017901A9006211B901C90CDE90010CDE9FB
:101AA00002041D9004902102CDE9080106900590E2
:101AB00007908900CDE90A010C9010A80D9017A895
:101AC0000E906846FEF791FC01210620FEF7BCFD52
:101AD0004CF250373846FFF7A4FB01210020FFF7F6
:101AE00058FC3846FFF79DFB0020FFF757FC274DB9
:101AF000274C49F2413AA61CA88046F6040B4FF643
:101B0000FF79FF2804D3484502D0B0F5134F1ED10A
:101B1000D3202080308809EA00210843A88050455E
:101B200015D0BF212180A880584510D0D421218014
:101B3000A0F5A641A880103909D04FF45C4121805E
:101B4000A880B0F5004F02D145F21050A88081B2B4
:101B500014A002F099FBA888504504D1EF203080F2
:101B6000112020800CE044F62065584524D1112036
:101B700020802846FFF755FB2A202080DF20308078
:101B80000C48FFF74EFB2920FDE300003400002045
:101B9000FE07006C000C01400014014000180140D9
:101BA00000200140204C43442049443A25780D0A46
:101BB00000000000C0D40100A0F5A64110390AD1F0
:101BC0005520308011202080FE48FFF72AFB82201C
:101BD00030802C20D8E7A0F5AA4110397ED14FF4EF
:101BE000704355211846FFF7D4FB4FF20105AA2197
:101BF0002846FFF7CEFB6E1C52213046FFF7C9FB8B
:101C0000AF1C08213846FFF7C4FB4FF2040C01213A
:101C10006046FFF7BEFB0D214FF43040FFF7B9FBE4
:101C20000D214BF20100FFF7B4FB0D214BF2020036
:101C3000FFF7AFFB4FF4364834214046FFF7A9FBCE
:101C400034214BF20160FFF7A4FB34214BF2026018
:101C5000FFF79FFB4FF4314A0D215046FFF799FBE8
:101C60004BF2011B0D215846FFF793FB0D214BF260
:101C70000210FFF78EFB34214FF43740FFF789FB4A
:101C800034214BF20170FFF784FB34214BF20270D8
:101C9000FFF77FFB00214FF43240FFF77AFB002172
:101CA0004BF20120FFF775FB00214BF20220FFF7FA
:101CB00070FB24214FF43840FFF76BFB24214BF6D7
:101CC0000100FFF766FB24214BF60200FFF761FBE2
:101CD00001214FF43F40FFF75CFB00E0FDE30F21E3
:101CE0004FF43340FFF755FB0F214BF20130FFF764
:101CF00050FB0F214BF20230FFF74BFB34214FF426
:101D00003940FFF746FB34214BF60110FFF741FB4A
:101D100034214BF60210FFF73CFB08214FF435400D
:101D2000FFF737FB08214BF20150FFF732FB082188
:101D30004BF20250FFF72DFB03214FF44240FFF717
:101D400028FB24214FF43A40FFF723FB24214BF6D4
:101D50000120FFF71EFB24214BF60220FFF719FBA1
:101D600000214FF43C40FFF714FB78214BF6014073
:101D7000FFF70FFB00214BF60240FFF70AFB0021A3
:101D80004FF43D40FFF705FB78214BF60150FFF77C
:101D900000FB00214BF60250FFF7FBFA00214FF445
:101DA0003E40FFF7F6FA64214BF60160FFF7F1FAC7
:101DB00000214FF45140FFF7ECFA33214DF20110AE
:101DC000FFF7E7FA00214DF20210FFF7E2FA3421A3
:101DD0004DF20310FFF7DDFA00214DF20410FFF77A
:101DE000D8FA3A214DF20510FFF7D3FA00214DF24F
:101DF0000610FFF7CEFA4A214DF20710FFF7C9FA95
:101E000000214DF20810FFF7C4FA5C214DF20910D1
:101E1000FFF7BFFA00214DF20A10FFF7BAFA81214D
:101E20004DF20B10FFF7B5FA00214DF20C10FFF741
:101E3000B0FAA6214DF20D10FFF7ABFA00214DF2DA
:101E40000E10FFF7A6FAE5214DF20F10FFF7A1FAE9
:101E500001214DF21010FFF79CFA13214DF21110E1
:101E6000FFF797FA01214DF21210FFF792FA542171
:101E70004DF21310FFF78DFA01214DF21410FFF708
:101E800088FA82214DF21510FFF783FA01214DF2F5
:101E90001610FFF77EFACA214DF21710FFF779FAF4
:101EA00002214DF21810FFF774FA00214DF21910BB
:101EB000FFF76FFA02214DF21A10FFF76AFA0121BB
:101EC0004DF21B10FFF765FA02214DF21C10FFF7CF
:101ED00060FA34214DF21D10FFF75BFA02214DF23A
:101EE0001E10FFF756FA67214DF21F10FFF751FA47
:101EF00002214DF22010FFF74CFA84214DF22110FF
:101F0000FFF747FA02214DF22210FFF742FAA4210F
:101F10004DF22310FFF73DFA02214DF22410FFF796
:101F200038FAB7214DF22510FFF733FA02214DF2AE
:101F30002610FFF72EFACF214DF22710FFF729FACE
:101F400002214DF22810FFF724FADE214DF229106C
:101F5000FFF71FFA02214DF22A10FFF71AFAF221B9
:101F60004DF22B10FFF715FA02214DF22C10FFF75E
:101F700010FAFE214DF22D10FFF70BFA03214DF25E
:101F80002E10FFF706FA10214DF22F10FFF701FA7D
:101F900003214DF23010FFF7FCF933214DF23110DF
:101FA000FFF7F7F903214DF23210FFF7F2F96D2137
:101FB0004DF23310FFF7EDF900214FF45240FFF7D7
:101FC000E8F901E0A086010033214DF20120FFF77E
:101FD000E0F900214DF20220FFF7DBF934214DF248
:101FE0000320FFF7D6F900214DF20420FFF7D1F9C5
:101FF0003A214DF20520FFF7CCF900214DF20620E1
:10200000FFF7C7F94A214DF20720FFF7C2F9002177
:102010004DF20820FFF7BDF95C214DF20920FFF7D2
:10202000B8F900214DF20A20FFF7B3F981214DF2F2
:102030000B20FFF7AEF900214DF20C20FFF7A9F9B4
:10204000A6214DF20D20FFF7A4F900214DF20E203C
:10205000FFF79FF9E5214DF20F20FFF79AF90121D3
:102060004DF21020FFF795F913214DF21120FFF7E3
:1020700090F901214DF21220FFF78BF954214DF216
:102080001320FFF786F901214DF21420FFF781F9A3
:1020900082214DF21520FFF77CF901214DF2162027
:1020A000FFF777F9CA214DF21720FFF772F90221E5
:1020B0004DF21820FFF76DF900214DF21920FFF7BE
:1020C00068F902214DF21A20FFF763F901214DF260
:1020D0001B20FFF75EF902214DF21C20FFF759F992
:1020E00034214DF21D20FFF754F902214DF21E203C
:1020F000FFF74FF967214DF21F20FFF74AF9022140
:102100004DF22020FFF745F984214DF22120FFF701
:1021100040F902214DF22220FFF73BF9A4214DF2B4
:102120002320FFF736F902214DF22420FFF731F981
:10213000B7214DF22520FFF72CF902214DF2262080
:10214000FFF727F9CF214DF22720FFF722F90221CF
:102150004DF22820FFF71DF9DE214DF22920FFF76F
:1021600018F902214DF22A20FFF713F9F2214DF25E
:102170002B20FFF70EF902214DF22C20FFF709F971
:10218000FE214DF22D20FFF704F903214DF22E2000
:10219000FFF7FFF810214DF22F20FFF7FAF8032187
:1021A0004DF23020FFF7F5F833214DF23120FFF7E3
:1021B000F0F803214DF23220FFF7EBF86D214DF2DC
:1021C0003320FFF7E6F800214FF45340FFF7E1F822
:1021D00033214DF20130FFF7DCF800214DF20230DF
:1021E000FFF7D7F834214DF20330FFF7D2F8002182
:1021F0004DF20430FFF7CDF83A214DF20530FFF7EC
:10220000C8F800214DF20630FFF7C3F84A214DF21D
:102210000730FFF7BEF800214DF20830FFF7B9F89C
:102220005C214DF20930FFF7B4F800214DF20A307D
:10223000FFF7AFF881214DF20B30FFF7AAF800212C
:102240004DF20C30FFF7A5F8A6214DF20D30FFF747
:10225000A0F800214DF20E30FFF79BF8E5214DF27A
:102260000F30FFF796F801214DF21030FFF791F88B
:1022700013214DF21130FFF78CF801214DF212308D
:10228000FFF787F854214DF21330FFF782F8012150
:102290004DF21430FFF77DF882214DF21530FFF733
:1022A00078F801214DF21630FFF773F8CA214DF28C
:1022B0001730FFF76EF802214DF21830FFF769F87A
:1022C00000214DF21930FFF764F802214DF21A3067
:1022D000FFF75FF801214DF21B30FFF75AF802219A
:1022E0004DF21C30FFF755F834214DF21D30FFF749
:1022F00050F802214DF21E30FFF74BF867214DF2E6
:102300001F30FFF746F802214DF22030FFF741F869
:1023100084214DF22130FFF73CF802214DF22230AA
:10232000FFF737F8A4214DF22330FFF732F80221EE
:102330004DF22430FFF72DF8B7214DF22530FFF78D
:1023400028F802214DF22630FFF723F8CF214DF275
:102350002730FFF71EF802214DF22830FFF719F859
:10236000DE214DF22930FFF714F802214DF22A3018
:10237000FFF70FF8F2214DF22B30FFF70AF8022198
:102380004DF22C3000E0AAE3FFF703F8FE214DF2F6
:102390002D30FEF7FEFF03214DF22E30FEF7F9FF40
:1023A00010214DF22F30FEF7F4FF03214DF23030B3
:1023B000FEF7EFFF33214DF23130FEF7EAFF032144
:1023C0004DF23230FEF7E5FF6D214DF23330FEF76E
:1023D000E0FF00214FF45440FEF7DBFF33214DF2C4
:1023E0000140FEF7D6FF00214DF20240FEF7D1FF7B
:1023F00034214DF20340FEF7CCFF00214DF20440A2
:10240000FEF7C7FF3A214DF20540FEF7C2FF00215B
:102410004DF20640FEF7BDFF4A214DF20740FEF7A0
:10242000B8FF00214DF20840FEF7B3FF5C214DF2EA
:102430000940FEF7AEFF00214DF20A40FEF7A9FF6A
:1024400081214DF20B40FEF7A4FF00214DF20C401C
:10245000FEF79FFFA6214DF20D40FEF79AFF0021E7
:102460004DF20E40FEF795FFE5214DF20F40FEF7CD
:1024700090FF01214DF21040FEF78BFF13214DF22A
:102480001140FEF786FF01214DF21240FEF781FF59
:1024900054214DF21340FEF77CFF01214DF2144010
:1024A000FEF777FF82214DF21540FEF772FF012102
:1024B0004DF21640FEF76DFFCA214DF21740FEF7B0
:1024C00068FF02214DF21840FEF763FF00214DF234
:1024D0001940FEF75EFF022100E002E34DF21A40D0
:1024E000FEF757FF01214DF21B40FEF752FF02217C
:1024F0004DF21C40FEF74DFF34214DF21D40FEF71A
:1025000048FF02214DF21E40FEF743FF67214DF2C6
:102510001F40FEF73EFF02214DF22040FEF739FF3B
:1025200084214DF22140FEF734FF02214DF222407A
:10253000FEF72FFFA4214DF22340FEF72AFF0221D0
:102540004DF22440FEF725FFB7214DF22540FEF75E
:1025500020FF02214DF22640FEF71BFFCF214DF256
:102560002740FEF716FF02214DF22840FEF711FF2B
:10257000DE214DF22940FEF70CFF02214DF22A40E8
:10258000FEF707FFF2214DF22B40FEF702FF02217A
:102590004DF22C40FEF7FDFEFE214DF22D40FEF7E0
:1025A000F8FE03214DF22E40FEF7F3FE10214DF20E
:1025B0002F40FEF7EEFE03214DF23040FEF7E9FE1C
:1025C00033214DF23140FEF7E4FE03214DF232405B
:1025D000FEF7DFFE6D214DF23340FEF7DAFE0021FB
:1025E0004FF45540FEF7D5FE33214DF20150FEF772
:1025F000D0FE00214DF20250FEF7CBFE34214DF209
:102600000350FEF7C6FE00214DF20450FEF7C1FE56
:102610003A214DF20550FEF7BCFE00214DF2065066
:10262000FEF7B7FE4A214DF20750FEF7B2FE002139
:102630004DF20850FEF7ADFE5C214DF20950FEF759
:10264000A8FE00214DF20A50FEF7A3FE81214DF2B3
:102650000B50FEF79EFE00214DF20C50FEF799FE46
:10266000A6214DF20D50FEF794FE00214DF20E50C2
:10267000FEF78FFEE5214DF20F50FEF78AFE012195
:102680004DF21050FEF785FE13214DF21150FEF76A
:1026900080FE01214DF21250FEF77BFE54214DF2D7
:1026A0001350FEF776FE01214DF21450FEF771FE35
:1026B00082214DF21550FEF76CFE01214DF21650AD
:1026C000FEF767FECA214DF21750FEF762FE0221A7
:1026D0004DF21850FEF75DFE00214DF21950FEF745
:1026E00058FE02214DF21A50FEF753FE01214DF221
:1026F0001B50FEF74EFE02214DF21C50FEF749FE24
:1027000034214DF21D50FEF744FE02214DF21E50C1
:10271000FEF73FFE67214DF21F50FEF73AFE022101
:102720004DF22050FEF735FE84214DF22150FEF788
:1027300030FE02214DF22250FEF72BFEA4214DF275
:102740002350FEF726FE02214DF22450FEF721FE13
:10275000B7214DF22550FEF71CFE02214DF2265006
:10276000FEF717FECF214DF22750FEF712FE022191
:102770004DF22850FEF70DFEDE214DF22950FEF7F6
:1027800008FE02214DF22A50FEF703FEF2214DF21F
:102790002B50FEF7FEFD02214DF22C50FEF7F9FD05
:1027A000FE214DF22D50FEF7F4FD03214DF22E5087
:1027B000FEF7EFFD10214DF22F50FEF7EAFD032149
:1027C0004DF23050FEF7E5FD33214DF23150FEF76A
:1027D000E0FD03214DF23250FEF7DBFD6D214DF29D
:1027E0003350FEF7D6FD00214FF45640FEF7D1FDE1
:1027F00033214DF20160FEF7CCFD00214DF2026065
:10280000FEF7C7FD34214DF20360FEF7C2FD002143
:102810004DF20460FEF7BDFD3A214DF20560FEF772
:10282000B8FD00214DF20660FEF7B3FD4A214DF2DE
:102830000760FEF7AEFD00214DF20860FEF7A9FD2E
:102840005C214DF20960FEF7A4FD00214DF20A6003
:10285000FEF79FFD81214DF20B60FEF79AFD0021EE
:102860004DF20C60FEF795FDA6214DF20D60FEF7CE
:1028700090FD00214DF20E60FEF78BFDE5214DF23B
:102880000F60FEF786FD01214DF21060FEF781FD1D
:1028900013214DF21160FEF77CFD01214DF2126013
:1028A000FEF777FD54214DF21360FEF772FD012112
:1028B0004DF21460FEF76DFD82214DF21560FEF7BA
:1028C00068FD01214DF21660FEF763FDCA214DF24D
:1028D0001760FEF75EFD02214DF21860FEF759FD0C
:1028E00000214DF21960FEF754FD02214DF21A60ED
:1028F000FEF74FFD01214DF21B60FEF74AFD02215C
:102900004DF21C60FEF745FD34214DF21D60FEF7CF
:1029100040FD02214DF21E60FEF73BFD67214DF2A6
:102920001F60FEF736FD02214DF22060FEF731FDFB
:1029300084214DF22160FEF72CFD02214DF2226030
:10294000FEF727FDA4214DF22360FEF722FD0221B0
:102950004DF22460FEF71DFDB7214DF22560FEF714
:1029600018FD02214DF22660FEF713FDCF214DF236
:102970002760FEF70EFD02214DF22860FEF709FDEB
:10298000DE214DF22960FEF704FD02214DF22A609E
:10299000FEF7FFFCF2214DF22B60FEF7FAFC02215C
:1029A0004DF22C60FEF7F5FCFE214DF22D60FEF796
:1029B000F0FC03214DF22E60FEF7EBFC10214DF2EE
:1029C0002F60FEF7E6FC03214DF23060FEF7E1FCDC
:1029D00033214DF23160FEF7DCFC03214DF2326011
:1029E000FEF7D7FC6D214DF23360FEF7D2FC552186
:1029F0001846FEF7CEFCAA212846FEF7CAFC522153
:102A00003046FEF7C6FC08213846FEF7C2FC00211E
:102A10006046FEF7BEFCCC215046FEF7BAFC002112
:102A20005846FEF7B6FC05214046FEF7B2FC702181
:102A30004FF43740FEF7ADFC70214BF20170FEF70A
:102A4000A8FC01214FF43840FEF7A3FC03214BF60C
:102A50000100FEF79EFC03214BF60200FEF799FCF5
:102A600003214BF60300FEF794FC02214FF43C4097
:102A7000FEF78FFC00214BF60140FEF78AFC002197
:102A80004BF60240FEF785FCD0214FF44940FEF79B
:102A900080FC02214CF60110FEF77BFC50214CF625
:102AA0000210FEF776FC50214CF60310FEF771FC85
:102AB00050214CF60410FEF76CFC00214FF45450EA
:102AC000FEF767FC55214FF46850FEF762FC4FF4A7
:102AD000885020807820FEF7A4FB4FF424502080FB
:102AE000FEE3A0F513414FF4E06A40F23F144FF4C7
:102AF000274B25397ED147F6F001E520FEF749FC4A
:102B000041460120FEF745FC51460220FEF741FCFC
:102B100041F230010320FEF73CFC00210420FEF7C7
:102B200038FC40F202210820FEF733FC0021092086
:102B3000FEF72FFC00210A20FEF72BFC00210C20C1
:102B4000FEF727FC00210D20FEF723FC00210F20BB
:102B5000FEF71FFC00211020FEF71BFC07211120AF
:102B6000FEF717FC00211220FEF713FC00211320B2
:102B7000FEF70FFC00210720FEF70BFC41F29061ED
:102B80001020FEF706FC40F227211120FEF701FC81
:102B90009D211220FEF7FDFB4FF4C8511320FEF7D4
:102BA000F8FB25212920FEF7F4FB0D212B20FEF751
:102BB000F0FB07213020FEF7ECFB40F2033131201F
:102BC000FEF7E7FB03213220FEF7E3FB40F206218C
:102BD0003520FEF7DEFB08213620FEF7DAFB40F257
:102BE00006413720FEF7D5FB4FF441713820FEF740
:102BF000D0FB00E04DE007213920FEF7CAFB40F290
:102C000002613C20FEF7C5FB08213D20FEF7C1FB19
:102C100000215020FEF7BDFBEF215120FEF7B9FB4C
:102C200000215220FEF7B5FB21465320FEF7B1FBF1
:102C300059466020FEF7ADFB01216120FEF7A9FB9C
:102C400000216A20FEF7A5FB00218020FEF7A1FBF2
:102C500000218120FEF79DFB00218220FEF799FBD9
:102C600000218320FEF795FB00218420FEF791FBD5
:102C700000218520FEF78DFB10219020FEF789FBB7
:102C80004FF4C0619220FEF784FB40F2331107201D
:102C9000FEE3A0F5134140F2077628397ED141F2D8
:102CA0008F01EC20FEF775FB41F23421EF20FEF797
:102CB00070FB41460120FEF76CFB51460220FEF7F7
:102CC00068FB41F230010320FEF763FB0021042082
:102CD000FEF75FFB40F202210820FEF75AFB0021BD
:102CE0000920FEF756FB00210A20FEF752FB0121C6
:102CF0000C20FEF74EFB00210D20FEF74AFB0021C1
:102D00000F20FEF746FB00211020FEF742FB0721B3
:102D10001120FEF73EFB00211220FEF73AFB0021B6
:102D20001320FEF736FB01210720FEF732FB384661
:102D3000FEF777FA41F290411020FEF72AFB40F2AD
:102D400027211120FEF725FB3846FEF76AFA8A2173
:102D50001220FEF71EFB3846FEF763FA4FF4D051FF
:102D60001320FEF716FB06212920FEF712FB0D218A
:102D70002B20FEF70EFB3846FEF753FA00212020E9
:102D8000FEF707FB00212120FEF703FB3846FEF784
:102D900048FA00213020FEF7FCFA00E03EE040F265
:102DA00004613120FEF7F5FA40F205313220FEF7DA
:102DB000F0FA00213520FEF7ECFA40F60941362002
:102DC000FEF7E7FA4FF401713720FEF7E2FA40F21E
:102DD00001313820FEF7DDFA31463920FEF7D9FA05
:102DE00000213C20FEF7D5FA40F60A213D20FEF7EF
:102DF000D0FA3846FEF715FA00215020FEF7C9FA3E
:102E0000EF215120FEF7C5FA00215220FEF7C1FA4A
:102E100021465320FEF7BDFA59465DE1A0F5134166
:102E20004FF4887B20397DD10846FEF7B2FA41463F
:102E30000120FEF7AEFA51460220FEF7AAFA41F24F
:102E400030010320FEF7A5FA00210420FEF7A1FAC5
:102E500040F202210820FEF79CFA00210920FEF72B
:102E600098FA00210A20FEF794FA01210C20FEF7BF
:102E700090FA00210D20FEF78CFA00210F20FEF7BA
:102E800088FA3846FEF7CDF940F201110720FEF727
:102E900080FA3846FEF7C5F94FF486511020FEF748
:102EA00078FA07211120FEF774FA5B465946122082
:102EB000FEF76FFA4FF430611320FEF76AFA002133
:102EC0002920FEF766FA44F210012B20FEF761FA82
:102ED00000215020FEF75DFAEF215120FEF759FA4C
:102EE00000215220FEF755FA21465320FEF751FAF1
:102EF0004FF41C516020FEF74CFA01216120FEF7CF
:102F000048FA00216A20FEF744FA00218020FEF7EB
:102F100040FA00218120FEF73CFA00218220FEF7D2
:102F200038FA00E027E000218320FEF732FA002182
:102F30008420FEF72EFA00218520FEF72AFA1021C0
:102F40009020FEF726FA00219220FEF722FA0121B6
:102F50009320FEF71EFA19469520FEF71AFA002173
:102F60009720FEF716FA00219820FEF712FA40F299
:102F70007311072099E3A0F5134131397ED141F255
:102F80001401E720FEF705FA41460120FEF701FA99
:102F90004FF400710220FEF7FCF941F238010320E2
:102FA000FEF7F7F940F202210820FEF7F2F90021BE
:102FB0000920FEF7EEF900210A20FEF7EAF90021C8
:102FC0000C20FEF7E6F900210D20FEF7E2F90021C2
:102FD0000F20FEF7DEF900211020FEF7DAF90721B5
:102FE0001120FEF7D6F900211220FEF7D2F90021B8
:102FF0001320FEF7CEF9FE48FEF713F941F2906177
:103000001020FEF7C6F940F227211120FEF7C1F982
:103010003846FEF706F90C211220FEF7BAF93846B9
:10302000FEF7FFF84FF400611320FEF7B2F911210B
:103030002920FEF7AEF90B212B20FEF7AAF938461E
:10304000FEF7EFF800212020FEF7A3F9214621200A
:10305000FEF79FF900213020FEF79BF94FF48373B0
:1030600019463120FEF795F900213220FEF791F93B
:103070004FF401713520FEF78CF900E057E041F282
:103080000A613620FEF785F931463720FEF781F9CF
:1030900019463820FEF77DF931463920FEF779F9D7
:1030A00040F202413C20FEF774F940F60F413D200A
:1030B000FEF76FF900215020FEF76BF9EF21512048
:1030C000FEF767F900215220FEF763F921465320ED
:1030D000FEF75FF94FF41C516020FEF75AF9012109
:1030E0006120FEF756F900216A20FEF752F900210F
:1030F0008020FEF74EF900218120FEF74AF90021D9
:103100008220FEF746F900218320FEF742F90021D4
:103110008420FEF73EF900218520FEF73AF91021C0
:103120009020FEF736F94FF4C0619220FDE3A0F540
:10313000A84108397ED141460120FEF72AF95146BF
:103140000220FEF726F941F230010320FEF721F9B3
:1031500000210420FEF71DF940F207210820FEF7A8
:1031600018F900210920FEF714F900210A20FEF7C2
:1031700010F900210C20FEF70CF900210D20FEF7BC
:1031800008F900210F20FEF704F92846FEF749F858
:1031900041F2B0611020FEF7FCF801211120FEF78A
:1031A000F8F801211720FEF7F4F84FF49C71122073
:1031B000FEF7EFF84FF400611320FEF7EAF809215B
:1031C0002920FEF7E6F809212A20FEF7E2F800217F
:1031D000A420FEF7DEF800215020FEF7DAF8EF21F8
:1031E0005120FEF7D6F800215220FEF7D2F82146F2
:1031F0005320FEF7CEF84FF41C516020FEF7C9F8BB
:1032000001216120FEF7C5F800216A20FEF7C1F810
:1032100000218020FEF7BDF800218120FEF7B9F8DB
:1032200000218220FEF7B5F800218320FEF7B1F8D7
:10323000002100E01DE08420FEF7ABF8002185208E
:10324000FEF7A7F813219020FEF7A3F800219220A3
:10325000FEF79FF803219320FEF79BF8594695202F
:10326000FEF797F840F273110720FEF792F8384600
:1032700017E1A0F5A8514FF4407B05397ED1072016
:10328000FEF787F83846FDF7CCFF4FF48E71122019
:10329000FEF77FF80121A420FEF77BF80F2108201C
:1032A000FEF777F808210A20FEF773F808210D20B1
:1032B000FEF76FF8334631463020FEF76AF80721F3
:1032C0003120FEF766F840F203613220FEF761F824
:1032D000564651463320FEF75CF840F2022100E0EA
:1032E000F1E33420FEF755F802213520FEF751F8BE
:1032F00041F60F713620FEF74CF819463720FEF7DD
:1033000048F800213820FEF744F800213920FEF764
:1033100040F819463A20FEF73CF800213B20FEF722
:1033200038F807213C20FEF734F800213D20FEF755
:1033300030F83846FDF775FF01210720FEF729F820
:1033400001211720FEF725F83846FDF76AFF4FF4F4
:10335000BD511020FEF71DF840F217211120FEF795
:1033600018F84FF48F711220FEF713F84FF47061C4
:103370001320FEF70EF800212A2000E094E0FEF76B
:1033800008F80A212920FEF704F84FF49F71122053
:10339000FDF7FFFF00215020FDF7FBFFEF2151203B
:1033A000FDF7F7FF00215220FDF7F3FF21465320E0
:1033B000FDF7EFFF4FF41C516020FDF7EAFF0121FC
:1033C0006120FDF7E6FF00216A20FDF7E2FF002102
:1033D0008020FDF7DEFF00218120FDF7DAFF0021CC
:1033E0008220FDF7D6FF00218320FDF7D2FF01E008
:1033F000400D030000218420FDF7CBFF0021852034
:10340000FDF7C7FF13219020FDF7C3FF5946922017
:10341000FDF7BFFF05219320FDF7BBFF002195209D
:10342000FDF7B7FF00219720FDF7B3FF002198209B
:10343000FDF7AFFF41460120FDF7ABFF314602200B
:10344000FDF7A7FF41F238010320FDF7A2FF00219D
:103450000420FDF79EFF00210C20FDF79AFF0021BC
:103460000F20FDF796FF00212020FDF792FF00219D
:103470002120FDF78EFF21210720FDF78AFF284636
:10348000FDF7CFFE61210720FDF783FF284600E00E
:1034900007E1FDF7C6FE40F273110720FDF779FF43
:1034A0002846FDF7BEFE49E3A0F5354105397DD13B
:1034B0000846FDF76EFF00210846FDF76AFF002170
:1034C0000846FDF766FF00210846FDF762FF01216F
:1034D000A420FDF75EFF2846FDF7A3FE4FF41C561F
:1034E00031466020FDF755FF40F20227394608209B
:1034F000FDF74FFF4FF405713020FDF74AFF43F20F
:1035000015713120FDF745FF40F204613220FDF7CF
:1035100040FF40F616613320FDF73BFF42F21121D8
:103520003420FDF736FF4FF4A8513520FDF731FF69
:1035300048F207513620FDF72CFF41F207413720B2
:10354000FDF727FF41F203413820FDF722FF20213C
:103550003920FDF71EFF1A219020FDF71AFF0021E8
:103560001020FDF716FF07211120FDF712FF0021A3
:103570001220FDF70EFF00211320FDF70AFF284659
:10358000FDF74FFE4FF4E6611020FDF702FF40F219
:1035900037111120FDF7FDFE2846FDF742FE4FF4DE
:1035A000DC711220FDF7F5FE284600E07EE0FDF715
:1035B00038FE4FF470611320FDF7EBFE80212A20C6
:1035C000FDF7E7FE48212920FDF7E3FE2846FDF739
:1035D00028FE41460120FDF7DCFE51460220FDF7A2
:1035E000D8FE41F238010320FDF7D3FE394608200A
:1035F000FDF7CFFE00210A20FDF7CBFE00210C20B5
:10360000FDF7C7FE00210D20FDF7C3FE30210E207F
:10361000FDF7BFFE00215020FDF7BBFEEF2151203A
:10362000FDF7B7FE00215220FDF7B3FE21465320DF
:10363000FDF7AFFE31466020FDF7ABFE01216120B2
:10364000FDF7A7FE00216A20FDF7A3FE11219020BF
:10365000FDF79FFE4FF4C0619220FDF79AFE40F205
:1036600002419320FDF795FE02219420FDF791FE83
:103670002846FDF7D6FD01210720FDF78AFE2846E2
:10368000FDF7CFFD61210720FDF783FE40F27311A6
:103690000720FDF77EFE00212020FDF77AFE0021A5
:1036A0002120FDF776FE2221002045E2A0F54541CC
:1036B00005397DD10846FDF76CFE00210846FDF76F
:1036C00068FE2846FDF7ADFD00210846FDF761FEC6
:1036D00000210846FDF75DFE00210846FDF759FE72
:1036E00000210846FDF755FE0121A420FDF751FEFB
:1036F0002846FDF796FD4FF41C516020FDF749FE6A
:1037000040F606010820FDF744FE40F20373194617
:103710003020FDF73EFE01213120FDF73AFE042165
:103720003220FDF736FE4FF481713320FDF731FE74
:103730005E4659463420FDF72CFE40F20311352039
:10374000FDF727FE1F213620FDF723FE19463720FF
:10375000FDF71FFE01213820FDF71BFE0421392053
:10376000FDF717FE15219020FDF713FE4FF482613F
:103770001020FDF70EFE40F247211120FDF709FE53
:103780004FF4DE711220FDF704FE4FF46061132048
:10379000FDF7FFFDFE48FDF744FD47464146012089
:1037A000FDF7F7FD4FF400710220FDF7F2FD00E098
:1037B0004BE041F230010320FDF7EBFD08210A2028
:1037C000FDF7E7FD00210C20FDF7E3FD20210E2091
:1037D000FDF7DFFD00210F20FDF7DBFD002120209C
:1037E000FDF7D7FD00212120FDF7D3FD3D212A2043
:1037F000FDF7CFFD2846FDF714FD2D212920FDF70B
:10380000C8FD00215020FDF7C4FD4DF2EF0151200D
:10381000FDF7BFFD00215220FDF7BBFD21465320DF
:10382000FDF7B7FD00216120FDF7B3FD00216A20FF
:10383000FDF7AFFD31469220FDF7ABFD052193204A
:10384000FDF7A7FD3946FFF794BBA0F5094189397B
:103850006CD101210020FDF79CFD4AF6A401032054
:10386000FDF797FD00210C20FDF793FD40F60C01BC
:103870000D20FDF78EFD4FF42C510E20FDF789FD34
:10388000B0211E20FDF785FD42F63F310120FDF7F6
:1038900080FD4FF4C0610220FDF77BFD0021102068
:1038A000FDF777FD46F278011120FDF772FD00214A
:1038B0000520FDF76EFD00210620FDF76AFD4EF69E
:1038C0001C711620FDF765FD03211720FDF761FD32
:1038D00040F233210720FDF75CFD00210B20FDF7AE
:1038E00058FD00210F20FDF754FD00214120FDF778
:1038F00050FD00214220FDF74CFD00214820FDF73E
:1039000048FD21464920FDF744FD00214A20FDF7EE
:1039100040FD00214B20FDF73CFD4FF46F4144205A
:10392000FDF737FD0021452001E0C3E147E0FDF749
:1039300030FD21464620FDF72CFD31463020FDF7B5
:1039400028FD4FF4017319463120FDF722FD194679
:103950003220FDF71EFD40F2025421463320FDF7D0
:1039600018FD611D3420FDF714FD19463520FDF7C3
:1039700010FD19463620FDF70CFD21463720FDF7D6
:1039800008FD40F2023319463A20FDF702FD1946C0
:103990003B20FDF7FEFC00212320FDF7FAFC00216F
:1039A0002420FDF7F6FC4FF400412520FDF7F1FC43
:1039B00000214F20FDF7EDFC00214E20BCE0A0F5DA
:1039C0008A4131397ED101210020FDF7E2FC42F22B
:1039D00010742046FDF725FC41F228611020FDF708
:1039E000D8FC0E211220FDF7D4FC40F6392113201B
:1039F000FDF7CFFC2046FDF714FC40211120FDF718
:103A0000C8FC50211520FDF7C4FC2046FDF709FC39
:103A10001E211220FDF7BDFC2046FDF702FC4FF4ED
:103A2000B1511020FDF7B5FC42F639211320FDF706
:103A3000B0FC2046FDF7F5FB434641460120FDF76B
:103A4000A8FC59460220FDF7A4FC41F238010320EE
:103A5000FDF79FFC40F202210820FDF79AFC0821A7
:103A60000A20FDF796FC00213020FDF792FC40F281
:103A700002413120FDF78DFC4FF483713220FDF7B8
:103A800088FC40F203513320FDF783FC4FF4827130
:103A90003420FDF77EFC40F201313520FDF779FC42
:103AA00031463620FDF775FC40F205313720FDF731
:103AB00070FC4FF402713820FDF76BFC40F60B717F
:103AC000392001E047E039E0FDF763FC02214120A5
:103AD000FDF75FFC4FF41C516020FDF75AFC0121FB
:103AE0006120FDF756FC4FF404719020FDF751FC66
:103AF0004FF485719220FDF74CFC04219320FDF7D3
:103B000048FC1946A020FDF744FC01210720FDF7E1
:103B100040FC21210720FDF73CFC23210720FDF775
:103B200038FC33210720FDF734FC40F23311072025
:103B3000FDF72FFC0021A020FDF72BFC0020FDF756
:103B40001BFE01211348FCF714FF4846FDF71EFF3A
:103B500021B0BDE8F08FA0F58A413539EED1302192
:103B60001520FDF716FC10219A20FDF712FC2021EC
:103B70001120FDF70EFC43F228411020FDF709FC4F
:103B800002211220FDF705FC41F23801132003E069
:103B9000C0D40100000C0140FDF7FBFB49F6404496
:103BA0002046FDF73EFB12210846FDF7F2FB2046BA
:103BB000FDF737FB43F220411020FDF7EAFB43F20B
:103BC00038011320FDF7E5FBFC48FDF72AFB002137
:103BD0003020FDF7DEFB40F202413120FDF7D9FB3A
:103BE00040F207313220FDF7D4FB4FF4417133200E
:103BF000FDF7CFFB04213420FDF7CBFB40F2014160
:103C00003520FDF7C6FB31463620FDF7C2FB40F2FA
:103C100005313720FDF7BDFB4FF4C263194638204C
:103C2000FDF7B7FB19463920FDF7B3FB4346414684
:103C30000120FDF7AEFB59460220FDF7AAFB41F239
:103C400030010320FDF7A5FB40F608010820FDF731
:103C5000A0FB08210A20FDF79CFB4FF41C516020BB
:103C6000FDF797FB01216120FDF793FB4FF49F7156
:103C70009020FDF78EFB19469220FDF78AFB19462E
:103C80009320FDF786FB4FF44051A020FDF781FB08
:103C90001021A320FDF77DFB01210720FDF779FB13
:103CA00021210720FDF775FB23210720FDF771FB7C
:103CB00033210720FDF76DFB40F23311C3E52DE9F9
:103CC000F843BF4C1E468046A388089FA3F5D0400A
:103CD000043802D1A079012807D0A2EB0800401CCB
:103CE00084B20D46DFF8DC9228E025880846A91A40
:103CF000A5EB08030025A57132462A2565812B26F0
:103D0000491E5B1EA68189B29BB20097FFF7D7FFC1
:103D10000120A0716681A581BDE8F883294640464F
:103D2000FDF75EFBFDF744FB0020494602E0401C26
:103D30000F8080B2A042FAD36D1CADB2B542EDD96E
:103D4000EAE72DE9F0478246A2EB0A00401C0E4646
:103D500087B2981B401C85B20024DFF86892DDF81A
:103D6000208014E0301981B25046FDF739FBFDF791
:103D70001FFB0020494606E004FB0503401C38F801
:103D800013200A8080B2B842F6D3641CA4B2AC42BD
:103D9000E8D3BDE8F0872DE9FE4F161ACDE90010F3
:103DA0004FF000085D1A47464FF0FF30002E02DD4D
:103DB0004FF0010102E003D14FF000018B4602E019
:103DC0008346C6F10006002D02DD4FF0010002E03F
:103DD00003D14FF00000824602E08246C5F10005A3
:103DE000AE4201DD344600E02C46601C4FF0000975
:103DF000029018E0009881B2019880B2FDF76FFC44
:103E0000B0442F44A04504DD0198A8EB04085844B1
:103E10000190A74203DD00983F1B5044009009F138
:103E200001001FFA80F902998945E3DDBDE8FE8FA4
:103E3000F0B51C4615460E4607460B46FFF7ABFF8E
:103E40003A46234631461046FFF7A5FF23462A4649
:103E500019463846FFF79FFF2A4623463146BDE8FC
:103E6000F040104697E72DE9FC4F804600251446A8
:103E700003200F46A0EB440649E0381B81B208EB53
:103E8000050A01901FFA8AF0FDF729FC781B81B220
:103E900008EB040900901FFA89F0FDF720FC07EBFE
:103EA000050B1FFA8BF11FFA89F0FDF718FC07EBE1
:103EB00004091FFA89F11FFA8AF0FDF710FCA8EB3C
:103EC000050A1FFA89F11FFA8AF0FDF708FCA8EB32
:103ED00004091FFA8BF11FFA89F0FDF700FC019825
:103EE00081B21FFA8AF0FDF7FAFB009881B21FFA3F
:103EF00089F0FDF7F4FB6D1C002E03DA06EB850656
:103F0000B61D04E0281B06EB80060A36641EA54297
:103F1000B3DDBDE8FC8F2DE9FF4F0C468A462A49E8
:103F20000546203AB1F80080D1B20D981E460291A4
:103F3000A0B3002083E00C2E0ED02448029900EBA1
:103F4000011100BF11F809704FF0000B38060AD5B7
:103F50001D49A1F8008009E0029800EB40011C48CF
:103F600000EB8101EEE71848418801802146284690
:103F7000FDF7B5FB7806070E1148641CA4B2008853
:103F8000A8425FD9A4EB0A00B04208D10C486D1CCE
:103F9000ADB200885446A84254D907E009E00BF1BD
:103FA000010000F0FF0BBBF1080FCFD309F10100B6
:103FB000C0B28146B042BED344E00000701101009F
:103FC000340000200008006C2C000020CC4B0008BE
:103FD000584700080C2E21D07548029900EB0111BA
:103FE0004FF0000B11F80970380603D5214628461A
:103FF000FDF775FB7806070E6E48641CA4B2408876
:10400000A8421FD9A4EB0A00B0420ED169486D1C2A
:10401000ADB200885446A84214D90DE0029800EBD6
:104020004001654800EB8101DAE70BF1010000F087
:10403000FF0BBBF1080FD7D309F10100C0B28146D5
:10404000B042C7D35D49A1F80080BDE8FF8F0246AA
:10405000012000E050430B00A1F10101C9B2F9D1E8
:1040600070472DE9FF4F81B00026DDF838A01D46CE
:10407000934681463446B0464FEA5A0727E0281B4C
:10408000401EC1B20A20FFF7E2FFBBFBF0F00A219D
:10409000B0FBF1F201FB120026B9691E8C4201DA75
:1040A00048B101263030C2B207FB049080B25346BB
:1040B000CDF8008006E007FB049080B25346202232
:1040C000CDF800800299FFF726FF641CE4B2AC42F1
:1040D000D5D305B03DE52DE9FF4F81B04FF0000885
:1040E000DDE90EBA1E46814644460AF001054FEA54
:1040F0005B072DE0301B401EC1B20A20FFF7A7FF6F
:104100000399B1FBF0F00A21B0FBF1F201FB1200C0
:10411000B8F1000F05D1711E8C4202DA48B14FF0A0
:1041200001083030C2B207FB049080B25B460095B4
:1041300009E04FEA0A60002807FB049080B25B4662
:10414000009508DA30220299FFF7E5FE641CE4B21C
:10415000B442CFD3BDE72022F5E72DE9F84F04465E
:1041600000F0FF0910190D46DDE90AB61FFA80F8C4
:10417000581987B24FF0000A12E0444503D305EB0B
:104180000B004C4685B2BD420FD25B462946204605
:10419000CDF800A0FFF7BFFE04EB5B0084B2761CF5
:1041A0003278A2F120005E28E7D9BDE8F88F000040
:1041B000CC4B000834000020584700082C00002099
:1041C0002DE9F05F0546002092469B46884606464C
:1041D000814640241BE0284641464746224600F0DF
:1041E00042F853465A46C01A914110D31146184618
:1041F000224600F029F82D1A67EB01084F462246A7
:104200000120002100F020F817EB00094E41201E8C
:10421000A4F10104DFDC484631462A464346BDE8A6
:10422000F09F0000064C074D06E0E06840F00103F7
:1042300094E8070098471034AC42F6D3FBF77CFFB4
:10424000BC510008DC510008202A04DB203A00FAA7
:1042500002F1002070479140C2F1200320FA03F3DD
:10426000194390407047202A04DB203A21FA02F0DB
:104270000021704721FA02F3D040C2F120029140A0
:1042800008431946704700000FB4054B10B503A949
:10429000044A029800F02CF810BC5DF814FB0000F2
:1042A00057130008300000200FB4084B10B504A9C4
:1042B00002AA039800F01CF8044602A9002000F0AE
:1042C00046FA204610BC5DF814FB00004F4700087A
:1042D00002E008C8121F08C1002AFAD170477047CF
:1042E000002001E001C1121F002AFBD1704700002D
:1042F0002DE9FF4F8DB00F4605460026DEE125284B
:1043000074D100246D1CF149A246A14601222B78EC
:10431000203B02FA03F0084202D004436D1CF6E78A
:1043200028782A2810D06FF02F022878A0F13001C9
:10433000092915D80AEB8A0102EB410144F0020475
:1043400000EB010A6D1CF0E757F804ABBAF1000F5F
:1043500003DA44F40054CAF1000A44F002046D1C6C
:1043600028782E2817D115F8010F44F004042A28C4
:104370000ED06FF02F022878A0F1300109290AD859
:1043800009EB890102EB410100EB01096D1CF2E729
:1043900057F8049B6D1C28786C280FD006DC4C283D
:1043A00017D068280DD06A2814D104E0742810D0E2
:1043B0007A280FD10DE044F400140AE044F480148C
:1043C00001E044F440146978814202D16D1C04F587
:1043D00080146D1C2A786E2A20D00DDC632A33D01D
:1043E00005DC002A6FD0582A12D1A2E011E0642A1D
:1043F0006AD0692A0CD167E0732A2FD004DC6F2AB7
:104400006FD0702A04D199E0752A6BD0782A6AD0CF
:104410001046DDE90F129047761C4EE1C4F30250BE
:10442000022806D003280AD0042801CF0AD006604B
:1044300043E101CF4FEAE671C0E900613DE101CF00
:1044400006803AE1067038E117F8040B8DF8000099
:1044500000208DF80100EB46012003E057F804BB73
:104460004FF0FF3061074FF0000102D40DE008F17A
:104470000101884649450FDA8045F8DB1BF8081032
:104480000029F4D108E008F1010188468142FADBF5
:104490001BF808100029F6D1DDE90F23AAEB08006C
:1044A0008146214600F03BF9304400EB080604E069
:1044B000DDE90F121BF8010B9047B8F10108F7D2A4
:1044C00021464846F4E0FDE00A21C4F302534FF0D0
:1044D000000B0891022B07D001CFC117032B09D085
:1044E0000AE034E023E024E0FF1D27F00707F7E8A7
:1044F000020105E000B2C117042B01D140B2C1177F
:10450000002907DA4FF0000CD0EB0C006CEB010136
:104510002D2302E0230504D52B238DF8243001231D
:1045200003E0E30701D02023F7E7984650E00A2193
:104530000EE010204FF0000B08900CE010214FF01F
:10454000000B44F004044FF00809089103E008212F
:104550004FF0000B0891C4F30253022B04D001CF9B
:104560000021032B06D006E0FF1D27F00707F7E820
:10457000020103E080B2042B00D1C0B24FF000086A
:10458000230725D5702A2AD0DDF820C08CF0100C26
:104590005CEA0B0C09D150EA010306D030238DF8F8
:1045A00024308DF8252002239846DDF820C08CF0B9
:1045B000080C5CEA0B0C0BD150EA010301D1630734
:1045C00006D530238DF824304FF00108A9F10109F8
:1045D000582A09D03EA20B9208AA0A9211E0402361
:1045E0008DF824300123DFE73EA2F4E75B46089A0A
:1045F000FFF7E6FD0B9B9B5C0A9AA2F101020A926F
:10460000137050EA0102F1D10A98ADEB000000F1FD
:10461000200B600702D524F4803401E04FF001093B
:10462000D94502DDA9EB0B0000E0002000EB0B01F7
:1046300041440890AAEB010AE00306D4DDE90F2308
:104640002146504600F06BF80644002008E009A916
:1046500011F80900DDE90F129047761C09F10100FD
:1046600081464045F3DBE0030CD5DDE90F2321460D
:10467000504600F054F8064404E0DDE90F12302003
:104680009047761C0899481E08900029F5DC08E040
:104690000A980A990078491C0A91DDE90F1290479F
:1046A000761CBBF10001ABF1010BF1DC2146504659
:1046B000DDE90F2300F020F806446D1C287800285F
:1046C0007FF41DAE11B03046BDE8F08F092801001F
:1046D0003031323334353637383961626364656678
:1046E000000000003031323334353637383941423A
:1046F00043444546000000002DE9F04104460025F2
:104700001E461746880405D406E039462020B047E7
:1047100005F10105641EF8D52846BDE8F0812DE9B4
:10472000F041044600251E469046C80301D53027B7
:1047300000E02027880405D506E041463846B0470A
:1047400005F10105641EF8D52846BDE8F0810A6828
:10475000531C0B6010707047000000000000000048
:1047600000000000000000003F40000000000000CA
:1047700000003000400030004000000009000BC085
:104780003D000BC03D00090018C024407FE02240DE
:1047900031800000180024C01B000D8032400180D1
:1047A00003801C4027401C80074000401000600030
:1047B00000000000000000000000000000001F805A
:1047C000204040200000402020401F8000000000CA
:1047D000090006001F800600090000000400040014
:1047E0003F80040004000000001000600000000092
:1047F00000000000040004000400040004000000A5
:10480000000000400000000000000000002001C087
:1048100006003800400000001F802040204020405B
:104820001F800000000010403FC00040000000005A
:1048300018C0214022402440184000001080204031
:10484000244024401B80000002000D0011003FC0E6
:10485000014000003C80244024402440238000008C
:104860001F8024402440344003800000300020009A
:1048700027C03800200000001B8024402440244032
:104880001B8000001C0022C0224022401F8000002C
:1048900000000000084000000000000000000000D0
:1048A0000460000000000000000004000A00110085
:1048B00020804040090009000900090009000000AB
:1048C00000004040208011000A0004001800200071
:1048D00023402400180000001F802040274029406A
:1048E0001F400000004007C039000F0001C0004019
:1048F00020403FC0244024401B8000001F802040F7
:10490000204020403080000020403FC02040204018
:104910001F80000020403FC024402E4030C00000D7
:1049200020403FC024402E00300000000F001080C7
:10493000204022403380020020403FC00400040099
:104940003FC02040204020403FC020402040000089
:104950000060202020203FC02000200020403FC0D9
:1049600024400B0030C0204020403FC02040004089
:10497000004000C03FC03C0003C03C003FC00000FE
:1049800020403FC00C4023003FC020001F8020403B
:10499000204020401F80000020403FC024402400D1
:1049A000180000001F802140214020E01FA00000CF
:1049B00020403FC02440260019C0004018C02440B9
:1049C0002440224031800000300020403FC0204081
:1049D0003000000020003F80004000403F80200069
:1049E00020003E0001C0070038002000380007C04A
:1049F0003C0007C038000000204039C0060039C024
:104A0000204000002000384007C03840200000004F
:104A1000304021C02640384020C000000000000087
:104A20007FE0402040200000000070000C00038068
:104A3000004000000000402040207FE00000000017
:104A400000002000400020000000000000100010C6
:104A500000100010001000100000000040000000D6
:104A600000000000000002800540054003C0004037
:104A700020003FC004400440038000000000038089
:104A8000044004400640000000000380044024402D
:104A90003FC0004000000380054005400340000087
:104AA000000004401FC0244024402000000002E019
:104AB000055005500650042020403FC0044004002B
:104AC00003C000400000044027C000400000000078
:104AD00000100010041027E00000000020403FC03C
:104AE0000140070004C00440204020403FC0004077
:104AF0000040000007C0040007C0040003C000001D
:104B0000044007C00440040003C0004000000380CC
:104B10000440044003800000041007F004500440E7
:104B200003800000000003800440045007F00010E0
:104B3000044007C0024004000400000000000640DA
:104B40000540054004C00000000004001F80044030
:104B500000400000040007800040044007C00040FF
:104B60000400070004C0018006000400060001C024
:104B7000070001C006000000044006C0010006C096
:104B8000044000000410071004E001800600040047
:104B90000000044005C00640044000000000000082
:104BA00004007BE040200000000000000000FFF057
:104BB00000000000000040207BE004000000000036
:104BC0004000800040002000200040000000000065
:104BD00000000000000000000000000000000000D5
:104BE00000001FCC000C00000000000000000800C6
:104BF000300060000800300060000000022003FC6C
:104C00001E20022003FC1E200220000000000E18BF
:104C100011043FFF10840C78000000000F00108486
:104C20000F3800C0077818840078000000780F84DF
:104C300010C411240E9800E40084000808006800E5
:104C400070000000000000000000000000000000F4
:104C5000000007E018182004400200000000400295
:104C60002004181807E00000000000000240024085
:104C700001800FF0018002400240000000800080AF
:104C800000800FF800800080008000000001000D0F
:104C9000000E000000000000000000000000008086
:104CA0000080008000800080008000800000000CF8
:104CB000000C0000000000000000000000000006E2
:104CC000001800600180060018002000000007F0B6
:104CD000080810041004080807F000000000080489
:104CE00008041FFC000400040000000000000E0C7B
:104CF00010141024104411840E0C000000000C1835
:104D000010041104110412880C700000000000E06F
:104D10000320042408241FFC0024000000001F9826
:104D2000108411041104108810700000000007F0B6
:104D300008881104110418880070000000001C008D
:104D4000100010FC13001C001000000000000E38C2
:104D500011441084108411440E3800000000070034
:104D6000088C10441044088807F000000000000080
:104D70000000030C030C0000000000000000000015
:104D8000000101060000000000000000000000809B
:104D90000140022004100808100400000220022034
:104DA0000220022002200220022000000000100445
:104DB00008080410022001400080000000000E00DE
:104DC0001200100C106C10800F00000003E00C1893
:104DD00013E4142417C4082807D000000004003C82
:104DE00003C41C40074000E4001C000410041FFC26
:104DF0001104110411040E880070000003E00C1867
:104E000010041004100410081C10000010041FFCF3
:104E1000100410041004080807F0000010041FFC20
:104E20001104110417C410040818000010041FFC1A
:104E30001104110017C010000800000003E00C1856
:104E40001004100410441C780040000010041FFCE3
:104E500010840080008010841FFC100400001004E7
:104E600010041FFC100410040000000000030001E7
:104E7000100110011FFE10001000000010041FFCA4
:104E8000110403801464181C1004000010041FFC9B
:104E90001004000400040004000C000010041FFCB7
:104EA0001F0000FC1F001FFC1004000010041FFC6A
:104EB0000C04030000E010181FFC100007F00808A5
:104EC000100410041004080807F0000010041FFC70
:104ED00010841080108010800F00000007F0081868
:104EE00010241024101C080A07F2000010041FFCF4
:104EF0001104110011C011300E0C000400000E1C32
:104F000011041084108410441C3800001800100094
:104F100010041FFC100410001800000010001FF8FF
:104F200010040004000410041FF8100010001E00FC
:104F300011E0001C007013801C0010001FC0103C0A
:104F400000E01F0000E0103C1FC000001004180C1F
:104F5000163401C001C01634180C100410001C00D7
:104F6000130400FC13041C00100000000804101CB3
:104F70001064108413041C041018000000000000CA
:104F800000007FFE400240024002000000003000AE
:104F90000C0003800060001C0003000000004002C1
:104FA000400240027FFE0000000000000000000000
:104FB00020004000400040002000000000010001EF
:104FC000000100010001000100010001000040009B
:104FD00040002000000000000000000000000098D9
:104FE000012401440144014400FC000410001FFCA2
:104FF00000880104010400880070000000000070B7
:105000000088010401040104008800000000007011
:1050100000880104010411081FFC0004000000F8CE
:10502000014401440144014400C80000000001049F
:1050300001040FFC1104110411001800000000D637
:1050400001290129012901C90106000010041FFCE2
:10505000008401000100010400FC000400000104C0
:10506000190419FC00040004000000000000000303
:1050700000010101190119FE0000000010041FFCCD
:105080000024004001B4010C0104000000001004E1
:1050900010041FFC0004000400000000010401FCD7
:1050A0000104010001FC0104010000FC010401FCF9
:1050B000008401000100010400FC0004000000F86D
:1050C000010401040104010400F80000010101FFD2
:1050D00000850104010400880070000000000070D9
:1050E000008801040104010501FF0001010401041D
:1050F00001FC00840104010001800000000000CCDC
:105100000124012401240124019800000000010071
:10511000010007F80104010400000000010001F88B
:10512000000400040004010801FC000401000180E7
:105130000170000C001001600180010001F0010C01
:10514000003001C00030010C01F00100000001043A
:10515000018C00740170018C0104000001010181C7
:105160000171000E0018016001800100000001843F
:10517000010C013401440184010C00000000000016
:105180000000000001003EFC400240020000000060
:1051900000000000FFFF00000000000000004002CF
:1051A00040023EFC01000000000000000000600022
:1051B000800080004000400020002000DC510008FA
:1051C0000000002034000000D04200081052000807
:1051D0003400002014040000E04200080204060825
:1051E000000000000102030401020304060708098D
:1051F00000A24A04000000000000000001020304B5
:1052000006070809000000000000FFFF0000000082
:0400000508000131BD
:00000001FF
