:020000040800F2
:100000003804002071160008C5010008C701000867
:10001000C9010008CB010008CD0100080000000064
:10002000000000000000000000000000CF010008F8
:10003000D101000800000000D3010008D50100082C
:100040008B1600088B1600088B1600088B1600080C
:100050008B1600088B1600088B1600088B160008FC
:100060008B1600088B1600088B1600088B160008EC
:100070008B1600088B1600088B1600088B160008DC
:100080008B1600088B1600088B1600088B160008CC
:100090008B1600088B1600088B1600088B160008BC
:1000A0008B1600088B1600088B1600088B160008AC
:1000B0008B1600088B1600088B1600088B1600089C
:1000C0008B1600088B1600088B1600088B1600088C
:1000D0008B1600088B1600088B1600088B1600087C
:1000E0008B1600088B1600088B1600088B1600086C
:1000F0008B1600088B1600088B1600088B1600085C
:100100008B1600088B1600088B1600088B1600084B
:100110008B1600088B1600088B1600088B1600083B
:100120008B1600088B1600088B1600088B1600082B
:10013000DFF80CD001F0CAFC004800474501000878
:1001400038040020002401F0A5FA01F0F3FA01F0D0
:10015000C1FA01F019FB4FF4165001F02BFB01F02E
:1001600001FC154801F0C4FC144E154D42F2107705
:10017000002001F057FC50B12021304600F0E3F898
:10018000C0F10100C2B22021304600F0EAF8641C40
:10019000E4B20F2C0BD100242021284600F0D3F824
:1001A000C0F10100C2B22021284600F0DAF838463A
:1001B00001F0A7FADCE70000841C000800180140E9
:1001C000000C01407047FEE7FEE7FEE7FEE77047E0
:1001D0007047704701F09DBA8F4910B5884206D12B
:1001E0000121042000F048FA002104203BE08B4963
:1001F000884206D10121082000F03EFA00210820A3
:1002000031E08749884206D10121102000F034FAFC
:100210000021102027E08349884206D101212020B7
:1002200000F02AFA002120201DE07F49884206D1F3
:100230000121402000F020FA0021402013E07B49FA
:10024000884206D10121802000F016FA002180208A
:1002500009E0774988420AD184150121204600F03F
:100260000BFA00212046BDE8104000F005BA10BD91
:1002700010B50121084600F0FFF90021BDE810404B
:10028000012000F0F9B9F0B5CA78002502F00F039B
:10029000D20601D58A7813430C784FF00F0E012255
:1002A000E4B104680F8802FA05F63740B74211D16D
:1002B0004FEA850C0EFA0CF724EA070703FA0CF450
:1002C0003C43CF78282F02D0482F02D002E046616D
:1002D00000E006616D1C082DE4D304600C88FF2C3F
:1002E0001ED944685FF0000606F1080702FA07F518
:1002F0000F882F40AF420FD14FEA860C0EFA0CF751
:10030000BC4303FA0CF73C43CF78282F00D145615A
:10031000CF78482F00D10561761C082EE4D34460C5
:10032000F0BD4FF6FF710180022181700421C17080
:1003300070470246002092680A4200D001207047B0
:10034000806880B2704702460020D2680A4200D01E
:1003500001207047C06880B27047016170474161F9
:1003600070470AB10161704741617047C1607047D1
:1003700041F4803282618161826181698069704764
:100380002C4B10B51A684FF68074224042EA0010D8
:100390000843186010BD2849C8617047F0B5254C66
:1003A000002801DAE36900E06368420D120185B2BA
:1003B000C0F301579540C0F30346032F05D0C20296
:1003C0000AD50322B240934307E023F070626368CA
:1003D00023F07063636002E0AB4343F0706201B1ED
:1003E0002A43002801DAE261F0BD6260F0BD10B579
:1003F0008A0721F003040F49130F21440F228C6850
:100400009A4094438C608A68984002438A6010BD89
:100410000949DC310860704700080140000C0140C8
:10042000001001400014014000180140001C014070
:10043000002001400000014000002042A548016862
:1004400041F0010101604168A34A11404160016827
:10045000A24A11400160016821F4802101604168D5
:1004600021F4FE0141604FF41F01816070479949FA
:100470000A6822F480320A600A6822F480220A6044
:10048000B0F5803F07D0B0F5802F03D1086840F465
:10049000A02008607047086840F48030F9E7024601
:1004A000002053098B49012B0AD0022B0AD0496A3C
:1004B00002F01F02012393400B4200D0012070473D
:1004C0000968F5E7096AF3E718B500204FF4A0645E
:1004D00000903120FFF7E3FF0099491C0091A142F1
:1004E00001D00028F5D03120FFF7D9FF002800D037
:1004F000012018BD77490A6822F0F80242EAC000DC
:1005000008607047764908607047724A536808432C
:1005100023F47C1318435060704771490866704794
:100520006C4A516821F003010143516070476948EA
:10053000406800F00C007047664A516821F0F001F5
:10054000014351607047634A516821F4E0610143FF
:10055000516070475F494A6822F4605242EAC00025
:10056000486070475B4A0029517A01D0014300E09E
:100570008143517270475A49D83108607047554AD3
:10058000516821F4404101435160704751490022B4
:1005900081F8202081F82020012802D0042802D1EF
:1005A000052081F8200070474E490860704749498E
:1005B0000A6A02430A6270474A4944390860704730
:1005C00030B544494A6812F00C03474A03D0042B63
:1005D00001D0082B22D002604A680F23434C03EA63
:1005E0001212A35C0268DA4042604B68072505EAF4
:1005F0001323E35C22FA03F383604B6805EAD323F9
:10060000E35C22FA03F2C2604968032303EA9131F2
:10061000231F595CB2FBF1F1016130BD4A684B68A0
:1006200002F470124FF0020413F4803F04EB924284
:1006300002D04B689B0301D52D4B00E02A4B5A4357
:10064000C9E7244A0029516901D0014300E08143F0
:10065000516170471F4A0029916901D0014300E0B0
:100660008143916170471B4A0029D16901D0014340
:1006700000E08143D1617047164A0029D16801D05A
:10068000014300E08143D1607047124A002911699B
:1006900001D0014300E081431161704711494039A5
:1006A000086070470E49C86470470A49C8717047AE
:1006B0000848416A41F0807141627047054A01462D
:1006C000002092680A4200D00120704701498872D8
:1006D00070470000001002400000FFF8FFFFF6FE28
:1006E000000042428004424200127A0004000020CE
:1006F00000093D00F94910B5884202D10121C41416
:1007000086E0B0F1804F09D0F54988420DD1012132
:100710000220FFF7BAFF0021022064E00121084611
:10072000FFF7B3FF002101205DE0EE49884206D1CA
:1007300001210420FFF7A9FF0021042053E0EA492A
:10074000884206D101210820FFF79FFF00210820E1
:1007500049E0E649884206D101211020FFF795FFC4
:10076000002110203FE0E249884206D101212020EB
:10077000FFF78BFF0021202035E0DE49884202D1BF
:100780000121441444E0DC49884202D10121CC0417
:100790003EE0DA49884202D101210C0538E0D8490F
:1007A000884202D101214C0532E0D649884206D167
:1007B00001214020FFF769FF0021402013E0D249CA
:1007C000884206D101218020FFF75FFF00218020B1
:1007D00009E0CE4988420AD1841501212046FFF75D
:1007E00054FF00212046BDE81040FFF74EBFC84926
:1007F000884202D101210C040AE0C649884202D194
:1008000001214C0404E0C44988420AD101218C042E
:100810002046FFF731FF2046BDE810400021FFF7DA
:100820002BBF10BD30B50288AC4BB24C98420DD0F6
:10083000A0420BD0B0F1804F08D0A94DA84205D0FE
:10084000A84DA84202D0A84DA84203D122F07005BD
:100850004A882A43A54DA84206D0A54DA84203D0F8
:1008600022F44075CA882A4302808A8882850A88D1
:10087000028598420AD0A04208D0A54A904205D0ED
:10088000A44A904202D0A44A904201D1097A01863A
:100890000121818230BD30B5028C22F00102028438
:1008A000028C8388048B22F0020224F073050C88EA
:1008B0002C430D8915434A882A43884DA8420BD002
:1008C0008C4DA84208D0924DA84205D0914DA84227
:1008D00002D0914DA8420DD122F008054A8923F497
:1008E00040732A4322F004058A882A438D891D43D8
:1008F000CB892B4383800483C9888186028430BDE1
:1009000070B5028C22F010020284028C8488038B62
:100910000D8823F4E6464FF6FF7303EA05253543B9
:100920000E8922F0200203EA061616434A8803EADB
:1009300002123243694EB04202D06E4EB04215D11F
:1009400022F080064A8924F4406403EA021232430A
:1009500022F040068A8803EA021232438E8903EAB3
:1009600086062643CC8903EA8404344384800583C5
:10097000C9880187028470BD70B5028C22F4807230
:100980000284028C8488838B0D8823F073031D43BB
:1009900022F400730E894FF6FF7202EA06261E4308
:1009A0004B8802EA032333434C4EB04202D0514EEF
:1009B000B04215D123F400664B8924F4405402EA76
:1009C0000323334323F480668B8802EA03233343F3
:1009D0008E8902EA06162643CC8902EA04143443BF
:1009E00084808583C9888187038470BD70B5028C3B
:1009F00022F480520284048C8288838B0D8823F435
:100A0000E6464FF6FF7303EA0525354324F4005606
:100A10000C8903EA043434434E8803EA063626433D
:100A20002E4CA04202D0334CA04205D122F4804487
:100A30008A8903EA8212224382808583C988A0F8CA
:100A40004010068470BD828B22F440628283828BC8
:100A50004FF6FF7303EA01210A4382837047828BBA
:100A600022F00C028283828B0A4382837047028BBE
:100A700022F440620283028B4FF6FF7303EA0121E6
:100A80000A4302837047F0B5048C24F010040484F8
:100A9000078B048C4FF6FF7527F4734705EA033381
:100AA0003B4305EA02221A430C4B05EA0116984221
:100AB0000ED0104B98420BD0B0F1804F08D0084BAD
:100AC000984205D0074B984202D0074B984225D157
:100AD00024F02001314341F0100124E0002C0140BA
:100AE0000004004000080040000C004000100040DE
:100AF0000014004000340140004C0140005001400F
:100B00000054014000180040001C0040002000403C
:100B100000400140004401400048014024F0A0038F
:100B20000B4343F0100102830184F0BD028B22F0DD
:100B30000C020283028B0A430283704770B5048C57
:100B400024F001040484058B048C4FF6FF7606EA3A
:100B50000313134325F0F305F94A2B4390420ED0BB
:100B6000F84A90420BD0B0F1804F08D0F64A90423C
:100B700005D0F64A904202D0F54A904202D124F0C4
:100B8000020201E024F00A020A4342F00101038359
:100B9000018470BD2DE9F05F0D4604460888E84FDA
:100BA000DFF8A0C3DFF8A0834988AA882B894FF01B
:100BB000804960B3042832D04FF6FF7E082836D033
:100BC000208C9B4620F480502084A38B268C70467A
:100BD00000EA022223F473431A4300EA0B30104365
:100BE0000EEA013EBC420BD0644509D04C4507D00B
:100BF000444505D0D54A944202D0D54B9C4245D1BC
:100C000026F4005141EA0E0141F4805143E02046B0
:100C1000FFF794FFE9882046BDE8F05F86E72046AD
:100C2000FFF731FFE9882046BDE8F05F1FE7208C21
:100C300020F480702084B4F81CA0208C0EEA0313EA
:100C400013432AF0F30A0EEA012B43EA0A03BC42DB
:100C50000BD0644509D04C4507D0444505D0BB4A6C
:100C6000944202D0BA4A944204D120F4007040EA7F
:100C70000B0002E020F42060084340F48070A3835E
:100C80002084E9882046BDE8F05FE8E626F40242C9
:100C90000A4342F48051A08320462184E988BDE8BC
:100CA000F05FD0E62DE9F0410C4600264988074662
:100CB000012501B90226A288012A00D10225208837
:100CC00023890028384610D0FFF7DDFEE18838463A
:100CD000FFF7CDFE23892A4631463846FFF72EFF1F
:100CE000E1883846BDE8F04120E7FFF727FFE188BB
:100CF0003846FFF71BFF23892A4631463846FFF75F
:100D0000C2FEE1883846BDE8F041B0E610B50A8879
:100D10004B88CC881A438B8823431A430B891A4388
:100D20004B8989891A430A43A0F8442010BD4FF625
:100D3000FF71818000210180C18041800172704774
:100D40000021018041808180C180018141818181B8
:100D5000C181704700210180418001228280C180D1
:100D6000018170470021018041808180C180018123
:100D70004181818170470029018802D041F0010141
:100D800001E021F0010101807047002930F8441F83
:100D900002D041F4004101E0C1F30E01018070472F
:100DA000002A828901D00A4300E08A438281704789
:100DB000818270471143A0F848107047002A828949
:100DC00001D00A4300E08A4382817047018921F003
:100DD000070101817047028922F070020A430281F3
:100DE000704700B50346FFF7F6FF188940F007008B
:100DF000188100BD70B516460D46602904464FF0B7
:100E0000010231460AD0FFF799FE29462046FFF736
:100E1000E2FF208940F00700208170BDFFF733FE1C
:100E2000F3E730B504894FF6FF7505EA0323134352
:100E3000E4B20B432343038130BD10B50446FFF7F2
:100E4000F0FF208940F07700208110BD10B50446E6
:100E5000FFF7E7FF208940F48040208110BD018525
:100E600082827047028822F070020A430280704733
:100E700070B50589048B068C25F007050D434FF6E8
:100E8000FC410C4040F201110C434FF6FF7101EAA6
:100E9000031126F0220611433143058104830184A6
:100EA00070BD028B22F070020A4302837047028BEE
:100EB0004FF6FF7322F4E04203EA0121114301835C
:100EC0007047828B22F070020A4382837047828BC4
:100ED0004FF6FF7322F4E04203EA012111438183BC
:100EE00070470029018802D041F0800101E021F023
:100EF0008001018070470029818802D041F00401FF
:100F000001E021F00401818070470029818802D02E
:100F100041F0080101E021F00801818070470029BB
:100F2000818802D041F0010101E021F001018180BE
:100F30007047028B22F008020A43028370470000C8
:100F4000002C014000340140000400400008004033
:100F5000000C0040028B4FF6FF7322F4006203EA9C
:100F6000012111430183E9E7828B22F008020A4341
:100F70008283E3E7828B4FF6FF7322F4006203EA79
:100F8000012111438183D9E7028B22F004020A4335
:100F90000283D3E7028B4FF6FF7322F4806203EAE9
:100FA000012111430183C9E7828B22F004020A4325
:100FB0008283C3E7828B4FF6FF7322F4806203EAD9
:100FC000012111438183B9E7028B22F080020A4399
:100FD0000283B3E7028B4FF6FF73C2F30E0203EAFC
:100FE000012111430183A9E7828B22F080020A4389
:100FF0008283A3E7828B4FF6FF73C2F30E0203EAEC
:1010000001211143818399E7028C22F002020A43F5
:10101000028493E7028C22F008020A4302848DE7DF
:10102000028C4FF6FF7322F0200203EA01111143F4
:10103000018483E7028C4FF6FF7322F0800203EAFB
:1010400001111143018479E7028C4FF6FF7322F4FA
:10105000007203EA0121114301846FE7028C4FF60D
:10106000FF7322F4006203EA01211143018465E762
:10107000028C4FF6FF7322F4005203EA0131114350
:1010800001845BE710B50123048C8B409C430484EE
:10109000038C8A401343038410BD10B50423048CD1
:1010A0008B409C430484038C8A401343038410BD0B
:1010B00030B50124058C00F118038C40A54305844C
:1010C00089B108290FD0091FC1F34E0018440168E7
:1010D00021F4E041016001684FF6FF7303EA022248
:1010E0001143016030BD03EB5100016821F0700134
:1010F00001600168F4E70029018802D041F0020193
:1011000001E021F00201018018E70029018802D0E6
:1011100041F0040101E021F0040101800EE7002903
:10112000818802D041F0800101E021F080018180BE
:1011300004E7028822F00802028002880A43028043
:10114000FCE6828822F07002828082880A438280D4
:10115000F4E6028922F00702028102890A43028131
:10116000ECE6028922F08002028102890A430281B0
:10117000E4E68184E2E68185E0E68186DEE60187B9
:10118000DCE68187DAE6A0F84010D7E6028822F490
:101190004072028002880A430280CFE6808ECDE64C
:1011A000008FCBE6808FC9E6B0F84000C6E6808CA1
:1011B000C4E6008DC2E602460020128A0A4200D030
:1011C0000120BBE6C9430182B8E602460020138A2B
:1011D00092890B4202EA010202D0002A00D00120CB
:1011E000ACE6C9430182A9E6C64910B588420AD1D6
:1011F00001218C032046FFF73FFA2046BDE810404E
:101200000021FFF739BAC049884202D101214C04BC
:1012100010E0BE49884202D101218C040AE0BC4999
:10122000884202D10121CC0404E0BA4988420AD1A3
:1012300001210C052046FFF728FA2046BDE81040A2
:101240000021FFF722BA10BD30B50446008A85B0F0
:101250000D464CF6FF710840E98801432182A189BF
:101260004EF6F3100140A8882A8910436A890A4380
:101270001043A081A08A4FF6FF410840A98901438D
:10128000A1826846FFF79CF99E48844201D10398E9
:1012900000E00298A1890904002900EBC00101EBDC
:1012A0000010296802DA4FEA410101E04FEA8101AA
:1012B000B0FBF1F06422B0FBF2F14FEA01114FEA0A
:1012C00011136FF018056B4300EB8300A3891D0415
:1012D0004FF0320306D503EBC000B0FBF2F000F094
:1012E000070005E003EB0010B0FBF2F000F00F0088
:1012F0000843208105B030BD4FF416510160002134
:101300008180C18001810C2242818181704710B5AA
:10131000038A4FF2FF0213400A884C8822438C88CC
:10132000C9880C4322431A43028210BD0021018068
:1013300041808180C18070470029818902D041F4B9
:10134000005101E021F400518181704710B5C1F3D3
:10135000421301F01F040121A140012B07D0022BF1
:1013600007D01430002A026805D00A4304E00C308C
:10137000F8E71030F6E78A43026010BD002A828A3F
:1013800001D00A4300E08A4382827047028A22F039
:101390000F020282028A0A4302827047828922F483
:1013A0000062828182890A43828170470029818993
:1013B00002D041F0020101E021F002018181704779
:1013C000028A22F020020282028A0A4302827047C5
:1013D0000029018A02D041F4804101E021F48041DA
:1013E00001827047C1F30801818070478088C0F393
:1013F00008007047818941F0010181817047028BAB
:10140000D2B20283028B42EA012101837047028B30
:1014100002F47F420283028B0A4302837047002951
:10142000818A02D041F0200101E021F02001818277
:1014300070470029818A02D041F0100101E021F0BB
:101440001001818270470029818A02D041F0080191
:1014500001E021F00801818270470029818902D0D2
:1014600041F4004101E0C1F30E0181817047002980
:10147000818A02D041F4006101E021F4006181829F
:101480007047828A22F004028282828A0A43828220
:1014900070470029818A02D041F0020101E021F069
:1014A0000201818270470246002012880A4200D061
:1014B00001207047C9430180704730B501F01F0219
:1014C00001240025C1F3421304FA02F2012B0FD0CC
:1014D000022B0FD0838A4FEA11210088134204FAAD
:1014E00001F400EA040001D000B10125284630BD16
:1014F0008389F0E7038AEEE70A0A01219140C94394
:10150000018070470038014000440040004800401E
:10151000004C0040005000400CB500214C480191A7
:101520000091026842F4803202604FF4A0630268C6
:1015300002F400320092019A521C0192009A12B9F0
:10154000019A9A42F3D10268920333D501210091A6
:1015500040490A6842F010020A600A6822F0030259
:101560000A600A6842F002020A604168416041680C
:101570004160416841F480614160416821F47C111F
:101580004160416841F4E8114160016841F08071B7
:10159000016001688901FCD5416821F003014160C7
:1015A000416841F0020141604168C1F381010229B3
:1015B000FAD10CBD00910CBD254810B5016841F071
:1015C000010101604168244A114041600168234AD9
:1015D00011400160016821F480210160416821F41B
:1015E000FE0141604FF41F018160FFF795FF1C4928
:1015F0004FF00060086010BD154910B54868194AE1
:1016000010F00C03184803D0042B01D0082B0BD08A
:1016100002604968144AC1F30311121D515C02684B
:1016200022FA01F2026010BD4A684B6802F470129F
:101630004FF0020413F4803F04EB924202D04B6857
:101640009B0301D5094B00E0064B5A43E0E700003D
:1016500000100240002002400000FFF8FFFFF6FEED
:1016600008ED00E000127A001400002000093D009F
:101670000648804706480047FEE7FEE7FEE7FEE72C
:10168000FEE7FEE7FEE7FEE7FEE7FEE7B915000826
:101690003101000808B501210820FEF7DBFF012118
:1016A0004020FEF7D7FF2020ADF8000003208DF882
:1016B000020010208DF8030069460448FEF7E3FDA0
:1016C00069460348FEF7DFFD08BD0000000C01403D
:1016D00000180140134814490068B0FBF1F0B0F164
:1016E000807F0DD220F07F414FF0E020491E416104
:1016F0000E4AF021117000218161072101617047BC
:10170000FEE701B50A480099016001680029FCD193
:1017100008BD07480168002902D00168491E016020
:10172000704700001400002040420F0023ED00E04D
:101730002800002038B501210820FEF78BFF012189
:101740000420FEF787FF01214020FEF783FF1C20C5
:10175000ADF8000001248DF8024048208DF8030008
:1017600069460748FEF78FFDADF800408DF802404E
:1017700028208DF8030069460248FEF784FD38BD35
:10178000001801400008014008B501210820FEF7BB
:1017900061FF4FF48070ADF8000003208DF8020067
:1017A00010208DF8030069460148FEF76CFD08BD66
:1017B000000C014070B5044686B0012144F20400DB
:1017C000FEF748FF234D2846FFF70EFD6815ADF8DC
:1017D000100003208DF8120018201F4E8DF8130002
:1017E00004A93046FEF74FFD2815ADF8100004207F
:1017F0008DF8130004A93046FEF745FD0020ADF832
:101800000400ADF80600ADF80800ADF80C000C209F
:10181000ADF80A00009469462846FFF715FD01223D
:1018200040F225512846FFF791FD01212846FFF798
:1018300083FD06B070BD70B5064D0446C1B22846A2
:10184000FFF7D0FD40212846FFF72DFE0028F9D0F4
:10185000204670BD003801400008014038B5012124
:101860000420FEF7F7FE0220ADF8000010208DF8EE
:10187000030003207F4C8DF8020069462046FEF7E6
:1018800002FD02212046FEF76AFD41F28830FFF793
:1018900038FF794D00212846FFF76BFC05212846CB
:1018A000FFF79FFC04208DF8030069462046FEF7F1
:1018B000EAFC38BD70B5FFF7D1FF4FF60B656E4CF3
:1018C00009E000BFFFF773FCA84204D92046BDE839
:1018D0007040FFF76CBC04212046FFF76CFC002829
:1018E0002046EFD0BDE87040FFF75ABCF0B50C467B
:1018F000074687B001210820FEF7B5FE012104202C
:10190000FEF7A8FE0220ADF8180003258DF81A5046
:1019100004268DF81B6006A95648FEF7B4FCADF806
:101920001070ADF80C400024534FADF81240ADF8E4
:101930000E4003A93846FEF775FF0120ADF80400FC
:10194000ADF80060ADF80240ADF80640ADF80850C3
:1019500069463846FFF71EF901213846FFF70BFAB2
:1019600007B0F0BD70B54548454986B00068B0FB8A
:10197000F1F0401E81B24FF6FF70FFF7B7FF002570
:1019800042F210764FEA0D04FFF794FF24F8150099
:101990003046FFF7B6FE6D1CEDB20A2DF4D30020E1
:1019A000421CD1B20CE000BF34F8103034F81150B2
:1019B000AB4203D924F8105024F81130491CC9B2A5
:1019C0000A29F1D3D0B20928EAD300215FF002003E
:1019D00034F81020401C1144C0B289B20828F7D353
:1019E0000620B1FBF0F0274C6080618826A000F053
:1019F0007FF86088B0F5004F02D3012006B070BDBB
:101A00000020FBE770B50446002504E0FFF752FF15
:101A1000A84200D905462000A4F10104E4B2F5D1A2
:101A2000284670BD70B50025164C032610B1062659
:101A3000002020703046FFF7E5FF61885031884272
:101A40000BD93046FFF7DEFF217821B9618850318C
:101A5000884200D90125052003E02078022802D918
:101A60000220207000E010B1C0B2401E2070284655
:101A700070BD000000080140000C00401400002070
:101A800040420F002C000020747061645F64656642
:101A900061756C745F76616C3A25640D0A00000014
:101AA00030B50B46014600202022012409E021FA2E
:101AB00002F59D4205D303FA02F5491B04FA02F52B
:101AC0002844151EA2F10102F1DC30BD064C074D81
:101AD00006E0E06840F0010394E8070098471034FE
:101AE000AC42F6D3FEF728FBC81C0008E81C00082F
:101AF0000FB4054B10B503A9044A029800F018F87A
:101B000010BC5DF814FB00003718000830000020FE
:101B100002E008C8121F08C1002AFAD170477047B6
:101B2000002001E001C1121F002AFBD17047000014
:101B30002DE9FF4F89B09B460446002597E02528F4
:101B400033D10027641C4E49B84601222378203B3C
:101B500002FA03F0084202D00743641CF6E720783B
:101B60002E2819D114F8010F47F004072A280ED0A7
:101B70006FF02F022078A0F1300109290CD808EB72
:101B8000880102EB410100EB0108641CF2E70A98AE
:101B9000641C50F8048B0A90207800286BD06428CD
:101BA00008D0692806D0752820D05A460B9990474E
:101BB0006D1C5BE00A994FF00A0901C90A910028DF
:101BC00004DAC0F100004FF02D0102E0390504D520
:101BD0002B218DF82010012103E0F90704D02021EA
:101BE000F7E78A4608AE0EE00021FAE70A994FF0BF
:101BF0000A0901C90A91F7E74946FFF751FF01F1C8
:101C0000300106F8011D0028F6D1ADEB060000F109
:101C10002009780701D44FF00108C84502DDA8EB80
:101C2000090000E000208046002706E008A85A4688
:101C3000C05D0B9990476D1C7F1C5745F6DB04E097
:101C400030205A460B9990476D1CB8F10001A8F15D
:101C50000108F5DC05E016F8010B5A460B99904790
:101C60006D1CB9F10001A9F10109F4DC641C2078B4
:101C700000287FF464AF0DB02846BDE8F08F000067
:101C8000092801000A0D41444320546573743A2029
:101C9000A3A8B5C2B7C9C0B3A3A9C4E1C4AA4D33B0
:101CA00053BFAAB7A2B0E544414331CDA8B5C0B2F5
:101CB000E2CAD4B3CCD0F2A3AC504134D2FDBDC5FE
:101CC000CAE4B3F60D000000E81C00080000002084
:101CD00034000000101B00081C1D00083400002008
:101CE00004040000201B0008020406080000000095
:101CF00001020304010203040607080900A24A04C2
:101D000000000000000000000102030406070809AB
:0C1D1000000000000000000000000000C7
:0400000508000131BD
:00000001FF
