:020000040800F2
:10000000000400205B020008690200086B0200087F
:100010006D0200086F020008710200080000000075
:100020000000000000000000000000007302000853
:100030007502000800000000836D00082504000818
:100040007B0200087B0200087B0200087B0200089C
:100050007B0200087B0200087B0200087B0200088C
:100060007B0200087B0200087B0200087B0200087C
:100070007B0200087B0200087B0200087B0200086C
:100080007B0200087B0200087B0200087B0200085C
:100090007B0200087B0200087B0200087B0200084C
:1000A0007B0200087B0200087B0200087B0200083C
:1000B0007B0200087B0200087B0200087B0200082C
:1000C0007B0200087B0200087B0200087B0200081C
:1000D0007B020008FD0700087B0200087B02000885
:1000E0007B0200087B0200087B0200087B020008FC
:1000F0007B0200087B0200087B0200087B020008EC
:100100007B0200087B0200087B0200087B020008DB
:100110007B0200087B0200087B0200087B020008CB
:100120007B0200087B0200087B0200087B020008BB
:1001300000F002F800F061F80AA090E8000C824498
:100140008344AAF10107DA4501D100F056F8AFF275
:10015000090EBAE80F0013F0010F18BFFB1A43F0A5
:100160000103184740960300609603000A444FF0CD
:10017000000C10F8013B13F0070408BF10F8014B06
:100180001D1108BF10F8015B641E05D010F8016B4B
:10019000641E01F8016BF9D113F0080F1EBF10F8AF
:1001A000014BAD1C0C1B09D16D1E58BF01F801CBD2
:1001B000FAD505E014F8016B01F8016B6D1EF9D555
:1001C0009142D6D37047000000230024002500266A
:1001D000103A28BF78C1FBD8520728BF30C148BFAA
:1001E0000B60704778291BF03882002070471FB5DC
:1001F0001BF025FB1FBD10B510BD1BF093FD114674
:10020000FFF7F5FF00F06CF81BF022FB03B4FFF7DB
:10021000F2FF03BC00F0E4FA30BF72B662B680F3BE
:10022000088870470B49D1F800C04A685CF8043B65
:100230001068184442F8040B8C4528BFA1F1DC0C6F
:100240008A4228BFA1F1DC02C1F800C04A6020F058
:10025000004070478081002070470B4880470B4961
:1002600081F308880A480047FEE7FEE7FEE7FEE75D
:10027000FEE7FEE7FEE7FEE7FEE7FEE70548064984
:10028000044A064B7047000059020008E889002024
:1002900031010008E8810020E8890020E881002081
:1002A00010B5092000F041FA482000F0C3F84FF4DF
:1002B0001651482000F0E2FA05F016FA00F050FD61
:1002C00000F054FB0DF0A7FB0E49086880470020A2
:1002D00000F071FD0446012C01D106F082F810BD3A
:1002E00010B5FFF7DDFF0BE006F0FFFE0423064A22
:1002F0000021064808F06BFD07F01CF8002010BD37
:10030000F2E700001400002000240020E3030008AE
:1003100007E00BF030FE0A2300221146104609F0D8
:10032000D3F8F6E71EE00020334908604FF00100E3
:100330003249C1F894014FF0C8034FF00002114652
:10034000104609F0C1F801202B4908604FF0000069
:100350002A49C1F894014FF0C803024611461046DD
:1003600009F0B2F8DFE707E018F05AF90A23002293
:100370001146104609F0A8F8F6E700B585B003204D
:1003800000214FF400621E4BCDE90132CDE903108C
:10039000062003461B4A00901B4808F06FFD03200F
:1003A00000214FF48072194BCDE90132CDE90310E1
:1003B00007200346164A0090164808F05FFD032008
:1003C00000214FF48072144BCDE90132CDE90310C6
:1003D00005200346114A0090114808F04FFD05B072
:1003E00000BDFFF7CAFF06E04FF4FA730022114682
:1003F000104609F069F8F7E7948121420000234292
:100400000424002000440020670300080444002066
:10041000004800202503000804480020004C00206C
:100420001103000810B506F076FE06F0BAFF06F0DC
:100430008DFE10BD10B54FF0E022126922F00402CB
:100440004FF0E0231A61C31700EB5373DB10324CFB
:100450002370C31700EB5373D9104FF47A725143D2
:1004600001222E4B1A804FF0E022126942F0020264
:100470004FF0E0231A611A465161126942F00102FD
:100480001A6110BD2DE9F047074600264FF0E02025
:10049000D0F814902048007807FB00F800BF06F061
:1004A0008DFE4FF0E020856911E04FF0E020846977
:1004B000AC420CD0AC4202D2281B064403E0A9EBAC
:1004C0000400284406442546464500D300E0ECE7F6
:1004D00000BF06F0B8FEBDE8F08770B504461048CE
:1004E0000078012811D10D480088844206DB0B48B2
:1004F000008894FBF0F5284608F0B4FF0748008810
:1005000094FBF0F100FB114084B24FF47A7104FBCC
:1005100001F0FFF7B7FF70BD0000002002000020CF
:1005200076000020A14A0A400243A14B1A6070479E
:100530000146072323EA010212029D4B1B1D186886
:100540004FF6FF0318409B4B18431043984B1B1D5D
:10055000186070472DE9F0410746884614461D464D
:100560002846FFF7E5FFC5F1040007FA00F60F2063
:10057000284100EA0800064306F00F06202C0CDA9A
:100580008D4801684FF0010000FA04F041EA0001D3
:100590004FF0E020C0F800110DE088480068A4F199
:1005A00020014FF0010202FA01F240EA02004FF08E
:1005B000E021C1F804018248005D40EA061080494C
:1005C0000855BDE8F08170B504460B46CE1701EB27
:1005D0009676B010CE1701EB9676B610A1EB860694
:1005E000B606350E774B9B6943F00103754EB36138
:1005F0004FEAB63353F820300F26AE40B343724E65
:1006000046F82030334653F8203004FA05F63343D9
:100610006D4E46F820306D4B1E6801238B401E4303
:100620006A4B1E6012F0010F08D0684B0C331B6838
:1006300001268E403343654E0C36336012F0020FB4
:1006400008D0624B08331B6801268E4033435F4E4F
:100650000836336070BD00B500205A490861C86093
:100660001420486100208861C8610846006840F095
:1006700001000860084640685549084051494860F3
:1006800008460068534908404E490860084600681B
:1006900020F4802008600846406820F4FE0048608E
:1006A0000020886000214FF00060FFF73BFF00BD95
:1006B00010B53F480830006840F004003C4908315C
:1006C00008604048C06940F080503E49C8614248D7
:1006D000406840F48070404948600846006840F037
:1006E000040008600846006840F002000860FFF758
:1006F00093FD10BD2F48001D2D49091D086070474E
:10070000014649062F4A926942F001022D4B9A6137
:100710002D4A083A526822F0E0622B4B083B5A609F
:100720001A4652680A435A60704730B5044600259D
:10073000FFF791FF2348006840F4803021490860AA
:1007400000BF20480068400CFBD04FF480601D497A
:100750004860A01EC4B20846406840EA8440486031
:100760000846406840F4803048601C48006840F00B
:1007700032001A4908601348006840F0807011493F
:10078000086000BF0F480068400EFBD00D4840686D
:1007900040F002000B49486005E00A484068C0F399
:1007A000870505F00305022DF7D130BD80FFFF1F3F
:1007B00008ED00E00000FA0500E100E004E100E0DF
:1007C00000E400E000100240080001400004014085
:1007D0000000FFF8FFFFF6FE00700040002002401E
:1007E000014600BF704700BF5A4A128812F0400FFE
:1007F000FAD0C2B2574B1B1D1A80704710B506F0D5
:100800008AFC5448008810F0200F34D05148001D55
:100810000088C4B25048008810F4004F2BD14E48D5
:10082000008810F4804F0CD00A2C03D000204A49D5
:10083000088020E04848008840F40040464908808D
:1008400019E00D2C06D14448008840F4804042490C
:10085000088010E040480088C0F30D003F490C5468
:100860003D480088401C3C49088008460088C7284D
:1008700001DD0020088006F069FC10BD2DE9F05F65
:1008800005460E4630011CF079FE8146344905FBD1
:1008900001F01CF073FE824649461CF025FD074618
:1008A00038461CF033FE84B220461CF067FE8346B7
:1008B00039461CF077FF82464FF083411CF0A6FEBC
:1008C00081461CF023FE80464FF6FF7000EA0414B8
:1008D00004EB080084B22348806940F004002149F9
:1008E00088610846806940F4804088611E4800683D
:1008F00020F47F601C4908600846006840F40B60E3
:1009000008601848C06840F480401649C86008462E
:10091000C06820F48040C8600E4808300480001D84
:10092000008842F20C0108430A490C31088008464D
:10093000008840F4807008800846008840F020005D
:1009400008800223252203210846FFF703FEBDE8A5
:10095000F09F00000038014004000020044C0020FB
:1009600040420F00001002400408014010B500F0A2
:10097000BBF810BD70B50446002600F0CFF8254640
:10098000E11704EB11610912A02202EB4101C8B288
:1009900000F078F900F005F9E11704EB1161091294
:1009A000A4EB0121C8B200F06DF900F0FAF800F0F4
:1009B000B5F8A12000F066F900F0F3F8002000F08F
:1009C00091F9064600F0CCF8304670BD70B504468B
:1009D0000E4600F0A3F82546E11704EB1161091259
:1009E000A02202EB4101C8B200F04CF900F0D9F8A6
:1009F000E11704EB11610912A4EB0121C8B200F068
:100A000041F900F0CEF8304600F03CF900F0C9F8AA
:100A100000F0A6F80A20FFF760FD70BD2DE9F04157
:100A200005460E461746002409E0E20026FA02F2C7
:100A3000D1B22A1990B2FFF7C9FF601CC4B2BC4200
:100A4000F3DBBDE8F0812DE9F04107460C460026B6
:100A5000002509E036023919491B491E88B2FFF703
:100A600089FF0644681CC5B2A542F3DB3046BDE8E9
:100A7000F08110B5FF20FFF77DFF0446552C01D112
:100A8000002010BD5521FF20FFF7A0FFFF20FFF73A
:100A900071FF0446552C01D10020F2E70120F0E758
:100AA00070B506460C46154608E03046721C96B2F4
:100AB000FFF760FF04F8010B681E85B2002DF4D12A
:100AC00070BD70B505460C46164606E021782846EE
:100AD000FFF77CFF681C85B2641C3000A6F10101A1
:100AE0008EB2F3D170BD00009748806940F00800D5
:100AF000954988619548006820F47F4093490860D3
:100B00000846006840F44C5008609048083000687F
:100B100040F440608D4908310860704710B58B483B
:100B2000006820F47040894908600846006840F475
:100B3000405008600120864908608649C1F8A80134
:100B40004FF00400FFF79EFC0020814908604FF041
:100B50000400FFF797FC00207E49C1F8A80110BDF2
:100B600010B57A48006820F470407849086008465B
:100B7000006840F4405008600020774908607549DB
:100B8000C1F8AC014FF00400FFF77CFC0120724972
:100B900008607049C1F8AC014FF00400FFF772FC27
:100BA00010BD10B500246948006820F47040674902
:100BB00008600846006840F400400860012064496D
:100BC0000860FFF75FFC01206249C1F8A801FFF748
:100BD00059FC07E0601CC4B2FA2C03DDFFF7C0FF2C
:100BE000012010BD5D4800680028F3D15A49086013
:100BF00000BFF6E710B50020574908605348006869
:100C000020F47040514908600846006840F44050A4
:100C100008604FF000004F49C1F8AC014FF00200EE
:100C2000FFF730FC01204C4908604FF00200FFF74D
:100C300029FC00204749C1F8A80110BD10B50020CB
:100C4000454908604148006820F470403F49086009
:100C50000846006840F4405008604FF001003D49EC
:100C6000C1F8AC014FF00200FFF70CFC01203A493B
:100C700008604FF00200FFF705FC00203549C1F87D
:100C8000A80110BD70B504463048006820F47040DB
:100C90002E4908600846006840F440500860002073
:100CA0002D49086005461AE0E009294908604FEA25
:100CB00044604FEA10644FF00200FFF7E3FB0120AD
:100CC0002449C1F8A8010220FFF7DCFB00202249DB
:100CD00008604FF00200FFF7D5FB681CC5B2082D75
:100CE000E2DB70BD70B5054600241848006820F4AA
:100CF0007040164908600846006840F400400860EB
:100D0000002616E00020144908604FF00200FFF7AB
:100D1000B9FB01200F49C1F8A8016006040E0F4875
:100D2000006808B1601CC4B20120FFF7ABFB701C67
:100D3000C6B2082EE6DB15B9FFF780FF01E0FFF72A
:100D400059FF204670BD000000100240040C014015
:100D5000AC81214200802142A88121422C81214284
:100D60003748806940F00400354988610846806949
:100D700040F0400088613348006820F00F0031499E
:100D800008600846006840F0080008602E480068C7
:100D90002E4908402C490860084600682C49084341
:100DA0002949086028480C30006840F01C0026499A
:100DB0000C310860704710B5044614B10120254974
:100DC00008702448007838B32348006848B12348A5
:100DD000006830B12248006818B122480068012834
:100DE0001AD10A20FFF779FB00201A4908701A4827
:100DF000006808B9012010BD1848006808B9022031
:100E0000F9E71748006808B90320F4E715480068B7
:100E1000012813D10420EEE70F48006801280DD106
:100E20000E480068012809D10D480068012805D145
:100E30000C48006810B90120064908700020DAE764
:100E4000001002400008014000180140FF00F0FFC0
:100E5000008808000C000020100123420C012342EE
:100E60000801234200012142FE4908807047FD49E4
:100E7000891C08807047FB48801C00887047F94A2D
:100E80001080921C1180704710B504462046FFF771
:100E9000EBFF0520FFF7F6FAFFF7EDFF10BDF24874
:100EA0000089F04908807047EE49891C0880704726
:100EB00030B5014601F01F04C1F34513CA0AE5022B
:100EC00005EB43151544A8B230BD00BF0100A0F1E9
:100ED0000102D0B2FAD1704710B503460C46E24881
:100EE0008088A0F51341413905D0DF488088A0F5FE
:100EF000A641103914D1DC494889FFF7B5FF181213
:100F0000FFF7B5FFD8B2FFF7B2FFD7498889FFF7DF
:100F1000ABFF2012FFF7ABFFE0B2FFF7A8FF5DE0E9
:100F2000D1488088A0F5D04104391DD1CE488079C0
:100F3000012804D1CC480088401EC01A83B2CA4997
:100F40004889FFF791FF1812FFF791FFD8B2FFF71A
:100F50008EFFC5498889FFF787FF2012FFF787FFBB
:100F6000E0B2FFF784FF39E0BF488088A0F5AA41CE
:100F7000103920D1BC494889FFF776FF1812FFF7D6
:100F800076FFB9494989491C88B2FFF76DFFD8B28D
:100F9000FFF76DFFB4498889FFF766FF2012FFF75E
:100FA00066FFB1498989491C88B2FFF75DFFE0B24D
:100FB000FFF75DFF12E0AC488079012804D1AA4810
:100FC0000088401EC01A83B2A74948891946FFF716
:100FD00056FFA54988892146FFF751FF10BD2DE92D
:100FE000F04105460E4600240027A0469E48008892
:100FF000A84203DD9C484088B04202DC0020BDE8E6
:10100000F08131462846FFF767FF97488088A0F5B2
:10101000134141390BD094488088A0F5D041043960
:1010200005D091488088A0F5A641103903D12E2023
:10103000FFF71AFF0DE08C488088A0F5AA4110390F
:1010400004D14FF43850FFF70FFF02E02220FFF7E2
:101050000BFF85488088A0F51341203902D102207A
:10106000FFF733FF7F48801C008800B10024022076
:10107000FFF72BFF7B48801C04887B488088A0F505
:10108000134141390BD078488088A0F5A64110392A
:1010900005D075488088A0F5AA4110390CD10220EE
:1010A000FFF713FF6F48801CB0F80080E7B24FF6DF
:1010B000FF7000EA072708E06B488088A0F5D04160
:1010C000043902D16748801C048867488088A0F5ED
:1010D0001341253917D064488088A0F58A413539F5
:1010E00011D061488088A0F58A4131390BD05E4823
:1010F0008088A0F50941893905D05B488088A0F532
:101100003541053901D1204679E757488088A0F557
:10111000134141390BD054488088A0F5A6411039BD
:1011200005D051488088A0F5AA41103907D1E012B6
:10113000C002B91240EA411040EAE8205FE72046C9
:10114000FFF7B6FE5BE700B547488088A0F513417E
:1011500041390BD044488088A0F5D041043905D0EE
:1011600041488088A0F5A641103903D12920FFF716
:101170007BFE0FE03C488088A0F5AA41103904D1DD
:101180004FF42450FFF770FE04E040F27311072083
:10119000FFF775FE00BD00B533488088A0F5134108
:1011A00041390BD030488088A0F5D041043905D0B2
:1011B0002D488088A0F5A641103903D12820FFF7DB
:1011C00053FE0EE028488088A0F5AA41103904D1CA
:1011D0004FF42050FFF748FE03E000210720FFF7FF
:1011E0004EFE00BDF0B50546002400271E4880795C
:1011F00001281ED11C488088A0F5D041043918D0A0
:10120000082D15D2DFE805F00406080A0C0E1012AE
:1012100006250DE007250BE0042509E0052507E07C
:10122000012505E0002503E0032501E0022500BFBC
:1012300000BF0D488088A0F51341413911D00A48FC
:101240008088A0F5D04104390BD007488088A0F5EC
:10125000A641103905D004488088A0F5AA4110396C
:101260007ED103E0FE07006CCC4C0020082D1CD280
:10127000DFE805F00406090C0F12151800BF14E092
:1012800044F0800411E044F040040EE044F0C00457
:101290000BE044F0200408E044F0600405E044F072
:1012A000A00402E044F0E00400BF00BFFC488088D6
:1012B000A0F5AA41103902D14FF4585700E0362763
:1012C000F7488088A0F5A641103907D0F4488088F7
:1012D000A0F5AA41103901D044F00804F0488088F4
:1012E000A0F5D041043901D144F00204214638462A
:1012F000FFF7C5FD14F0200F03D1E94880790128DC
:101300000DD1E7480088E6494988884214DAE44864
:1013100006884088E2490880084646800CE0E0489C
:101320000088DF494988884206DDDD480688408814
:10133000DB49088008464680D9488088A0F5AA4144
:10134000103954D1D6494889FFF78EFD0020FFF7A8
:101350008EFDD3494989491C88B2FFF785FD00E01D
:1013600074E00020FFF783FDCD494989891C88B2CC
:10137000FFF77AFDCA490988491EC1F30F20FFF71C
:1013800076FDC7494989C91C88B2FFF76DFDC4497C
:101390000978491EC8B2FFF76AFDC1498889FFF77D
:1013A00063FD0020FFF763FDBD498989491C88B2B0
:1013B000FFF75AFD0020FFF75AFDB9498989891CBA
:1013C00088B2FFF751FDB6494988491EC1F30F2085
:1013D000FFF74DFDB2498989C91C88B2FFF744FD6A
:1013E000AF498978491EC8B2FFF741FD60E0AC49BA
:1013F0004889FFF739FD0020FFF739FD0020FFF78E
:1014000036FDA7490988491EC1F30F20FFF72FFDBC
:10141000A3490978491EC8B2FFF729FDA049888968
:10142000FFF722FD0020FFF722FD0020FFF71FFD40
:101430009B494988491EC1F30F20FFF718FD9849C1
:101440008978491EC8B2FFF712FD31E0082D1CD281
:10145000DFE805F004070A0D0F12151844F03004F8
:1014600013E044F0100410E044F020040DE000BF4D
:101470000BE044F0380408E044F0280405E044F0B0
:10148000180402E044F0080400BF00BF84488088CC
:10149000A0F50941893904D1112746F240000443DF
:1014A00002E0032744F4805421463846FFF7E7FC66
:1014B000F0BD30B504460D4629462046FFF70CFD29
:1014C000FFF7EDFC774800887749088030BD30B5DC
:1014D00003460C46154672488088A0F513414139F1
:1014E00005D06F488088A0F5A641103914D16C4909
:1014F0004889FFF7B9FC1812FFF7B9FCD8B2FFF71B
:10150000B6FC67498889FFF7AFFC2012FFF7AFFCF4
:10151000E0B2FFF7ACFC5DE061488088A0F5AA412D
:10152000103920D15E494889FFF79EFC1812FFF759
:101530009EFC5B494989491C88B2FFF795FCD8B2EB
:10154000FFF795FC56498889FFF78EFC2012FFF7BC
:101550008EFC53498989491C88B2FFF785FCE0B2AB
:10156000FFF785FC36E04E488088A0F5D04104396D
:101570001DD14B488079012804D149480088401E7C
:10158000C01A83B246494889FFF76EFC1812FFF76C
:101590006EFCD8B2FFF76BFC41498889FFF764FC09
:1015A0002012FFF764FCE0B2FFF761FC12E03C4858
:1015B0008079012804D13A480088401EC01A83B2BD
:1015C000374948891946FFF75AFC35498889214629
:1015D000FFF755FC324800893349891E0880881C72
:1015E000058030BD10B50446002C67D12C498871A8
:1015F000F02008804FF4A070488008468088A0F54D
:10160000134141390BD026488088A0F5D0410439D8
:1016100005D023488088A0F5A64110391AD12C2086
:101620001F4908812A2048812B208881084680880C
:10163000A0F5D041043905D019488088A0F5A6410D
:10164000103906D14FF4A070154908804FF4F0709E
:1016500048809CE012488088A0F50941893907D16B
:1016600022200F4908814E2048814F2088818EE03A
:101670000B488088A0F5AA41103917D14FF430509B
:10168000074908814FF4285048814FF42C50888135
:101690004FF4F07008804FF44870488077E00DE018
:1016A000CC4C00200E0000200008006C2220FE49D7
:1016B0000881202048812120888168E00120FA49A2
:1016C00088714FF4A0700880F02048800846808818
:1016D000A0F51341413905D0F3488088A0F5A64113
:1016E000103907D12C20F04908812A2048812B206D
:1016F000888139E0EC488088A0F5D041043907D1D1
:101700002C20E94908812B2048812A2088812BE060
:10171000E5488088A0F50941893907D12220E249AE
:1017200008814F2048814E2088811DE0DE48808856
:10173000A0F5AA41103910D14FF43050DA49088190
:101740004FF4285048814FF42C5088814FF4487052
:1017500008804FF4F070488006E02220D2490881CA
:101760002120488120208881CF488088A0F5D04161
:10177000043905D0CC488088A0F5A641103906D19F
:101780004FF4F070C84908804FF4A07048800020E2
:10179000FFF728FD10BD2DE9FF4F04460D46164604
:1017A0001F46A019401E86B2E819401E87B2BE48E7
:1017B0008088A0F5134141390BD0BB488088A0F543
:1017C000A641103905D0B8488088A0F5D041043929
:1017D00020D1B5494889FFF747FB2012FFF747FBA7
:1017E000E0B2FFF744FB3012FFF741FBF0B2FFF726
:1017F0003EFBAD498889FFF737FB2812FFF737FB1F
:10180000E8B2FFF734FB3812FFF731FBF8B2FFF70D
:101810002EFB90E0A4488088A0F5AA41103944D15D
:10182000A1494889FFF720FB2012FFF720FB9E49C2
:101830004989491C88B2FFF717FBE0B2FFF717FB95
:1018400099494989891C88B2FFF70EFB3012FFF7CE
:101850000EFB95494989C91C88B2FFF705FBF0B218
:10186000FFF705FB90498889FFF7FEFA2812FFF77A
:10187000FEFA8D498989491C88B2FFF7F5FAE8B26A
:10188000FFF7F5FA88498989891C88B2FFF7ECFAD5
:101890003812FFF7ECFA84498989C91C88B2FFF72E
:1018A000E3FAF8B2FFF7E3FA45E07F4880790128D0
:1018B0000ED1A846B9467C480088801B401E80B2E5
:1018C000019079480088001B401E80B2009003E020
:1018D000A046B1460195009773488088A0F509415C
:1018E00089390CD14FF0440AD34648EA09201FFA3F
:1018F00080F8C146452003904620029007E04FF053
:10190000500A4FF0510B5220039053200290414651
:101910005046FFF7B4FA49465846FFF7B0FA019926
:101920000398FFF7ACFA00990298FFF7A8FA294646
:101930002046FFF7D1FABDE8FF8F70B504460026B8
:10194000594805884088454357488088A0F5D041CC
:10195000043916D154488079012812D10020524907
:1019600088712A2048812B20888100210846FFF7B2
:10197000B3FA01204C4988712B2048812A208881A4
:1019800003E000210846FFF7A7FAFFF788FA0026D0
:1019900002E046480480761CAE42FAD370BD10B512
:1019A0004348406940F48070414948610846806975
:1019B00040F0080088610846806940F02000886196
:1019C0000846806940F0400088610846806940F41C
:1019D000807088613748006820F00F003549086042
:1019E0000846006840F00300086033480068334947
:1019F00008403149086008460068314908432E49CB
:101A00000860081F006800F0FF20091F08600846F2
:101A1000006840F0BB1008602A480068002029498F
:101A200008600846006840F0BB300860081F006886
:101A300020F07040091F08600846006840F0304000
:101A400008602148406820F470201F49486008461B
:101A5000406840F4302048600846006820F00F00DD
:101A600008600846006840F00B00086000204FF056
:101A700020418861C861154908604FF020408069A5
:101A800040F480504FF0204188610846806940F45E
:101A9000804088610846806940F0100088610846EF
:101AA000C069C861084613E0CC4C00200008006CF7
:101AB00000100240000C01400414014000F0FF003F
:101AC000BB0B00BB04180140002001401C0100A01A
:101AD000C06940F00100C8610846C06940F4706008
:101AE000C861FE480068C1F81C01FC480068C1F8E4
:101AF0001C010846D0F81C0140F44070C1F81C01DC
:101B00000846806940F0010088614FF03200FEF71E
:101B1000E4FC01210020FFF7B2F93220FEF7DDFCE2
:101B20000020FFF7B1F9EE49888008468088FF2839
:101B30000ADB08468088A0F57F41FF3904D0E848D9
:101B40008088B0F5134F7CD1D320FFF78DF9FFF7D4
:101B500092F9FFF790F9FFF78EF9E149888008467E
:101B600080884FF6FF7101EA0020DD498880FFF789
:101B700082F9DB4989880843D949888008468088EA
:101B8000A0F5134141396CD0BF20FFF76DF9FFF785
:101B900072F9FFF770F9FFF76EF9FFF76CF9D049AA
:101BA0008880084680884FF6FF7101EA0020CC4902
:101BB0008880FFF760F9CA4989880843C849888046
:101BC00008468088A0F5D04104394AD0D420FFF7D8
:101BD0004BF9FFF750F9FFF74EF9FFF74CF9C04901
:101BE0008880084680884FF6FF7101EA0020BC49D2
:101BF0008880FFF740F9BA4989880843B849888046
:101C000008468088A0F5A64110392AD04FF45A40E2
:101C1000FFF72AF9FFF72FF94FF45B40FFF724F99C
:101C2000FFF729F9AE498880084680884FF6FF7192
:101C300001EA0020AA4988804FF45C40FFF714F9BC
:101C400000E00EE0FFF717F9A54989880843A44989
:101C5000888008468088B0F5004F02D145F21050C8
:101C600088809F4881889FA019F0C2FC9C4880888A
:101C7000A0F5134141397CD1CF20FFF7F5F80020C2
:101C8000FFF7F5F8C120FFF7F2F83020FFF7EFF883
:101C9000ED20FFF7E9F86420FFF7E9F80320FFF7EC
:101CA000E6F81220FFF7E3F88120FFF7E0F8E820DC
:101CB000FFF7DAF88520FFF7DAF81020FFF7D7F8FA
:101CC0007A20FFF7D4F8CB20FFF7CEF83920FFF7C2
:101CD000CEF82C20FFF7CBF80020FFF7C8F834200F
:101CE000FFF7C5F80220FFF7C2F8F720FFF7BCF8AE
:101CF0002020FFF7BCF8EA20FFF7B6F80020FFF736
:101D0000B6F80020FFF7B3F8C020FFF7ADF81B20AE
:101D1000FFF7ADF8C120FFF7A7F80120FFF7A7F8FC
:101D2000C520FFF7A1F83020FFF7A1F83020FFF71A
:101D30009EF8C720FFF798F8B720FFF798F83620ED
:101D4000FFF792F84820FFF792F83A20FFF78CF857
:101D50005520FFF78CF8B120FFF786F80020FFF739
:101D600086F81A20FFF783F8B620FFF77DF80A20DF
:101D700000E099E0FFF77BF8A220FFF778F8F22067
:101D8000FFF772F80020FFF772F82620FFF76CF8D3
:101D90000120FFF76CF8E020FFF766F80F20FFF74F
:101DA00066F82A20FFF763F82820FFF760F808207C
:101DB000FFF75DF80E20FFF75AF80820FFF757F8F5
:101DC0005420FFF754F8A920FFF751F84320FFF7FC
:101DD0004EF80A20FFF74BF80F20FFF748F80020D5
:101DE000FFF745F80020FFF742F80020FFF73FF823
:101DF0000020FFF73CF8E120FFF736F80020FFF75E
:101E000036F81520FFF733F81720FFF730F80720D2
:101E1000FFF72DF81120FFF72AF80620FFF727F823
:101E20002B20FFF724F85620FFF721F83C20FFF77E
:101E30001EF80520FFF71BF81020FFF718F80F20F9
:101E4000FFF715F83F20FFF712F83F20FFF70FF8D4
:101E50000F20FFF70CF82B20FFF706F80020FFF704
:101E600006F80020FFF703F80120FFF700F83F20F5
:101E7000FEF7FDFF2A20FEF7F7FF0020FEF7F7FF31
:101E80000020FEF7F4FF0020FEF7F1FFEF20FEF741
:101E9000EEFF1120FEF7E8FF7820FEF71EFB292059
:101EA000FEF7E2FF03F028B90D488088A0F5D04185
:101EB00004397DD11120FEF7D7FF1420FEF70DFB6A
:101EC000D020FEF7D1FF0720FEF7D1FF4220FEF71A
:101ED000CEFF1D20FEF7CBFFD1200BE01C0100A0A0
:101EE000CC4C0020204C43442049443A25780D0A2C
:101EF00000000000FEF7B8FF0020FEF7B8FF1A2030
:101F0000FEF7B5FF0920FEF7B2FFD220FEF7ACFFC7
:101F10000120FEF7ACFF2220FEF7A9FFC020FEF74C
:101F2000A3FF1020FEF7A3FF3B20FEF7A0FF002039
:101F3000FEF79DFF0220FEF79AFF1120FEF797FFA4
:101F4000C520FEF791FF0320FEF791FFC820FEF7A2
:101F50008BFF0020FEF78BFF2520FEF788FF212056
:101F6000FEF785FF0520FEF782FF0020FEF77FFFCA
:101F70000A20FEF77CFF6520FEF779FF2520FEF79B
:101F800076FF7720FEF773FF5020FEF770FF0F20DB
:101F9000FEF76DFF0020FEF76AFFF820FEF764FFF2
:101FA0000120FEF764FFFE20FEF75EFF002000E048
:101FB00038E0FEF75CFF0220FEF759FF2020FEF715
:101FC00053FF3620FEF750FF0820FEF750FF3A205F
:101FD000FEF74AFF5520FEF74AFF2B20FEF744FF8D
:101FE0000020FEF744FF0020FEF741FF0120FEF72E
:101FF0003EFF3F20FEF73BFF2A20FEF735FF002083
:10200000FEF735FF0020FEF732FF0120FEF72FFF1D
:10201000DF20FEF72CFF7820FEF75FFA2920FEF77D
:1020200023FF3FE7FE488088A0F5A641103940F025
:102030007C87ED20FEF718FF0120FEF718FFFE2039
:10204000FEF715FFEE20FEF70FFFDE20FEF70FFF75
:102050002120FEF70CFFF120FEF706FF0120FEF71E
:1020600006FFDF20FEF700FF1020FEF700FFC42070
:10207000FEF7FAFE8F20FEF7FAFEC620FEF7F4FE0A
:102080000020FEF7F4FEE220FEF7F1FEE220FEF76C
:10209000EEFEE220FEF7EBFEBF20FEF7E5FEAA20F3
:1020A000FEF7E5FEB020FEF7DFFE0D20FEF7DFFEB7
:1020B0000020FEF7DCFE0D20FEF7D9FE0020FEF723
:1020C000D6FE1120FEF7D3FE0020FEF7D0FE192029
:1020D000FEF7CDFE0020FEF7CAFE2120FEF7C7FE68
:1020E0000020FEF7C4FE2D20FEF7C1FE0020FEF703
:1020F000BEFE3D20FEF7BBFE0020FEF7B8FE5D20D1
:10210000FEF7B5FE0020FEF7B2FE5D20FEF7AFFE43
:102110000020FEF7ACFEB120FEF7A6FE8020FEF701
:10212000A6FE0020FEF7A3FE8B20FEF7A0FE0020F7
:10213000FEF79DFE9620FEF79AFE0020FEF797FE22
:10214000B220FEF791FE0020FEF791FE0020FEF780
:102150008EFE0220FEF78BFE0020FEF788FE032095
:10216000FEF785FE0020FEF782FEB320FEF77CFE20
:102170000020FEF77CFE0020FEF779FE0020FEF72F
:1021800076FE0020FEF773FE0020FEF770FE0020B2
:10219000FEF76DFE0020FEF76AFE0020FEF767FEE8
:1021A0000020FEF764FE0020FEF761FE0020FEF72F
:1021B0005EFE0020FEF75BFE0020FEF758FE0020CA
:1021C000FEF755FE0020FEF752FE0020FEF74FFE00
:1021D0000020FEF74CFE0020FEF749FE0020FEF72F
:1021E00046FE0020FEF743FE0020FEF740FE0020E2
:1021F000FEF73DFE0020FEF73AFE0020FEF737FE18
:10220000B420FEF731FE8B20FEF731FE0020FEF7F2
:102210002EFE9620FEF72BFE0020FEF728FEA120C2
:10222000FEF725FE0020FEF722FEB520FEF71CFE7D
:102230000220FEF71CFE0020FEF719FE0320FEF729
:1022400016FE0020FEF713FE0420FEF710FE00200D
:10225000FEF70DFEB620FEF707FE0020FEF707FE94
:102260000020FEF704FEB720FEF7FEFD0020FEF77B
:10227000FEFD0020FEF7FBFD3F20FEF7F8FD0020ED
:10228000FEF7F5FD5E20FEF7F2FD0020FEF7EFFD04
:102290006420FEF7ECFD0020FEF7E9FD8C20FEF740
:1022A000E6FD0020FEF7E3FDAC20FEF7E0FD002098
:1022B000FEF7DDFDDC20FEF7DAFD0020FEF7D7FD9E
:1022C0007020FEF7D4FD0020FEF7D1FD9020FEF730
:1022D000CEFD0020FEF7CBFDEB20FEF7C8FD002071
:1022E000FEF7C5FDDC20FEF7C2FD0020FEF7BFFDB6
:1022F000B820FEF7B9FD0020FEF7B9FD0020FEF77B
:10230000B6FD0020FEF7B3FD0020FEF7B0FD002073
:10231000FEF7ADFD0020FEF7AAFD0020FEF7A7FDA9
:102320000020FEF7A4FDBA20FEF79EFD2420FEF754
:102330009EFD0020FEF79BFD0020FEF798FD00208B
:10234000FEF795FDC120FEF78FFD2020FEF78FFDE3
:102350000020FEF78CFD5420FEF789FD0020FEF7DB
:1023600086FDFF20FEF783FD0020FEF780FDC220E2
:10237000FEF77AFD0A20FEF77AFD0020FEF777FDD2
:102380000420FEF774FD0020FEF771FDC320FEF768
:102390006BFD3C20FEF76BFD0020FEF768FD3A2048
:1023A000FEF765FD0020FEF762FD3920FEF75FFDB8
:1023B0000020FEF75CFD3720FEF759FD0020FEF7F8
:1023C00056FD3C20FEF753FD0020FEF750FD362061
:1023D000FEF74DFD0020FEF74AFD3220FEF747FDD7
:1023E0000020FEF744FD2F20FEF741FD0020FEF700
:1023F0003EFD2C20FEF73BFD0020FEF738FD292096
:10240000FEF735FD0020FEF732FD2620FEF72FFDFA
:102410000020FEF72CFD2420FEF729FD002001E01E
:10242000CC4C0020FEF723FD2420FEF720FD0020E9
:10243000FEF71DFD2320FEF71AFD0020FEF717FD15
:102440003C20FEF714FD0020FEF711FD3620FEF7BC
:102450000EFD0020FEF70BFD3220FEF708FD0020E8
:10246000FEF705FD2F20FEF702FD0020FEF7FFFC22
:102470002C20FEF7FCFC0020FEF7F9FC2920FEF7DB
:10248000F6FC0020FEF7F3FC2620FEF7F0FC00200F
:10249000FEF7EDFC2420FEF7EAFC0020FEF7E7FC47
:1024A0002420FEF7E4FC0020FEF7E1FC2320FEF7E9
:1024B000DEFC0020FEF7DBFCC420FEF7D5FC62202A
:1024C000FEF7D5FC0020FEF7D2FC0520FEF7CFFC7E
:1024D0000020FEF7CCFC8420FEF7C9FC0020FEF7AC
:1024E000C6FCF020FEF7C3FC0020FEF7C0FC18205D
:1024F000FEF7BDFC0020FEF7BAFCA420FEF7B7FCF7
:102500000020FEF7B4FC1820FEF7B1FC0020FEF717
:10251000AEFC5020FEF7ABFC0020FEF7A8FC0C2020
:10252000FEF7A5FC0020FEF7A2FC1720FEF79FFC9B
:102530000020FEF79CFC9520FEF799FC0020FEF79A
:1025400096FCF320FEF793FC0020FEF790FCE620BB
:10255000FEF78DFC0020FEF78AFCC520FEF784FC08
:102560003220FEF784FC0020FEF781FC4420FEF7B9
:102570007EFC0020FEF77BFC6520FEF778FC002047
:10258000FEF775FC7620FEF772FC0020FEF76FFC6C
:102590008820FEF76CFC0020FEF769FCC620FEF7E1
:1025A00063FC2020FEF763FC0020FEF760FC172090
:1025B000FEF75DFC0020FEF75AFC0120FEF757FCF9
:1025C0000020FEF754FCC720FEF74EFC0020FEF76B
:1025D0004EFC0020FEF74BFC0020FEF748FC0020DC
:1025E000FEF745FCC820FEF73FFC0020FEF73FFC4D
:1025F0000020FEF73CFC0020FEF739FC0020FEF72F
:1026000036FCC920FEF730FC0020FEF730FC00202D
:10261000FEF72DFC0020FEF72AFC0020FEF727FC29
:102620000020FEF724FC0020FEF721FC0020FEF72E
:102630001EFC0020FEF71BFC0020FEF718FC00200B
:10264000FEF715FC0020FEF712FC0020FEF70FFC41
:102650000020FEF70CFC0020FEF709FC0020FEF72E
:1026600006FC0020FEF703FCE020FEF7FDFB162031
:10267000FEF7FDFB0020FEF7FAFB1C20FEF7F7FB40
:102680000020FEF7F4FB2120FEF7F1FB0020FEF70F
:10269000EEFB3620FEF7EBFB0020FEF7E8FB4620C2
:1026A000FEF7E5FB0020FEF7E2FB5220FEF7DFFB22
:1026B0000020FEF7DCFB6420FEF7D9FB0020FEF7CC
:1026C000D6FB7A20FEF7D3FB0020FEF7D0FB8B2051
:1026D000FEF7CDFB0020FEF7CAFB9920FEF7C7FBF3
:1026E0000020FEF7C4FBA820FEF7C1FB0020FEF788
:1026F000BEFBB920FEF7BBFB0020FEF7B8FBC420F1
:10270000FEF7B5FB0020FEF7B2FBCA20FEF7AFFBD9
:102710000020FEF7ACFBD220FEF7A9FB0020FEF75D
:10272000A6FBD920FEF7A3FB0020FEF7A0FBE020CC
:10273000FEF79DFB0020FEF79AFBF320FEF797FBC8
:102740000020FEF794FBE120FEF78EFB1620FEF73B
:102750008EFB0020FEF78BFB1C20FEF788FB002081
:10276000FEF785FB2220FEF782FB0020FEF77FFBB1
:102770003620FEF77CFB0020FEF779FB4520FEF7B4
:1027800076FB0020FEF773FB5220FEF770FB002063
:10279000FEF76DFB6420FEF76AFB0020FEF767FB87
:1027A0007A20FEF764FB0020FEF761FB8B20FEF72A
:1027B0005EFB0020FEF75BFB9920FEF758FB002034
:1027C000FEF755FBA820FEF752FB0020FEF74FFB5B
:1027D000B920FEF74CFB0020FEF749FBC420FEF7B2
:1027E00046FB0020FEF743FBCA20FEF740FB00201B
:1027F000FEF73DFBD220FEF73AFB0020FEF737FB49
:10280000D820FEF734FB0020FEF731FBE020FEF776
:102810002EFB0020FEF72BFBF320FEF728FB002009
:10282000FEF725FBE220FEF71FFB0520FEF71FFB4E
:102830000020FEF71CFB0B20FEF719FB0020FEF723
:1028400016FB1B20FEF713FB0020FEF710FB3420C5
:10285000FEF70DFB0020FEF70AFB4420FEF707FB06
:102860000020FEF704FB4F20FEF701FB0020FEF7DF
:10287000FEFA6120FEF7FBFA0020FEF7F8FA792055
:10288000FEF7F5FA0020FEF7F2FA8820FEF7EFFADD
:102890000020FEF7ECFA9720FEF7E9FA0020FEF799
:1028A000E6FAA620FEF7E3FA0020FEF7E0FAB720EA
:1028B000FEF7DDFA0020FEF7DAFAC220FEF7D7FABB
:1028C0000020FEF7D4FAC720FEF7D1FA0020FEF769
:1028D000CEFAD120FEF7CBFA0020FEF7C8FAD620B8
:1028E000FEF7C5FA0020FEF7C2FADD20FEF7BFFAB8
:1028F0000020FEF7BCFAF320FEF7B9FA0020FEF73D
:10290000B6FAE320FEF7B0FA0520FEF7B0FA002091
:10291000FEF7ADFA0A20FEF7AAFA0020FEF7A7FAA2
:102920001C20FEF7A4FA0020FEF7A1FA3320FEF7E0
:102930009EFA0020FEF79BFA4420FEF798FA00204A
:10294000FEF795FA5020FEF792FA0020FEF78FFA74
:102950006220FEF78CFA0020FEF789FA7820FEF755
:1029600086FA0020FEF783FA8820FEF780FA00201E
:10297000FEF77DFA9720FEF77AFA0020FEF777FA45
:10298000A620FEF774FA0020FEF771FAB720FEF7D2
:102990006EFA0020FEF76BFAC220FEF768FA0020FC
:1029A000FEF765FAC720FEF762FA0020FEF75FFA2D
:1029B000D120FEF75CFA0020FEF759FAD520FEF789
:1029C00056FA0020FEF753FADD20FEF750FA0020F9
:1029D000FEF74DFAF320FEF74AFA0020FEF747FA19
:1029E000E420FEF741FA0120FEF741FA0020FEF74D
:1029F0003EFA0120FEF73BFA0020FEF738FA0220EB
:102A0000FEF735FA0020FEF732FA2A20FEF72FFAF9
:102A10000020FEF72CFA3C20FEF729FA0020FEF7F2
:102A200026FA4B20FEF723FA0020FEF720FA5D205D
:102A3000FEF71DFA0020FEF71AFA7420FEF717FAC7
:102A40000020FEF714FA8420FEF711FA0020FEF7AA
:102A50000EFA9320FEF70BFA0020FEF708FAA220E8
:102A6000FEF705FA0020FEF702FAB320FEF7FFF9A1
:102A70000020FEF7FCF9BE20FEF7F9F90020FEF772
:102A8000F6F9C420FEF7F3F90020FEF7F0F9CD20A7
:102A9000FEF7EDF90020FEF7EAF9D320FEF7E7F99B
:102AA0000020FEF7E4F9DD20FEF7E1F90020FEF753
:102AB000DEF9F320FEF7DBF90020FEF7D8F9E52078
:102AC000FEF7D2F90020FEF7D2F90020FEF7CFF989
:102AD0000020FEF7CCF90020FEF7C9F90220FEF72E
:102AE000C6F90020FEF7C3F92920FEF7C0F900203F
:102AF000FEF7BDF93C20FEF7BAF90020FEF7B7F962
:102B00004B20FEF7B4F90020FEF7B1F95D20FEF787
:102B1000AEF90020FEF7ABF97420FEF7A8F900200B
:102B2000FEF7A5F98420FEF7A2F90020FEF79FF931
:102B30009320FEF79CF90020FEF799F9A220FEF7FA
:102B400096F90020FEF793F9B320FEF790F90020E4
:102B5000FEF78DF9BE20FEF78AF90020FEF787F90F
:102B6000C420FEF784F90020FEF781F9CD20FEF79E
:102B70007EF90020FEF77BF9D320FEF778F90020DC
:102B8000FEF775F9DC20FEF772F90020FEF76FF909
:102B9000F320FEF76CF90020FEF769F9E620FEF756
:102BA00063F91120FEF763F90020FEF760F9342085
:102BB000FEF75DF90020FEF75AF95620FEF757F9A7
:102BC0000020FEF754F97620FEF751F90020FEF7B9
:102BD0004EF97720FEF74BF90020FEF748F9662002
:102BE000FEF745F90020FEF742F98820FEF73FF98D
:102BF0000020FEF73CF99920FEF739F90020FEF796
:102C000036F9BB20FEF733F90020FEF730F99920A2
:102C1000FEF72DF90020FEF72AF96620FEF727F9C6
:102C20000020FEF724F95520FEF721F90020FEF7D9
:102C30001EF95520FEF71BF90020FEF718F9452074
:102C4000FEF715F90020FEF712F94320FEF70FF901
:102C50000020FEF70CF94420FEF709F90020FEF7EA
:102C600006F9E720FEF700F93220FEF700F9002010
:102C7000FEF7FDF85520FEF7FAF80020FEF7F7F80A
:102C80007620FEF7F4F80020FEF7F1F86620FEF754
:102C9000EEF80020FEF7EBF86720FEF7E8F80020DA
:102CA000FEF7E5F86720FEF7E2F80020FEF7DFF810
:102CB0008720FEF7DCF80020FEF7D9F89920FEF710
:102CC000D6F80020FEF7D3F8BB20FEF7D0F800209E
:102CD000FEF7CDF89920FEF7CAF80020FEF7C7F8F6
:102CE0007720FEF7C4F80020FEF7C1F84420FEF775
:102CF000BEF80020FEF7BBF85620FEF7B8F800201B
:102D0000FEF7B5F82320FEF7B2F80020FEF7AFF883
:102D10003320FEF7ACF80020FEF7A9F84520FEF7B7
:102D2000A6F80020FEF7A3F8E820FEF79DF80020A3
:102D3000FEF79DF80020FEF79AF89920FEF797F825
:102D40000020FEF794F88720FEF791F80020FEF7A8
:102D50008EF88820FEF78BF80020FEF788F87720A1
:102D6000FEF785F80020FEF782F86620FEF77FF870
:102D70000020FEF77CF88820FEF779F80020FEF7A7
:102D800076F8AA20FEF773F80020FEF770F8BB2053
:102D9000FEF76DF80020FEF76AF89920FEF767F855
:102DA0000020FEF764F86620FEF761F80020FEF7C9
:102DB0005EF85520FEF75BF80020FEF758F8552026
:102DC000FEF755F80020FEF752F84420FEF74FF8C2
:102DD0000020FEF74CF84420FEF749F80020FEF7EB
:102DE00046F85520FEF743F80020FEF740F8E920AA
:102DF000FEF73AF8AA20FEF73AF80020FEF737F877
:102E00000020FEF734F80020FEF731F80020FEF72E
:102E10002BF8AA20FEF72BF8CF20FEF725F800208C
:102E2000FEF725F80020FEF722F80020FEF71FF835
:102E30000020FEF71CF80020FEF719F80020FEF72E
:102E400016F80020FEF713F80020FEF710F8002017
:102E5000FEF70DF80020FEF70AF80020FEF707F84D
:102E60000020FEF704F80020FEF701F80020FDF72F
:102E7000FEFF0020FDF7FBFF0020FDF7F8FF00201C
:102E8000FDF7F5FFF020FDF7EFFF0020FDF7EFFF66
:102E90005020FDF7ECFF0020FDF7E9FF0020FDF7D3
:102EA000E6FF0020FDF7E3FFF320FDF7DDFF002044
:102EB000FDF7DDFFF920FDF7D7FF0620FDF7D7FF6F
:102EC0001020FDF7D4FF2920FDF7D1FF0020FDF7EA
:102ED000CEFF3A20FDF7C8FF5520FDF7C8FF1120AF
:102EE000FDF7C2FF6420FDF7F8FA2920FDF7BCFFCB
:102EF0003520FDF7B9FF0020FDF7B9FF5120FDF7A0
:102F0000B3FFFF20FDF7B3FF5320FDF7ADFF2C20EB
:102F1000FDF7ADFF5520FDF7A7FF8220FDF7A7FFC6
:102F20002C20FDF7A1FF02F0E7B8FE488088A0F54D
:102F3000AA4110397ED155214FF47040FDF79FFF13
:102F4000AA214FF20100FDF79AFF52214FF2020031
:102F5000FDF795FF08214FF20300FDF790FF0121D7
:102F60004FF20400FDF78BFF0D214FF43040FDF7C9
:102F700086FF0D214BF20100FDF781FF0D214BF281
:102F80000200FDF77CFF34214FF43640FDF777FF58
:102F900034214BF20160FDF772FF34214BF20260E5
:102FA000FDF76DFF0D214FF43140FDF768FF0D2156
:102FB0004BF20110FDF763FF0D214BF20210FDF7FC
:102FC0005EFF34214FF43740FDF759FF34214BF2B7
:102FD0000170FDF754FF34214BF20270FDF74FFFF3
:102FE00000214FF43240FDF74AFF00214BF201204F
:102FF000FDF745FF00214BF20220FDF740FF2421A1
:103000004FF43840FDF73BFF24214BF60100FDF75C
:1030100036FF24214BF60200FDF731FF01214FF46A
:103020003F40FDF72CFF0F214FF43340FDF727FF02
:103030000F2100E0FEE34BF20130FDF720FF0F21EE
:103040004BF20230FDF71BFF34214FF43940FDF7FE
:1030500016FF34214BF60110FDF711FF34214BF61A
:103060000210FDF70CFF08214FF43540FDF707FF74
:1030700008214BF20150FDF702FF08214BF20250EC
:10308000FDF7FDFE03214FF44240FDF7F8FE242139
:103090004FF43A40FDF7F3FE24214BF60120FDF7F3
:1030A000EEFE24214BF60220FDF7E9FE00214FF44D
:1030B0003C40FDF7E4FE78214BF60140FDF7DFFED2
:1030C00000214BF60240FDF7DAFE00214FF43D40AF
:1030D000FDF7D5FE78214BF60150FDF7D0FE00211B
:1030E0004BF60250FDF7CBFE00214FF43E40FDF7BA
:1030F000C6FE64214BF60160FDF7C1FE00214FF4CE
:103100005140FDF7BCFE33214DF20110FDF7B7FE33
:1031100000214DF20210FDF7B2FE34214DF20310F2
:10312000FDF7ADFE00214DF20410FDF7A8FE3A2197
:103130004DF20510FDF7A3FE00214DF20610FDF73C
:103140009EFE4A214DF20710FDF799FE00214DF237
:103150000810FDF794FE5C214DF20910FDF78FFE7B
:1031600000214DF20A10FDF78AFE81214DF20B106D
:10317000FDF785FE00214DF20C10FDF780FEA62123
:103180004DF20D10FDF77BFE00214DF20E10FDF704
:1031900076FEE5214DF20F10FDF771FE01214DF293
:1031A0001010FDF76CFE13214DF21110FDF767FEB4
:1031B00001214DF21210FDF762FE54214DF2131061
:1031C000FDF75DFE01214DF21410FDF758FE82213E
:1031D0004DF21510FDF753FE01214DF21610FDF7CB
:1031E0004EFECA214DF21710FDF749FE02214DF2A5
:1031F0001810FDF744FE00214DF21910FDF73FFEB7
:1032000002214DF21A10FDF73AFE01214DF21B107A
:10321000FDF735FE02214DF21C10FDF730FE342182
:103220004DF21D10FDF72BFE02214DF21E10FDF791
:1032300026FE67214DF21F10FDF721FE02214DF2FF
:103240002010FDF71CFE84214DF22110FDF717FE22
:1032500002214DF22210FDF712FEA4214DF223109F
:10326000FDF70DFE02214DF22410FDF708FEB721F7
:103270004DF22510FDF703FE02214DF22610FDF759
:10328000FEFDCF214DF22710FDF7F9FD02214DF291
:103290002810FDF7F4FDDE214DF22910FDF7EFFDBA
:1032A00002214DF22A10FDF7EAFDF2214DF22B101A
:1032B000FDF7E5FD02214DF22C10FDF7E0FDFE21AA
:1032C0004DF22D10FDF7DBFD03214DF22E10FDF721
:1032D000D6FD10214DF22F10FDF7D1FD03214DF247
:1032E0003010FDF7CCFD33214DF23110FDF7C7FD55
:1032F00003214DF23210FDF7C2FD6D214DF2331066
:10330000FDF7BDFD00214FF45240FDF7B8FD33211C
:103310004DF20120FDF7B3FD00214DF20220FDF733
:10332000AEFD01E0CC4C002034214DF20320FDF72E
:10333000A6FD00214DF20420FDF7A1FD3A214DF23A
:103340000520FDF79CFD00214DF20620FDF797FDBD
:103350004A214DF20720FDF792FD00214DF2082091
:10336000FDF78DFD5C214DF20920FDF788FD002160
:103370004DF20A20FDF783FD81214DF20B20FDF770
:103380007EFD00214DF20C20FDF779FDA6214DF2C6
:103390000D20FDF774FD00214DF20E20FDF76FFDAD
:1033A000E5214DF20F20FDF76AFD01214DF21020BD
:1033B000FDF765FD13214DF21120FDF760FD0121A0
:1033C0004DF21220FDF75BFD54214DF21320FDF765
:1033D00056FD01214DF21420FDF751FD82214DF2E1
:1033E0001520FDF74CFD01214DF21620FDF747FD9C
:1033F000CA214DF21720FDF742FD02214DF218209F
:10340000FDF73DFD00214DF21920FDF738FD0221A9
:103410004DF21A20FDF733FD01214DF21B20FDF77F
:103420002EFD02214DF21C20FDF729FD34214DF225
:103430001D20FDF724FD02214DF21E20FDF71FFD8A
:1034400067214DF21F20FDF71AFD02214DF22020C9
:10345000FDF715FD84214DF22120FDF710FD02211D
:103460004DF22220FDF70BFDA4214DF22320FDF7A4
:1034700006FD02214DF22420FDF701FDB7214DF29A
:103480002520FDF7FCFC02214DF22620FDF7F7FC7C
:10349000CF214DF22720FDF7F2FC02214DF228202A
:1034A000FDF7EDFCDE214DF22920FDF7E8FC0221BD
:1034B0004DF22A20FDF7E3FCF2214DF22B20FDF71F
:1034C000DEFC02214DF22C20FDF7D9FCFE214DF24D
:1034D0002D20FDF7D4FC03214DF22E20FDF7CFFC6B
:1034E00010214DF22F20FDF7CAFC03214DF23020B0
:1034F000FDF7C5FC33214DF23120FDF7C0FC03215F
:103500004DF23220FDF7BBFC6D214DF23320FDF76B
:10351000B6FC00214FF45340FDF7B1FC33214DF2CE
:103520000130FDF7ACFC00214DF20230FDF7A7FCA5
:1035300034214DF20330FDF7A2FC00214DF204309E
:10354000FDF79DFC3A214DF20530FDF798FC002176
:103550004DF20630FDF793FC4A214DF20730FDF79E
:103560008EFC00214DF20830FDF789FC5C214DF204
:103570000930FDF784FC00214DF20A30FDF77FFC95
:1035800081214DF20B30FDF77AFC00214DF20C3019
:10359000FDF775FCA6214DF20D30FDF770FC002102
:1035A0004DF20E30FDF76BFCE5214DF20F30FDF7CB
:1035B00066FC01214DF21030FDF761FC13214DF244
:1035C0001130FDF75CFC01214DF21230FDF757FC84
:1035D00054214DF21330FDF752FC01214DF214300D
:1035E000FDF74DFC82214DF21530FDF748FC01211D
:1035F0004DF21630FDF743FCCA214DF21730FDF7AE
:103600003EFC02214DF21830FDF739FC00214DF24D
:103610001930FDF734FC02214DF21A30FDF72FFC72
:1036200001214DF21B30FDF72AFC02214DF21C3026
:10363000FDF725FC34214DF21D30FDF720FC022161
:103640004DF21E30FDF71BFC67214DF21F30FDF7D8
:1036500016FC02214DF22030FDF711FC84214DF2C1
:103660002130FDF70CFC02214DF22230FDF707FC62
:10367000A4214DF22330FDF702FC02214DF224304B
:10368000FDF7FDFBB7214DF22530FDF7F8FB0221D8
:103690004DF22630FDF7F3FBCF214DF22730FDF739
:1036A000EEFB02214DF22830FDF7E9FBDE214DF261
:1036B0002930FDF7E4FB02214DF22A30FDF7DFFB54
:1036C000F2214DF22B30FDF7DAFB02214DF22C30C6
:1036D000FDF7D5FBFE214DF22D30FDF7D0FB032188
:1036E0004DF22E30FDF7CBFB10214DF22F30FDF7C0
:1036F000C6FB03214DF23030FDF7C1FB33214DF203
:103700003130FDF7BCFB03214DF23230FDF7B7FB42
:103710006D214DF23330FDF7B2FB00214FF45440E0
:10372000FDF7ADFB33214DF20140FDF7A8FB002171
:103730004DF20240FDF7A3FB34214DF20340FDF7AB
:103740009EFB00214DF20440FDF799FB3A214DF21A
:103750000540FDF794FB00214DF20640FDF78FFB7D
:103760004A214DF20740FDF78AFB00214DF2084047
:10377000FDF785FB5C214DF20940FDF780FB002140
:103780004DF20A40FDF77BFB81214DF20B40FDF726
:1037900076FB00214DF20C40FDF771FBA6214DF2A6
:1037A0000D40FDF76CFB00214DF20E40FDF767FB6D
:1037B000E5214DF20F40FDF762FB01214DF2104073
:1037C000FDF75DFB13214DF21140FDF758FB012180
:1037D0004DF21240FDF753FB54214DF21340FDF71B
:1037E0004EFB01214DF21440FDF749FB82214DF2C1
:1037F0001540FDF744FB01214DF21640FDF73FFB5C
:10380000CA214DF21740FDF73AFB02214DF2184054
:10381000FDF735FB00214DF21940FDF730FB022189
:103820004DF21A40FDF72BFB01214DF21B40FDF735
:1038300026FB00E004E302214DF21C40FDF71FFBD4
:1038400034214DF21D40FDF71AFB02214DF21E40BE
:10385000FDF715FB67214DF21F40FDF710FB02211C
:103860004DF22040FDF70BFB84214DF22140FDF786
:1038700006FB02214DF22240FDF701FBA4214DF28F
:103880002340FDF7FCFA02214DF22440FDF7F7FA40
:10389000B7214DF22540FDF7F2FA02214DF2264004
:1038A000FDF7EDFACF214DF22740FDF7E8FA0221AE
:1038B0004DF22840FDF7E3FADE214DF22940FDF7F5
:1038C000DEFA02214DF22A40FDF7D9FAF2214DF23B
:1038D0002B40FDF7D4FA02214DF22C40FDF7CFFA30
:1038E000FE214DF22D40FDF7CAFA03214DF22E4084
:1038F000FDF7C5FA10214DF22F40FDF7C0FA032164
:103900004DF23040FDF7BBFA33214DF23140FDF767
:10391000B6FA03214DF23240FDF7B1FA6D214DF2B6
:103920003340FDF7ACFA00214FF45540FDF7A7FAFC
:1039300033214DF20150FDF7A2FA00214DF2025061
:10394000FDF79DFA34214DF20350FDF798FA00215E
:103950004DF20450FDF793FA3A214DF20550FDF770
:103960008EFA00214DF20650FDF789FA4A214DF2F8
:103970000750FDF784FA00214DF20850FDF77FFA59
:103980005C214DF20950FDF77AFA00214DF20A5000
:10399000FDF775FA81214DF20B50FDF770FA002109
:1039A0004DF20C50FDF76BFAA6214DF20D50FDF7CC
:1039B00066FA00214DF20E50FDF761FAE5214DF255
:1039C0000F50FDF75CFA01214DF21050FDF757FA48
:1039D00013214DF21150FDF752FA01214DF2125010
:1039E000FDF74DFA54214DF21350FDF748FA01212D
:1039F0004DF21450FDF743FA82214DF21550FDF7B8
:103A00003EFA01214DF21650FDF739FACA214DF266
:103A10001750FDF734FA02214DF21850FDF72FFA36
:103A200000214DF21950FDF72AFA02214DF21A50E9
:103A3000FDF725FA01214DF21B50FDF720FA022176
:103A40004DF21C50FDF71BFA34214DF21D50FDF7CD
:103A500016FA02214DF21E50FDF711FA67214DF2C0
:103A60001F50FDF70CFA02214DF22050FDF707FA26
:103A700084214DF22150FDF702FA02214DF222502D
:103A8000FDF7FDF9A4214DF22350FDF7F8F90221CD
:103A90004DF22450FDF7F3F9B7214DF22550FDF713
:103AA000EEF902214DF22650FDF7E9F9CF214DF252
:103AB0002750FDF7E4F902214DF22850FDF7DFF918
:103AC000DE214DF22950FDF7DAF902214DF22A509C
:103AD000FDF7D5F9F2214DF22B50FDF7D0F9022177
:103AE0004DF22C50FDF7CBF9FE214DF22D50FDF794
:103AF000C6F903214DF22E50FDF7C1F910214DF208
:103B00002F50FDF7BCF903214DF23050FDF7B7F906
:103B100033214DF23150FDF7B2F903214DF232500D
:103B2000FDF7ADF96D214DF23350FDF7A8F90021F5
:103B30004FF45640FDF7A3F933214DF20160FDF734
:103B40009EF900214DF20260FDF799F934214DF202
:103B50000360FDF794F900214DF20460FDF78FF941
:103B60003A214DF20560FDF78AF900214DF2066019
:103B7000FDF785F94A214DF20760FDF780F9002134
:103B80004DF20860FDF77BF95C214DF20960FDF70D
:103B900076F900214DF20A60FDF771F981214DF2AD
:103BA0000B60FDF76CF900214DF20C60FDF767F931
:103BB000A6214DF20D60FDF762F900214DF20E6075
:103BC000FDF75DF9E5214DF20F60FDF758F9012190
:103BD0004DF21060FDF753F913214DF21160FDF71E
:103BE0004EF901214DF21260FDF749F954214DF2D1
:103BF0001360FDF744F901214DF21460FDF73FF920
:103C000082214DF21560FDF73AF901214DF216605F
:103C1000FDF735F9CA214DF21760FDF730F90221A1
:103C20004DF21860FDF72BF900214DF21960FDF7F8
:103C300026F902214DF21A60FDF721F901214DF21A
:103C40001B60FDF71CF902214DF21C60FDF717F90E
:103C500034214DF21D60FDF712F902214DF21E6074
:103C6000FDF70DF967214DF21F60FDF708F90221FC
:103C70004DF22060FDF703F984214DF22160FDF73C
:103C8000FEF802214DF22260FDF7F9F8A4214DF271
:103C90002360FDF7F4F802214DF22460FDF7EFF800
:103CA000B7214DF22560FDF7EAF802214DF22660BA
:103CB000FDF7E5F8CF214DF22760FDF7E0F802218E
:103CC0004DF22860FDF7DBF8DE214DF22960FDF7AB
:103CD000D6F802214DF22A60FDF7D1F8F2214DF21B
:103CE0002B60FDF7CCF802214DF22C60FDF7C7F8F0
:103CF000FE214DF22D60FDF7C2F803214DF22E603A
:103D0000FDF7BDF810214DF22F60FDF7B8F8032143
:103D10004DF23060FDF7B3F833214DF23160FDF71D
:103D2000AEF803214DF23260FDF7A9F86D214DF296
:103D30003360FDF7A4F855214FF47040FDF79FF86C
:103D4000AA214FF20100FDF79AF852214FF202002A
:103D5000FDF795F808214FF20300FDF790F80021D8
:103D60004FF20400FDF78BF8CC214FF43140FDF702
:103D700086F800214BF20110FDF781F805214FF480
:103D80003640FDF77CF870214FF43740FDF777F8A7
:103D900070214BF20170FDF772F801214FF43840A9
:103DA000FDF76DF803214BF60100FDF768F80321DC
:103DB0004BF60200FDF763F803214BF60300FDF715
:103DC0005EF802214FF43C40FDF759F800214BF614
:103DD0000140FDF754F800214BF60240FDF74FF883
:103DE000D0214FF44940FDF74AF802214CF601106A
:103DF000FDF745F850214CF60210FDF740F8502130
:103E00004CF60310FDF73BF850214CF60410FDF77B
:103E100036F800214FF45450FDF731F855214FF496
:103E20006850FDF72CF84FF48850FDF71DF8782006
:103E3000FCF728FB4FF42450FDF716F801F05CB9AD
:103E4000FE488088A0F5134125397DD147F6F00161
:103E5000E520FDF714F84FF480710120FDF70FF80D
:103E60004FF4E0610220FDF70AF841F2300103202F
:103E7000FDF705F800210420FDF701F840F20221CA
:103E80000820FCF7FCFF00210920FCF7F8FF0021C7
:103E90000A20FCF7F4FF00210C20FCF7F0FF0021C2
:103EA0000D20FCF7ECFF00210F20FCF7E8FF0021BC
:103EB0001020FCF7E4FF07211120FCF7E0FF0021B0
:103EC0001220FCF7DCFF00211320FCF7D8FF0021B3
:103ED0000720FCF7D4FF41F290611020FCF7CFFFE0
:103EE00040F227211120FCF7CAFF9D211220FCF788
:103EF000C6FF4FF4C8511320FCF7C1FF252129202C
:103F0000FCF7BDFF0D212B20FCF7B9FF0721302066
:103F1000FCF7B5FF40F203313120FCF7B0FF03217D
:103F20003220FCF7ACFF40F206213520FCF7A7FF5A
:103F300008213620FCF7A3FF40F206413720FCF7AA
:103F40009EFF4FF4417100E058E03820FCF797FFE6
:103F500007213920FCF793FF40F202613C20FCF777
:103F60008EFF08213D20FCF78AFF00215020FCF73E
:103F700086FFEF215120FCF782FF00215220FCF741
:103F80007EFF40F23F115320FCF779FF4FF42741A9
:103F90006020FCF774FF01216120FCF770FF002115
:103FA0006A20FCF76CFF00218020FCF768FF0021ED
:103FB0008120FCF764FF00218220FCF760FF0021D4
:103FC0008320FCF75CFF00218420FCF758FF0021D0
:103FD0008520FCF754FF10219020FCF750FF4FF490
:103FE000C0619220FCF74BFF40F233110720FCF731
:103FF00046FF22210020FCF742FF1FE78F48808800
:10400000A0F5134128397DD141F28F01EC20FCF756
:1040100036FF41F23421EF20FCF731FF4FF480717D
:104020000120FCF72CFF4FF4E0610220FCF727FF92
:1040300041F230010320FCF722FF00210420FCF7AD
:104040001EFF40F202210820FCF719FF0021092081
:10405000FCF715FF00210A20FCF711FF01210C20BD
:10406000FCF70DFF00210D20FCF709FF00210F20B8
:10407000FCF705FF00211020FCF701FF07211120AC
:10408000FCF7FDFE00211220FCF7F9FE00211320B1
:10409000FCF7F5FE01210720FCF7F1FE3220FCF7CA
:1040A0001CFA41F290411020FCF7E9FE40F2272172
:1040B0001120FCF7E4FE3220FCF70FFA8A211220CF
:1040C000FCF7DDFE3220FCF708FA4FF4D051132044
:1040D000FCF7D5FE06212920FCF7D1FE0D212B206F
:1040E000FCF7CDFE3220FCF7F8F900212020FCF788
:1040F000C6FE00212120FCF7C2FE3220FCF7EDF9BC
:10410000002100E075E03020FCF7B9FE40F20461C8
:104110003120FCF7B4FE40F205313220FCF7AFFE4F
:1041200000213520FCF7ABFE40F609413620FCF7B4
:10413000A6FE4FF401713720FCF7A1FE40F20131D9
:104140003820FCF79CFE40F207713920FCF797FEFF
:1041500000213C20FCF793FE40F60A213D20FCF7AD
:104160008EFE3220FCF7B9F900215020FCF787FEC3
:10417000EF215120FCF783FE00215220FCF77FFE47
:1041800040F23F115320FCF77AFE4FF427416020A4
:10419000FCF775FE01216120FCF771FE00216A2009
:1041A000FCF76DFE00218020FCF769FE00218120D4
:1041B000FCF765FE00218220FCF761FE00218320D0
:1041C000FCF75DFE00218420FCF759FE00218520CC
:1041D000FCF755FE10219020FCF751FE4FF4C06112
:1041E0009220FCF74CFE40F233110720FCF747FE0B
:1041F00024E612488088A0F5134120397ED1084674
:10420000FCF73DFE4FF480710120FCF738FE4FF4BF
:10421000E0610220FCF733FE41F230010320FCF79D
:104220002EFE00210420FCF72AFE40F20221082085
:10423000FCF725FE0021092002E00000CC4C002004
:10424000FCF71DFE00210A20FCF719FE01210C20BD
:10425000FCF715FE00210D20FCF711FE00210F20B8
:10426000FCF70DFE3220FCF738F940F2011107206F
:10427000FCF705FE3220FCF730F94FF48651102090
:10428000FCF7FDFD07211120FCF7F9FD4FF48871C3
:104290001220FCF7F4FD4FF430611320FCF7EFFD22
:1042A00000212920FCF7EBFD44F210012B20FCF744
:1042B000E6FD00215020FCF7E2FDEF215120FCF744
:1042C000DEFD00215220FCF7DAFD40F23F115320C1
:1042D000FCF7D5FD4FF41C516020FCF7D0FD012107
:1042E0006120FCF7CCFD00216A20FCF7C8FD00210D
:1042F0008020FCF7C4FD0021812000E030E0FCF7C5
:10430000BEFD00218220FCF7BAFD00218320FCF7CE
:10431000B6FD00218420FCF7B2FD00218520FCF7CA
:10432000AEFD10219020FCF7AAFD00219220FCF7A1
:10433000A6FD01219320FCF7A2FD4FF48871952082
:10434000FCF79DFD00219720FCF799FD00219820A6
:10435000FCF795FD40F273110720FCF790FD6DE529
:10436000FE488088A0F5134131397DD141F2140116
:10437000E720FCF784FD4FF480710120FCF77FFDFE
:104380004FF400710220FCF77AFD41F2380103205E
:10439000FCF775FD40F202210820FCF770FD0021BA
:1043A0000920FCF76CFD00210A20FCF768FD0021C4
:1043B0000C20FCF764FD00210D20FCF760FD0021BE
:1043C0000F20FCF75CFD00211020FCF758FD0721B1
:1043D0001120FCF754FD00211220FCF750FD0021B4
:1043E0001320FCF74CFDC820FCF777F841F29061F0
:1043F0001020FCF744FD40F227211120FCF73FFD7F
:104400003220FCF76AF80C211220FCF738FD32202C
:10441000FCF763F84FF400611320FCF730FD112125
:104420002920FCF72CFD0B212B20FCF728FD322046
:10443000FCF753F800212020FCF721FD40F23F114A
:104440002120FCF71CFD00213020FCF718FD4FF463
:1044500083713120FCF713FD00213220FCF70FFDA2
:104460004FF40171352000E064E0FCF708FD41F2F3
:104470000A613620FCF703FD40F207713720FCF794
:10448000FEFC4FF483713820FCF7F9FC40F2077111
:104490003920FCF7F4FC40F202413C20FCF7EFFC31
:1044A00040F60F413D20FCF7EAFC00215020FCF7CC
:1044B000E6FCEF215120FCF7E2FC00215220FCF742
:1044C000DEFC40F23F115320FCF7D9FC4FF41C51A5
:1044D0006020FCF7D4FC01216120FCF7D0FC002116
:1044E0006A20FCF7CCFC00218020FCF7C8FC0021EE
:1044F0008120FCF7C4FC00218220FCF7C0FC0021D5
:104500008320FCF7BCFC00218420FCF7B8FC0021D0
:104510008520FCF7B4FC10219020FCF7B0FC4FF490
:10452000C0619220FCF7ABFC40F233110720FCF78E
:10453000A6FC83E489488088A0F5A84108397DD18C
:104540004FF480710120FCF79AFC4FF4E0610220E7
:10455000FCF795FC41F230010320FCF790FC0021B0
:104560000420FCF78CFC40F207210820FCF787FCB4
:1045700000210920FCF783FC00210A20FCF77FFCC6
:1045800000210C20FCF77BFC00210D20FCF777FCC0
:1045900000210F20FCF773FC1420FBF79EFF41F273
:1045A000B0611020FCF76BFC01211120FCF767FCC7
:1045B00001211720FCF763FC4FF49C711220FCF7DB
:1045C0005EFC4FF400611320FCF759FC09212920FF
:1045D000FCF755FC09212A20FCF751FC0021A420FE
:1045E000FCF74DFC00215020FCF749FCEF21512045
:1045F000FCF745FC00215220FCF741FC40F23F1142
:104600005320FCF73CFC4FF41C516020FCF737FCB6
:1046100001216120FCF733FC00216A20FCF72FFC0C
:1046200000218020FCF72BFC00218120FCF727FCD7
:1046300000218220FCF723FC002100E024E08320FD
:10464000FCF71DFC00218420FCF719FC00218520CB
:10465000FCF715FC13219020FCF711FC002192209F
:10466000FCF70DFC03219320FCF709FC4FF4887143
:104670009520FCF704FC40F273110720FCF7FFFBC8
:104680003220FBF72AFFB8E434488088A0F5A8510F
:10469000053965D10720FCF7F2FB3220FBF71DFF3F
:1046A0004FF48E711220FCF7EAFB0121A420FCF7E5
:1046B000E6FB0F210820FCF7E2FB08210A20FCF7AB
:1046C000DEFB08210D20FCF7DAFB40F207713020F9
:1046D000FCF7D5FB07213120FCF7D1FB40F2036149
:1046E0003220FCF7CCFB4FF4E0613320FCF7C7FB32
:1046F00040F202213420FCF7C2FB02213520FCF7F6
:10470000BEFB41F60F713620FCF7B9FB40F2077192
:104710003720FCF7B4FB00213820FCF7B0FB002168
:104720003920FCF7ACFB40F207713A20FCF7A7FBFD
:1047300000213B20FCF7A3FB07213C20FCF79FFB5B
:1047400000213D20FCF79BFB3220FBF7C6FE012138
:104750000720FCF794FB0121172002E0CC4C00203D
:10476000AEE0FCF78CFB3220FBF7B7FE4FF4BD51F7
:104770001020FCF784FB40F217211120FCF77FFB8F
:104780004FF48F711220FCF77AFB4FF47061132005
:10479000FCF775FB00212A20FCF771FB0A21292078
:1047A000FCF76DFB4FF49F711220FCF768FB0021B2
:1047B0005020FCF764FBEF215120FCF760FB002147
:1047C0005220FCF75CFB40F23F115320FCF757FBF3
:1047D0004FF41C516020FCF752FB01216120FCF7D3
:1047E0004EFB00216A20FCF74AFB00218020FCF7E9
:1047F00046FB00218120FCF742FB00218220FCF7D0
:104800003EFB00218320FCF73AFB00218420FCF7CB
:1048100036FB00218520FCF732FB13219020FCF7AA
:104820002EFB4FF440719220FCF729FB05219320C9
:10483000FCF725FB00219520FCF721FB00219720A8
:10484000FCF71DFB00219820FCF719FB4FF4807149
:104850000120FCF714FB4FF4E0610220FCF70FFB92
:1048600041F238010320FCF70AFB00210420FCF789
:1048700006FB00210C20FCF702FB00210F20FCF7B7
:10488000FEFA00212020FCF7FAFA00212120FCF793
:10489000F6FA21210720FCF7F2FA1420FBF71DFE9F
:1048A00061210720FCF7EBFA1420FBF716FE40F21B
:1048B00073110720FCF7E3FA1420FBF70EFE97E4D0
:1048C000FE488088A0F5354105397DD10846FCF7C2
:1048D000D6FA00210846FCF7D2FA00210846FCF778
:1048E000CEFA00210846FCF7CAFA0121A420FCF701
:1048F000C6FA1420FBF7F1FD4FF41C516020FCF7C1
:10490000BEFA40F202210820FCF7B9FA4FF4057113
:104910003020FCF7B4FA43F215713120FCF7AFFAFE
:1049200040F204613220FCF7AAFA40F61661332007
:10493000FCF7A5FA42F211213420FCF7A0FA4FF45B
:10494000A8513520FCF79BFA48F207513620FCF7B6
:1049500096FA41F207413720FCF791FA41F2034100
:104960003820FCF78CFA20213920FCF788FA1A212C
:104970009020FCF784FA00211020FCF780FA072130
:104980001120FCF77CFA00211220FCF778FA0021B4
:104990001320FCF774FA1420FBF79FFD4FF4E66137
:1049A0001020FCF76CFA40F237111120FCF767FA7F
:1049B0001420FBF792FD4FF4DC711220FCF75FFA34
:1049C0001420FBF78AFD00E083E04FF470611320B0
:1049D000FCF755FA80212A20FCF751FA48212920BA
:1049E000FCF74DFA1420FBF778FD4FF4807101209D
:1049F000FCF745FA4FF4E0610220FCF740FA41F27F
:104A000038010320FCF73BFA40F202210820FCF7B2
:104A100036FA00210A20FCF732FA00210C20FCF7BC
:104A20002EFA00210D20FCF72AFA30210E20FCF787
:104A300026FA00215020FCF722FAEF215120FCF742
:104A40001EFA00215220FCF71AFA40F23F115320BF
:104A5000FCF715FA4FF41C516020FCF710FA012105
:104A60006120FCF70CFA00216A20FCF708FA1121FA
:104A70009020FCF704FA4FF4C0619220FCF7FFF994
:104A800040F202419320FCF7FAF902219420FCF74E
:104A9000F6F91420FBF721FD01210720FCF7EFF9BF
:104AA0001420FBF71AFD61210720FCF7E8F940F21A
:104AB00073110720FCF7E3F900212020FCF7DFF950
:104AC00000212120FCF7DBF922210020FCF7D7F997
:104AD00012E37A488088A0F5454105397DD1084622
:104AE000FCF7CDF900210846FCF7C9F91420FBF7C3
:104AF000F4FC00210846FCF7C2F900210846FCF747
:104B0000BEF900210846FCF7BAF900210846FCF777
:104B1000B6F90121A420FCF7B2F91420FBF7DDFC63
:104B20004FF41C516020FCF7AAF940F6060108205A
:104B3000FCF7A5F940F203713020FCF7A0F9012140
:104B40003120FCF79CF904213220FCF798F94FF44E
:104B500081713320FCF793F94FF440713420FCF756
:104B60008EF940F203113520FCF789F91F21362018
:104B7000FCF785F940F203713720FCF780F9012139
:104B80003820FCF77CF904213920FCF778F915214D
:104B90009020FCF774F94FF482611020FCF76FF954
:104BA00040F247211120FCF76AF94FF4DE71122020
:104BB000FCF765F94FF460611320FCF760F9782089
:104BC000FBF78BFC4FF480710120FCF758F94FF490
:104BD00000710220FCF753F900E050E041F230018F
:104BE0000320FCF74CF908210A20FCF748F90021C2
:104BF0000C20FCF744F920210E20FCF740F900219D
:104C00000F20FCF73CF900212020FCF738F90021A7
:104C10002120FCF734F93D212A20FCF730F914203B
:104C2000FBF75BFC2D212920FCF729F900215020FE
:104C3000FCF725F94DF2EF015120FCF720F9002196
:104C40005220FCF71CF940F23F115320FCF717F9F2
:104C500000216120FCF713F900216A20FCF70FF90D
:104C60004FF440719220FCF70AF905219320FCF7DC
:104C700006F94FF480710720FCF701F93CE20F4878
:104C80008088A0F5094189397ED101210020FCF7F7
:104C9000F6F84AF6A4010320FCF7F1F800210C20F5
:104CA000FCF7EDF840F60C010D20FCF7E8F84FF4A6
:104CB0002C510E20FCF7E3F8B02101E0CC4C002091
:104CC0001E20FCF7DCF842F63F310120FCF7D7F854
:104CD0004FF4C0610220FCF7D2F800211020FCF74D
:104CE000CEF846F278011120FCF7C9F80021052022
:104CF000FCF7C5F800210620FCF7C1F84EF61C7140
:104D00001620FCF7BCF803211720FCF7B8F840F296
:104D100033210720FCF7B3F800210B20FCF7AFF894
:104D200000210F20FCF7ABF800214120FCF7A7F889
:104D300000214220FCF7A3F800214820FCF79FF84F
:104D400040F23F114920FCF79AF800214A20FCF775
:104D500096F800214B20FCF792F84FF46F41442065
:104D6000FCF78DF800214520FCF789F840F23F114F
:104D70004620FCF784F840F207713020FCF77FF8FA
:104D80004FF40171312000E03FE0FCF778F84FF478
:104D900001713220FCF773F840F202513320FCF726
:104DA0006EF840F207513420FCF769F84FF40171B6
:104DB0003520FCF764F84FF401713620FCF75FF8FA
:104DC00040F202513720FCF75AF840F202313A2003
:104DD000FCF755F840F202313B20FCF750F8002177
:104DE0002320FCF74CF800212420FCF748F84FF46E
:104DF00000412520FCF743F800214F20FCF73FF845
:104E000000214E20FCF73BF876E1F7488088A0F5BA
:104E10008A4131397ED101210020FCF730F80A2087
:104E2000FBF75BFB41F228611020FCF728F80E210C
:104E30001220FCF724F840F639211320FCF71FF864
:104E40000A20FBF74AFB40211120FCF718F85021FB
:104E50001520FCF714F80A20FBF73FFB1E21122057
:104E6000FCF70DF80A20FBF738FB4FF4B151102086
:104E7000FCF705F842F639211320FCF700F80A2068
:104E8000FBF72BFB4FF480710120FBF7F8FF4FF489
:104E900040710220FBF7F3FF41F238010320FBF7DA
:104EA000EEFF40F202210820FBF7E9FF08210A206B
:104EB000FBF7E5FF00213020FBF7E1FF40F2024164
:104EC0003120FBF7DCFF4FF483713220FBF7D7FF73
:104ED00040F203513320FBF7D2FF4FF482713420AC
:104EE000FBF7CDFF40F201313520FBF7C8FF40F260
:104EF00007713620FBF7C3FF40F205313720FBF77F
:104F0000BEFF4FF402713820FBF7B9FF40F60B717A
:104F1000392000E03BE0FBF7B2FF02214120FBF724
:104F2000AEFF4FF41C516020FBF7A9FF0121612067
:104F3000FBF7A5FF4FF404719020FBF7A0FF4FF49F
:104F400085719220FBF79BFF04219320FBF797FFCD
:104F50004FF48071A020FBF792FF01210720FBF79F
:104F60008EFF21210720FBF78AFF23210720FBF773
:104F700086FF33210720FBF782FF40F23311072021
:104F8000FBF77DFF0021A020FBF779FFB4E09648F6
:104F90008088A0F58A413539F8D130211520FBF7FA
:104FA0006EFF10219A20FBF76AFF20211120FBF7EA
:104FB00066FF43F228411020FBF761FF0221122017
:104FC000FBF75DFF41F238011320FBF758FF282063
:104FD000FBF783FA12210846FBF751FF2820FBF765
:104FE0007CFA43F220411020FBF749FF43F23801DD
:104FF0001320FBF744FF4620FBF76FFA0021302017
:10500000FBF73DFF40F202413120FBF738FF40F251
:1050100007313220FBF733FF4FF441713320FBF7A8
:105020002EFF04213420FBF72AFF40F201413520F6
:10503000FBF725FF40F207713620FBF720FF40F217
:1050400005313720FBF71BFF4FF4C2613820FBF717
:1050500016FF4FF4C2613920FBF711FF4FF4807146
:105060000120FBF70CFF4FF440710220FBF707FF14
:1050700041F230010320FBF702FF40F6080108204F
:10508000FBF7FDFE08210A20FBF7F9FE4FF41C5147
:105090006020FBF7F4FE01216120FBF7F0FE4FF4E6
:1050A0009F719020FBF7EBFE4FF480719220FBF78D
:1050B000E6FE4FF480719320FBF7E1FE4FF4405180
:1050C000A020FBF7DCFE1021A320FBF7D8FE012176
:1050D0000720FBF7D4FE21210720FBF7D0FE232178
:1050E0000720FBF7CCFE33210720FBF7C8FE40F278
:1050F00033110720FBF7C3FE0120FCF773FA0020F1
:105100003A4908604FF6FF70FCF717FC10BD2DE917
:10511000FC4F05460E4617469846DDF82C900020B9
:10512000019031488088A0F5D041043929D12E481A
:105130008079012825D1AB4635462B480088C01B15
:10514000401E86B2474628480088A0EB0B00401E50
:105150001FFA80F80020244988712A2048812B20DA
:10516000888143463A4631462846CDF80090FFF7FD
:10517000CEFF01201C4988712B2048812A2088817C
:105180001CE0781B401C80B20190344614E021469C
:105190002846FBF7A1FEFBF782FE4FF0000A06E06F
:1051A0004846FBF764FE0AF101001FFA80FA0198F5
:1051B0008245F5DB601C84B24445E8DDBDE8FC8F28
:1051C0002DE9F84F07460D4690469946DDF828B080
:1051D000A8EB0700401C80B20090A9EB0500401C22
:1051E0001FFA80FA002419E0CC4C00208081214273
:1051F000281981B23846FBF76FFEFBF750FE0026F8
:1052000007E004FB0A603BF81000FE490880701CB0
:1052100086B200988642F4DB601C84B25445E7DB1A
:10522000BDE8F88F2DE9FF4F84B081468A46002003
:10523000039002900698A0EB09050798A0EB0A06D8
:10524000CDF80490CDF800A0002D01DD012705E088
:105250000DB9002702E04FF0FF376D42002E02DD4E
:105260004FF0010806E016B94FF0000802E04FF0D9
:10527000FF387642B54201DD2C4600E034464FF05F
:10528000000B21E0009A91B2019A90B2FCF711F95B
:105290000398284403900298304402900398A04257
:1052A00005DD0398001B0390019838440190029893
:1052B000A04205DD0298001B029000984044009037
:1052C0000BF101001FFA80FB601C8345DADD08B09A
:1052D000BDE8F08FF0B504460D4616461F462B4636
:1052E000324629462046FFF79DFF3B462246294687
:1052F0002046FFF797FF3B46324639462046FFF7E8
:1053000091FF3B46324629463046FFF78BFFF0BD02
:105310002DE9F04306460F469046002445460320FB
:10532000A0EB48093CE07A1B91B2321990B2FCF72D
:10533000C0F83A1B91B2721990B2FCF7BAF83A1958
:1053400091B2721990B2FCF7B4F87A1991B232198D
:1053500090B2FCF7AEF87A1991B2321B90B2FCF71A
:10536000A8F83A1991B2721B90B2FCF7A2F87A1B16
:1053700091B2321B90B2FCF79CF83A1B91B2721BAF
:1053800090B2FCF796F8641CB9F1000F03DAA000A4
:10539000801D814404E0601B80000A3081446D1E42
:1053A000AC42C0DDBDE8F0832DE9F84F05460F465D
:1053B00090461E4600979448B0F80090A8F120004F
:1053C00000F0FF080A9800284ED1002449E00C2E76
:1053D00007D108EB48008D4901EB800010F804A0CC
:1053E00004E08B4800EB081010F804A04FF0000B0D
:1053F00031E01AF0800F03D08348A0F8009003E05A
:10540000844800888049088039462846FCF751F8CE
:105410004FEA4A604FEA106A781C87B27E480088DB
:10542000A84204DC7848A0F80090BDE8F88F009806
:10543000381AB0420BD1009F681C85B276480088AC
:10544000A84203DC7048A0F80090EEE706E00BF1FC
:10545000010000F0FF0BBBF1080FCADB00BF601CAE
:10546000C4B2B442B3DB44E0002440E00C2E07D1C8
:1054700008EB4800654901EB800010F804A004E047
:10548000634800EB081010F804A04FF0000B28E070
:105490001AF0800F03D039462846FCF70AF84FEA85
:1054A0004A604FEA106A781C87B25B484088A8427D
:1054B00003DC5548A0F80090B7E70098381AB042CE
:1054C0000BD1009F681C85B253480088A84203DCBA
:1054D0004D48A0F80090A8E706E00BF1010000F0AD
:1054E000FF0BBBF1080FD3DB00BF601CC4B2B4429A
:1054F000BCDB4548A0F8009000BF96E710B5024617
:10550000012000E050430B00A1F10104E1B2F9D108
:1055100010BD2DE9FF4F81B0074691461E460E9DF6
:105520004FF0000A002439E0301B401EC1B20A20AF
:10553000FFF7E4FFB9FBF0F00A21B0FBF1F201FB49
:105540001208BAF1000F16D1701EA04213DDB8F197
:10555000000F0ED10020AB4605EBDB71491001FBBB
:105560000471009088B22B4620220299FFF71CFF9D
:1055700012E04FF0010A0020AB4605EBDB71491049
:1055800001FB0471009088B208F13001CAB22B46C9
:105590000299FFF709FF00BF601CC4B2B442C3DB2D
:1055A00005B0BDE8F08F2DE9FF4F82B00646924668
:1055B0001F46DDE90F480020019000255BE0781BC5
:1055C000401EC1B20A20FFF799FFBAFBF0F00A2192
:1055D000B0FBF1F201FB12090198A8BB781EA842AA
:1055E00035DDB9F1000F30D118F0800F1CD008F074
:1055F0000100A34604EBDB71491001FB056100903B
:1056000088B20BE00008006C0E00002092D901085F
:1056100006DE010810000020CC4C0020234630227A
:105620000399FFF7C1FE0EE008F00100A34604EB6A
:10563000DB71491001FB0561009088B223462022EE
:105640000399FFF7B1FE14E001E00120019008F09A
:105650000100A34604EBDB71491001FB05610090DA
:1056600088B209F13001CAB223460399FFF79CFEC4
:1056700000BF681CC5B2BD42A1DB06B0BDE8F08F1B
:105680002DE9F84704460D4690469946DDE909673D
:1056900004F0FF0A08EB04001FFA80F809EB05008C
:1056A0001FFA80F916E0444502DB5446A81985B27A
:1056B0004D4500DB14E0002000903A78334629463F
:1056C0002046FFF771FE304606EBD07104EB610116
:1056D0008CB27F1C38787E2802DC38782028E2DA09
:1056E00000BFBDE8F88700001848806940F0080056
:1056F000164988610846806940F040008861144876
:10570000006820F47000124908600846006840F400
:10571000401008600E480C30006840F020000C4932
:105720000C3108600B48006820F4700009490860DB
:105730000846006840F44010086006480C300068D5
:1057400040F0200003490C3108607047001002400F
:10575000000C01400018014010B50A20FAF792FE33
:1057600010BD9748806940F0080095498861084657
:10577000806940F0800088619248006820F0F00065
:10578000904908600846006840F0300008608E4884
:10579000006820F0F0008C4908600846006840F07E
:1057A0003000086087480C30006840F002008549EE
:1057B0000C31086084480830006840F40070824969
:1057C00008310860704710B57F48006820F0F0008D
:1057D0007D4908600846006840F0300008600120FC
:1057E0007A4908607A49C1F88401FFF7B5FF0020C3
:1057F00076490860FFF7B0FF00207549C1F88401C1
:1058000010BD10B57048006820F0F0006E490860C7
:105810000846006840F03000086001206D490860CB
:10582000FFF79AFF00206C49C1F8A401FFF794FF2D
:10583000012066490860FFF78FFF10BD10B50024F6
:105840006148006820F0F0005F4908600846006881
:1058500040F08000086001205C490860FAF712FE01
:1058600001205B49C1F88401FAF70CFE07E0601CD7
:10587000C4B2FA2C03DDFFF7C4FF012010BD574866
:1058800000680028F3D15349086000BFF6E710B55F
:105890000020504908604C48006820F0F0004A4958
:1058A00008600846006840F0300008604FF00000D3
:1058B0004949C1F8A401FFF74FFF0120454908609D
:1058C000FFF74AFF00204249C1F8840110BD10B51E
:1058D0000020404908603C48006820F0F0003A4948
:1058E00008600846006840F0300008604FF0010092
:1058F0003949C1F8A401FFF72FFF0120354908609D
:10590000FFF72AFF00203249C1F8840110BD70B5AD
:1059100004462D48006820F0F0002B490860084636
:10592000006840F03000086000202A490860054601
:1059300014E0E009254908604FEA44604FEA10642A
:105940004FF001002249C1F88401FFF705FF002054
:1059500020490860FFF700FF681CC5B2082DE8DB8E
:1059600070BD70B5054600241748006820F0F000AF
:10597000154908600846006840F08000086000266D
:1059800013E00020134908604FF01E00FAF77AFD7B
:1059900001200F49C1F884016006040E0F48006819
:1059A00008B1601CC4B2701CC6B2082EE9DB15B980
:1059B000FFF78DFF01E0FFF76AFF204670BD000092
:1059C00000100240000C0140041C0140A48123424D
:1059D000008021428481214200802342248123428D
:1059E0002DE9F04104460E4617464FF00008FFF738
:1059F000EAFEB220FFF78BFFFFF720FF2012FFF730
:105A000086FFFFF71BFFE0B2FFF781FFFFF716FFEE
:105A100000250BE0705DFFF77AFFFFF70FFF804670
:105A2000B8F1000F00D003E0681CC5B2BD42F1DB45
:105A300000BFFFF7E6FE4046BDE8F0812DE9F041EA
:105A400005460F461646FFF7BEFEB220FFF75FFF82
:105A5000FFF7F4FE2812FFF75AFFFFF7EFFEE8B258
:105A6000FFF755FFFFF7EAFEFFF7ADFEB320FFF7A4
:105A70004EFFFFF7E3FE00240BE0711EA14201D0B0
:105A8000012100E000210846FFF76BFF3855601C3C
:105A9000C4B2B442F1DBFFF7B4FEBDE8F08138B523
:105AA0000446002000900CB180200090012269463D
:105AB0004FF45060FFF794FF38BD08B50020009008
:105AC0009948806940F008009749886108468069D4
:105AD00040F0800088619548006820F47060934928
