:020000040800F2
:1000000030040020D90C0008490200084B02000807
:100010004D0200084F0200085102000800000000D5
:100020000000000000000000000000005302000873
:10003000550200080000000057020008590200089D
:10004000F30C0008F30C0008F30C0008F30C000894
:10005000F30C0008F30C0008F30C0008F30C000884
:10006000F30C0008F30C0008F30C0008F30C000874
:10007000F30C0008F30C0008F30C0008F30C000864
:10008000F30C0008F30C0008F30C0008F30C000854
:10009000F30C0008F30C0008F30C0008F30C000844
:1000A000F30C0008F30C0008F30C0008F30C000834
:1000B000F30C0008F30C0008F30C0008F30C000824
:1000C000F30C0008F30C0008F30C0008F30C000814
:1000D000F30C00085D020008F30C0008F30C0008A4
:1000E000F30C0008F30C0008F30C0008F30C0008F4
:1000F000F30C0008F30C0008F30C0008F30C0008E4
:10010000F30C0008F30C0008F30C0008F30C0008D3
:10011000F30C0008F30C0008F30C0008F30C0008C3
:10012000F30C0008F30C0008F30C0008F30C0008B3
:10013000DFF80CD000F072FE0048004745010008CF
:100140003004002086B0012144F2040000F030FBAE
:10015000384D284600F07CFB6815ADF810000324EC
:100160008DF812401820344E8DF8130004A9304643
:1001700000F037F92815ADF8100004208DF81300B1
:1001800004A9304600F02DF925208DF814008DF8D3
:1001900015408DF8164001208DF8170005A800F0D5
:1001A00076F800214FF416500090ADF80810ADF825
:1001B00004100C20ADF80610ADF80C10ADF80A00D4
:1001C0006946284600F074FB012240F2255128467A
:1001D00000F0F0FB0121284600F0E2FB00F08EFD6C
:1001E00000F0DCFD00F0AAFD00F002FE134800F074
:1001F00027FE134D134C284600F0B7FD2021204662
:1002000000F04FF9C0F10100C2B22021204600F0F9
:1002100056F9F0E770B5074D0446C1B2284600F024
:1002200015FC4021284600F072FC0028F9D0204639
:1002300070BD00000038014000080140900E000829
:1002400020A10700001801407047FEE7FEE7FEE727
:10025000FEE770477047704700F08FBD10B5084C3F
:100260002021204600F053FC012808D1204600F050
:10027000F1FB01462046BDE8104000F0E7BB10BD91
:100280000038014027490843274908607047F0B506
:100290000F21C478027801234FF0E026DCB1224C14
:1002A0002468457804F4E064C4F5E064240AC4F1E9
:1002B0000407E1408478BD400C402C4321011B4CD5
:1002C0001155007800F01F018B40400906EB8000BB
:1002D000C0F80031F0BD02F01F008340500906EB6A
:1002E0008000C0F88031F0BD114A114001430E4832
:1002F000001F016070470C4A121D0029116801D0CF
:10030000014300E08143116070474FF0E021042871
:10031000086903D020F004000861704740F0040031
:10032000FAE700000000FA050CED00E000E400E050
:1003300080FFFF1F8F4910B5884206D1012104209C
:1003400000F048FA002104203BE08B49884206D1A6
:100350000121082000F03EFA0021082031E0874901
:10036000884206D10121102000F034FA002110202B
:1003700027E08349884206D10121202000F02AFA93
:10038000002120201DE07F49884206D10121402024
:1003900000F020FA0021402013E07B49884206D17A
:1003A0000121802000F016FA0021802009E0774921
:1003B00088420AD184150121204600F00BFA002161
:1003C0002046BDE8104000F005BA10BD10B501216F
:1003D000084600F0FFF90021BDE81040012000F0C0
:1003E000F9B9F0B5CA78002502F00F03D20601D59D
:1003F0008A7813430C784FF00F0E0122E4B10468A1
:100400000F8802FA05F63740B74211D14FEA850C42
:100410000EFA0CF724EA070703FA0CF43C43CF78F2
:10042000282F02D0482F02D002E0466100E006618A
:100430006D1C082DE4D304600C88FF2C1ED9446881
:100440005FF0000606F1080702FA07F50F882F4053
:10045000AF420FD14FEA860C0EFA0CF7BC4303FAF9
:100460000CF73C43CF78282F00D14561CF78482F37
:1004700000D10561761C082EE4D34460F0BD4FF630
:10048000FF710180022181700421C1707047024612
:10049000002092680A4200D001207047806880B234
:1004A000704702460020D2680A4200D001207047FF
:1004B000C06880B2704701617047416170470AB1FE
:1004C0000161704741617047C160704741F48032FB
:1004D0008261816182618169806970472C4B10B5AE
:1004E0001A684FF68074224042EA001008431860F0
:1004F00010BD2849C8617047F0B5254C002801DAC5
:10050000E36900E06368420D120185B2C0F3015750
:100510009540C0F30346032F05D0C2020AD503223B
:10052000B240934307E023F07062636823F0706386
:10053000636002E0AB4343F0706201B12A430028DC
:1005400001DAE261F0BD6260F0BD10B58A0721F00A
:1005500003040F49130F21440F228C689A409443DF
:100560008C608A68984002438A6010BD0949DC317A
:100570000860704700080140000C01400010014075
:100580000014014000180140001C014000200140FF
:100590000000014000002042A548016841F001012F
:1005A00001604168A34A114041600168A24A1140BC
:1005B0000160016821F480210160416821F4FE019D
:1005C00041604FF41F018160704799490A6822F425
:1005D00080320A600A6822F480220A60B0F5803F07
:1005E00007D0B0F5802F03D1086840F4A020086040
:1005F0007047086840F48030F9E70246002053094C
:100600008B49012B0AD0022B0AD0496A02F01F0243
:10061000012393400B4200D0012070470968F5E7A1
:10062000096AF3E718B500204FF4A0640090312068
:10063000FFF7E3FF0099491C0091A14201D0002877
:10064000F5D03120FFF7D9FF002800D0012018BDD8
:1006500077490A6822F0F80242EAC0000860704751
:10066000764908607047724A5368084323F47C1344
:100670001843506070477149086670476C4A51686A
:1006800021F003010143516070476948406800F060
:100690000C007047664A516821F0F0010143516037
:1006A0007047634A516821F4E0610143516070472B
:1006B0005F494A6822F4605242EAC00048607047CD
:1006C0005B4A0029517A01D0014300E08143517215
:1006D00070475A49D83108607047554A516821F42B
:1006E00040410143516070475149002281F8202068
:1006F00081F82020012802D0042802D1052081F8A9
:10070000200070474E490860704749490A6A024311
:100710000A6270474A4944390860704730B5444915
:100720004A6812F00C03474A03D0042B01D0082B6F
:1007300022D002604A680F23434C03EA1212A35CE2
:100740000268DA4042604B68072505EA1323E35C40
:1007500022FA03F383604B6805EAD323E35C22FAB1
:1007600003F2C2604968032303EA9131231F595CF5
:10077000B2FBF1F1016130BD4A684B6802F47012BE
:100780004FF0020413F4803F04EB924202D04B6816
:100790009B0301D52D4B00E02A4B5A43C9E7244A5D
:1007A0000029516901D0014300E081435161704744
:1007B0001F4A0029916901D0014300E08143916102
:1007C00070471B4A0029D16901D0014300E08143F1
:1007D000D1617047164A0029D16801D0014300E079
:1007E0008143D1607047124A0029116901D0014349
:1007F00000E081431161704711494039086070473A
:100800000E49C86470470A49C87170470848416A70
:1008100041F0807141627047054A014600209268AC
:100820000A4200D0012070470149887270470000D9
:10083000001002400000FFF8FFFFF6FE00004242F9
:100840008004424200127A000400002000093D00AA
:10085000C64910B588420AD101218C032046FFF712
:10086000B9FF2046BDE810400021FFF7B3BFC049E3
:10087000884202D101214C0410E0BE49884202D1D5
:1008800001218C040AE0BC49884202D10121CC0438
:1008900004E0BA4988420AD101210C052046FFF73D
:1008A000A2FF2046BDE810400021FFF79CBF10BD0D
:1008B00030B50446008A85B00D464CF6FF710840FD
:1008C000E98801432182A1894EF6F3100140A888EE
:1008D0002A8910436A890A431043A081A08A4FF6EF
:1008E000FF410840A9890143A1826846FFF716FF2E
:1008F0009E48844201D1039800E00298A18909042E
:10090000002900EBC00101EB0010296802DA4FEA70
:10091000410101E04FEA8101B0FBF1F06422B0FB3C
:10092000F2F14FEA01114FEA11136FF018056B4312
:1009300000EB8300A3891D044FF0320306D503EBBF
:10094000C000B0FBF2F000F0070005E003EB001080
:10095000B0FBF2F000F00F000843208105B030BD7D
:100960004FF41651016000218180C18001810C2269
:1009700042818181704710B5038A4FF2FF02134014
:100980000A884C8822438C88C9880C4322431A4326
:10099000028210BD0021018041808180C1807047AA
:1009A0000029818902D041F4005101E021F4005175
:1009B0008181704710B5C1F3421301F01F0401217A
:1009C000A140012B07D0022B07D01430002A026867
:1009D00005D00A4304E00C30F8E71030F6E78A430C
:1009E000026010BD002A828A01D00A4300E08A43D7
:1009F00082827047028A22F00F020282028A0A4330
:100A000002827047828922F40062828182890A43CD
:100A1000828170470029818902D041F0020101E002
:100A200021F0020181817047028A22F020020282B5
:100A3000028A0A43028270470029018A02D041F4E7
:100A4000804101E021F4804101827047C1F3080137
:100A5000818070478088C0F308007047818941F029
:100A6000010181817047028BD2B20283028B42EA7C
:100A7000012101837047028B02F47F420283028BC3
:100A80000A43028370470029818A02D041F0200185
:100A900001E021F02001818270470029818A02D083
:100AA00041F0100101E021F010018182704700291E
:100AB000818A02D041F0080101E021F00801818221
:100AC00070470029818902D041F4004101E0C1F35F
:100AD0000E01818170470029818A02D041F40061B2
:100AE00001E021F4006181827047828A22F00402D1
:100AF0008282828A0A43828270470029818A02D0D8
:100B000041F0020101E021F00201818270470246BA
:100B1000002012880A4200D001207047C94301809A
:100B2000704730B501F01F0201240025C1F34213C4
:100B300004FA02F2012B0FD0022B0FD0838A4FEA66
:100B400011210088134204FA01F400EA040001D0E4
:100B500000B10125284630BD8389F0E7038AEEE71E
:100B60000A0A01219140C9430180704700380140C1
:100B70000044004000480040004C0040005000404D
:100B80000CB500214C4801910091026842F480327A
:100B900002604FF4A063026802F400320092019AEE
:100BA000521C0192009A12B9019A9A42F3D102683A
:100BB000920333D50121009140490A6842F01002A6
:100BC0000A600A6822F003020A600A6842F0020220
:100BD0000A604168416041684160416841F4806158
:100BE0004160416821F47C114160416841F4E811A1
:100BF0004160016841F08071016001688901FCD5A4
:100C0000416821F003014160416841F00201416007
:100C10004168C1F381010229FAD10CBD00910CBDDC
:100C2000254810B5016841F0010101604168244A7E
:100C3000114041600168234A11400160016821F4BC
:100C400080210160416821F4FE0141604FF41F01E1
:100C50008160FFF795FF1C494FF00060086010BDF0
:100C6000154910B54868194A10F00C03184803D00C
:100C7000042B01D0082B0BD002604968144AC1F341
:100C80000311121D515C026822FA01F2026010BDCC
:100C90004A684B6802F470124FF0020413F4803F6C
:100CA00004EB924202D04B689B0301D5094B00E054
:100CB000064B5A43E0E700000010024000200240CB
:100CC0000000FFF8FFFFF6FE08ED00E000127A00DA
:100CD0001400002000093D000648804706480047F0
:100CE000FEE7FEE7FEE7FEE7FEE7FEE7FEE7FEE7DC
:100CF000FEE7FEE7210C00083101000808B50121DC
:100D00000820FFF755FD01214020FFF751FD20206D
:100D1000ADF8000003208DF8020010208DF80300CC
:100D200069460448FFF75DFB69460348FFF759FB36
:100D300008BD0000000C0140001801401348144990
:100D40000068B0FBF1F0B0F1807F0DD220F07F4160
:100D50004FF0E020491E41610E4AF0211170002140
:100D60008161072101617047FEE701B50A480099DA
:100D7000016001680029FCD108BD0748016800290D
:100D800002D00168491E0160704700001400002075
:100D900040420F0023ED00E02800002038B501217B
:100DA0000820FFF705FD01210420FFF701FD0121C7
:100DB0004020FFF7FDFC1C20ADF8000001248DF859
:100DC000024048208DF8030069460748FFF709FBF9
:100DD000ADF800408DF8024028208DF803006946E8
:100DE0000248FFF7FEFA38BD001801400008014034
:100DF00008B501210820FFF7DBFC4FF48070ADF847
:100E0000000003208DF8020010208DF803006946D1
:100E10000148FFF7E6FA08BD000C0140064C074DFB
:100E200006E0E06840F0010394E8070098471034BA
:100E3000AC42F6D3FFF780F9F00E0008100F00085F
:100E4000014A024900F013B8150200082C000020E6
:100E500002E008C8121F08C1002AFAD17047704783
:100E6000002001E001C1121F002AFBD170472DE9CB
:100E7000F04116460F460446002503E03946B047C8
:100E80006D1C641C20780028F8D12846BDE8F0814C
:100E90000A0D5553415254205072696E74662045B4
:100EA00078616D706C653A20A3A8B5C2B7C9C0B3AC
:100EB000A3A9C4E1C4AA4D3353BFAAB7A2B0E5B4F5
:100EC000AEBFDAB2E2CAD4B3CCD0F20DCAE4C8EBFA
:100ED000C8CEBACED0C5CFA2B7A2CBCDA3ACBDD31E
:100EE000CAD5B5BDCDACD1F9D0C5CFA200000000A8
:100EF000100F00080000002030000000500E000815
:100F0000400F00083000002000040000600E0008C0
:100F100002040608000000000102030401020304A9
:100F20000607080900A24A040000000000000000B3
:100F30000102030406070809000000000000000089
:0400000508000131BD
:00000001FF
