:020000040800F2
:100000003804002009110008590200085B020008AA
:100010005D0200085F0200086102000800000000A5
:100020000000000000000000000000006302000863
:10003000650200080000000067020008690200086D
:1000400023110008231100082311000823110008C0
:1000500023110008231100082311000823110008B0
:1000600023110008231100082311000823110008A0
:100070002311000823110008231100082311000890
:100080002311000823110008231100082311000880
:100090002311000823110008231100082311000870
:1000A0002311000823110008231100082311000860
:1000B0002311000823110008231100082311000850
:1000C0002311000823110008231100082311000840
:1000D0002311000823110008231100082311000830
:1000E0002311000823110008231100082311000820
:1000F0002311000823110008231100082311000810
:1001000023110008231100082311000823110008FF
:1001100023110008231100082311000823110008EF
:1001200023110008231100082311000823110008DF
:10013000DFF80CD001F028FC00480047450100081A
:100140003804002000F0F2FF01F040F801F00EF852
:1001500001F066F84FF4165001F078F801F0CAF893
:100160001BA001F055FC274CDFF89C90274DDFF8D1
:10017000A0A0284E6FF00B074FF06638208801F0E2
:10018000B1F9394601F030F901F0B1F942464B4678
:1001900001F036F901F0BEF9286021881EA001F0B7
:1001A00037FC286801F0A3F902460B4622A001F0B3
:1001B0002FFC504600F0F1FF2021304600F089FB73
:1001C000C0F10100C2B22021304600F090FBD5E71B
:1001D0000A0D41444320546573743A20A3A8B5C264
:1001E000B7C9C0B3A3A9C4E1C4AA4D3353BFAAB7CA
:1001F000A2B0E5414443D7AABBBBB2E2CAD4B3CC58
:10020000D0F20D003000002066660A400000002099
:1002100020A10700001801400D0A20B2C9BCAFCAD6
:10022000FDD6B53136BDF8D6C6203D203078253014
:100230003458200D0A0000000D0A20D7AABBBBBA13
:10024000F3B5C4CAB5BCCAB5E7D1B9D6B5203D200F
:1002500025662056200D0A007047FEE7FEE7FEE700
:10026000FEE770477047704700F09FBFC54910B563
:10027000884202D1012144150AE0C349884202D1D3
:100280000121041504E0C14988420AD10121CC03AF
:10029000204600F0B7FC2046BDE81040002100F0E9
:1002A000B1BC10BD10B54268B94B0C791A400B684F
:1002B00042EA0422134343608368B64A1340D1E9FB
:1002C000024222434C7943EA44031A438260C26AE1
:1002D000097C22F47002491EC9B242EA0151C1628E
:1002E00010BD00210160017141718160C160012177
:1002F000017470470029816802D041F0010101E0DA
:1003000021F00101816070470029816802D041F429
:10031000807101E021F4807181607047002A426899
:10032000C9B201D00A4300E08A4342607047816845
:1003300041F0080181607047014600208968090783
:1003400000D501207047816841F004018160704749
:10035000014600208968490700D50120704700291F
:10036000816802D041F4A00101E021F4A001816084
:100370007047014600208968490200D50120704776
:100380004268491E22F4604242EA413141607047AE
:100390000029416802D041F4006101E021F40061CC
:1003A0004160704770B5072409290AD9C568A1F1D1
:1003B0000A0606EB4606B440A543B3401D43C5609C
:1003C00007E0056901EB4106B440A543B3401D4376
:1003D00005611F23072A09D2446B521E02EB8202D9
:1003E00093409C4391400C43446370BD0D2A09D255
:1003F000046BD21F02EB820293409C4391400C435A
:10040000046370BDC46A0D3A02EB820293409C43C0
:1004100091400C43C46270BD0029816802D041F450
:10042000801101E021F4801181607047C06C80B2BE
:10043000704754484C30006870470029416802D02A
:1004400041F4806101E021F480614160704700293E
:10045000416802D041F4805101E021F480514160B3
:100460007047826822F4E0420A43826070470029A4
:10047000816802D041F4004101E021F40041816033
:1004800070470029816802D041F4021101E021F493
:10049000021181607047014600208968890200D5F9
:1004A0000120704770B5072409290AD9C568A1F150
:1004B0000A0606EB4606B440A543B3401D43C5609B
:1004C00007E0056901EB4106B440A543B3401D4375
:1004D0000561836BC3F30154121B921C02EB82046F
:1004E0001F22A2409343A1400B43836370BD826BE4
:1004F000491E22F4401242EA01518163704708B557
:1005000008440090026008BD08B5084428300090F7
:10051000006880B208BD42681F4B1A400A4342601F
:100520007047416282627047426822F01F020A43AC
:1005300042607047134908310028086802D040F42F
:10054000000001E020F4000008607047024600202F
:1005500012680A4200D001207047C9430160704709
:1005600010B50246002054680B0AC9B20C4011684D
:10057000194202D0002C00D0012010BD6FEA1121D9
:10058000016070470024014000280140003C014008
:10059000FFFEF0FFFDF7F1FFFFFD3FFF01684FF6A3
:1005A000FE72114001600021016041608160C16004
:1005B0006A496A4A0839904203D1486840F00F00FE
:1005C00006E0664A1432904204D1486840F0F000D8
:1005D00048607047614A2832904203D1486840F42D
:1005E0007060F5E75D4A3C32904203D1486840F4C0
:1005F0007040EDE7594A5032904203D1486840F4C8
:100600007020E5E7554A6432904203D1486840F4CF
:100610007000DDE7514A7832904203D1486840F0DB
:100620007060D5E74E4A111F904203D1086840F030
:100630000F0006E04A4A1432904204D1086840F0A4
:10064000F00008607047464A2832904203D108689B
:1006500040F47060F5E7424A3C32904203D10868AA
:1006600040F47040EDE73E4A50329042EAD10868CB
:1006700040F47020E5E730B5036847F6F072934325
:100680000C6A8A682243D1E904452C4322438C69D1
:100690002243CC6922434C6A22438C6A22431A4388
:1006A0000260CA6842600A6882604968C16030BD01
:1006B0000021016041608160C1600161416181612F
:1006C000C16101624162816270470029016802D004
:1006D00041F0010102E04FF6FE72114001607047E7
:1006E000002A026801D00A4300E08A430260704792
:1006F00041607047406880B2704701460020CA00E0
:1007000002D5174A083A01E0144A083A12680A4228
:1007100000D001207047C10003D51149091F0860AE
:1007200070470E4908394860704701460020CA00EA
:1007300002D50B4A083A01E0084A083A12680A4210
:1007400000D001207047C10003D50549091F08608A
:1007500070470249083948607047000008000240AD
:10076000080402408F4910B5884206D101210420B7
:1007700000F048FA002104203BE08B49884206D172
:100780000121082000F03EFA0021082031E08749CD
:10079000884206D10121102000F034FA00211020F7
:1007A00027E08349884206D10121202000F02AFA5F
:1007B000002120201DE07F49884206D101214020F0
:1007C00000F020FA0021402013E07B49884206D146
:1007D0000121802000F016FA0021802009E07749ED
:1007E00088420AD184150121204600F00BFA00212D
:1007F0002046BDE8104000F005BA10BD10B501213B
:10080000084600F0FFF90021BDE81040012000F08B
:10081000F9B9F0B5CA78002502F00F03D20601D568
:100820008A7813430C784FF00F0E0122E4B104686C
:100830000F8802FA05F63740B74211D14FEA850C0E
:100840000EFA0CF724EA070703FA0CF43C43CF78BE
:10085000282F02D0482F02D002E0466100E0066156
:100860006D1C082DE4D304600C88FF2C1ED944684D
:100870005FF0000606F1080702FA07F50F882F401F
:10088000AF420FD14FEA860C0EFA0CF7BC4303FAC5
:100890000CF73C43CF78282F00D14561CF78482F03
:1008A00000D10561761C082EE4D34460F0BD4FF6FC
:1008B000FF710180022181700421C17070470246DE
:1008C000002092680A4200D001207047806880B200
:1008D000704702460020D2680A4200D001207047CB
:1008E000C06880B2704701617047416170470AB1CA
:1008F0000161704741617047C160704741F48032C7
:100900008261816182618169806970472C4B10B579
:100910001A684FF68074224042EA001008431860BB
:1009200010BD2849C8617047F0B5254C002801DA90
:10093000E36900E06368420D120185B2C0F301571C
:100940009540C0F30346032F05D0C2020AD5032207
:10095000B240934307E023F07062636823F0706352
:10096000636002E0AB4343F0706201B12A430028A8
:1009700001DAE261F0BD6260F0BD10B58A0721F0D6
:1009800003040F49130F21440F228C689A409443AB
:100990008C608A68984002438A6010BD0949DC3146
:1009A0000860704700080140000C01400010014041
:1009B0000014014000180140001C014000200140CB
:1009C0000000014000002042A548016841F00101FB
:1009D00001604168A34A114041600168A24A114088
:1009E0000160016821F480210160416821F4FE0169
:1009F00041604FF41F018160704799490A6822F4F1
:100A000080320A600A6822F480220A60B0F5803FD2
:100A100007D0B0F5802F03D1086840F4A02008600B
:100A20007047086840F48030F9E702460020530917
:100A30008B49012B0AD0022B0AD0496A02F01F020F
:100A4000012393400B4200D0012070470968F5E76D
:100A5000096AF3E718B500204FF4A0640090312034
:100A6000FFF7E3FF0099491C0091A14201D0002843
:100A7000F5D03120FFF7D9FF002800D0012018BDA4
:100A800077490A6822F0F80242EAC000086070471D
:100A9000764908607047724A5368084323F47C1310
:100AA0001843506070477149086670476C4A516836
:100AB00021F003010143516070476948406800F02C
:100AC0000C007047664A516821F0F0010143516003
:100AD0007047634A516821F4E061014351607047F7
:100AE0005F494A6822F4605242EAC0004860704799
:100AF0005B4A0029517A01D0014300E081435172E1
:100B000070475A49D83108607047554A516821F4F6
:100B100040410143516070475149002281F8202033
:100B200081F82020012802D0042802D1052081F874
:100B3000200070474E490860704749490A6A0243DD
:100B40000A6270474A4944390860704730B54449E1
:100B50004A6812F00C03474A03D0042B01D0082B3B
:100B600022D002604A680F23434C03EA1212A35CAE
:100B70000268DA4042604B68072505EA1323E35C0C
:100B800022FA03F383604B6805EAD323E35C22FA7D
:100B900003F2C2604968032303EA9131231F595CC1
:100BA000B2FBF1F1016130BD4A684B6802F470128A
:100BB0004FF0020413F4803F04EB924202D04B68E2
:100BC0009B0301D52D4B00E02A4B5A43C9E7244A29
:100BD0000029516901D0014300E081435161704710
:100BE0001F4A0029916901D0014300E081439161CE
:100BF00070471B4A0029D16901D0014300E08143BD
:100C0000D1617047164A0029D16801D0014300E044
:100C10008143D1607047124A0029116901D0014314
:100C200000E0814311617047114940390860704705
:100C30000E49C86470470A49C87170470848416A3C
:100C400041F0807141627047054A01460020926878
:100C50000A4200D0012070470149887270470000A5
:100C6000001002400000FFF8FFFFF6FE00004242C5
:100C70008004424200127A000800002000093D0072
:100C8000C64910B588420AD101218C032046FFF7DE
:100C9000B9FF2046BDE810400021FFF7B3BFC049AF
:100CA000884202D101214C0410E0BE49884202D1A1
:100CB00001218C040AE0BC49884202D10121CC0404
:100CC00004E0BA4988420AD101210C052046FFF709
:100CD000A2FF2046BDE810400021FFF79CBF10BDD9
:100CE00030B50446008A85B00D464CF6FF710840C9
:100CF000E98801432182A1894EF6F3100140A888BA
:100D00002A8910436A890A431043A081A08A4FF6BA
:100D1000FF410840A9890143A1826846FFF716FFF9
:100D20009E48844201D1039800E00298A1890904F9
:100D3000002900EBC00101EB0010296802DA4FEA3C
:100D4000410101E04FEA8101B0FBF1F06422B0FB08
:100D5000F2F14FEA01114FEA11136FF018056B43DE
:100D600000EB8300A3891D044FF0320306D503EB8B
:100D7000C000B0FBF2F000F0070005E003EB00104C
:100D8000B0FBF2F000F00F000843208105B030BD49
:100D90004FF41651016000218180C18001810C2235
:100DA00042818181704710B5038A4FF2FF021340E0
:100DB0000A884C8822438C88C9880C4322431A43F2
:100DC000028210BD0021018041808180C180704776
:100DD0000029818902D041F4005101E021F4005141
:100DE0008181704710B5C1F3421301F01F04012146
:100DF000A140012B07D0022B07D01430002A026833
:100E000005D00A4304E00C30F8E71030F6E78A43D7
:100E1000026010BD002A828A01D00A4300E08A43A2
:100E200082827047028A22F00F020282028A0A43FB
:100E300002827047828922F40062828182890A4399
:100E4000828170470029818902D041F0020101E0CE
:100E500021F0020181817047028A22F02002028281
:100E6000028A0A43028270470029018A02D041F4B3
:100E7000804101E021F4804101827047C1F3080103
:100E8000818070478088C0F308007047818941F0F5
:100E9000010181817047028BD2B20283028B42EA48
:100EA000012101837047028B02F47F420283028B8F
:100EB0000A43028370470029818A02D041F0200151
:100EC00001E021F02001818270470029818A02D04F
:100ED00041F0100101E021F01001818270470029EA
:100EE000818A02D041F0080101E021F008018182ED
:100EF00070470029818902D041F4004101E0C1F32B
:100F00000E01818170470029818A02D041F400617D
:100F100001E021F4006181827047828A22F004029C
:100F20008282828A0A43828270470029818A02D0A3
:100F300041F0020101E021F0020181827047024686
:100F4000002012880A4200D001207047C943018066
:100F5000704730B501F01F0201240025C1F3421390
:100F600004FA02F2012B0FD0022B0FD0838A4FEA32
:100F700011210088134204FA01F400EA040001D0B0
:100F800000B10125284630BD8389F0E7038AEEE7EA
:100F90000A0A01219140C94301807047003801408D
:100FA0000044004000480040004C00400050004019
:100FB0000CB500214C4801910091026842F4803246
:100FC00002604FF4A063026802F400320092019ABA
:100FD000521C0192009A12B9019A9A42F3D1026806
:100FE000920333D50121009140490A6842F0100272
:100FF0000A600A6822F003020A600A6842F00202EC
:101000000A604168416041684160416841F4806123
:101010004160416821F47C114160416841F4E8116C
:101020004160016841F08071016001688901FCD56F
:10103000416821F003014160416841F002014160D3
:101040004168C1F381010229FAD10CBD00910CBDA8
:10105000254810B5016841F0010101604168244A4A
:10106000114041600168234A11400160016821F488
:1010700080210160416821F4FE0141604FF41F01AD
:101080008160FFF795FF1C494FF00060086010BDBC
:10109000154910B54868194A10F00C03184803D0D8
:1010A000042B01D0082B0BD002604968144AC1F30D
:1010B0000311121D515C026822FA01F2026010BD98
:1010C0004A684B6802F470124FF0020413F4803F38
:1010D00004EB924202D04B689B0301D5094B00E020
:1010E000064B5A43E0E70000001002400020024097
:1010F0000000FFF8FFFFF6FE08ED00E000127A00A6
:101100001800002000093D000648804706480047B7
:10111000FEE7FEE7FEE7FEE7FEE7FEE7FEE7FEE7A7
:10112000FEE7FEE7511000083101000808B5012173
:101130000820FFF755FD01214020FFF751FD202039
:10114000ADF8000003208DF8020010208DF8030098
:1011500069460448FFF75DFB69460348FFF759FB02
:1011600008BD0000000C014000180140134814495C
:101170000068B0FBF1F0B0F1807F0DD220F07F412C
:101180004FF0E020491E41610E4AF021117000210C
:101190008161072101617047FEE701B50A480099A6
:1011A000016001680029FCD108BD074801680029D9
:1011B00002D00168491E016070470000180000203D
:1011C00040420F0023ED00E02C00002038B5012143
:1011D0000820FFF705FD01210420FFF701FD012193
:1011E0004020FFF7FDFC1C20ADF8000001248DF825
:1011F000024048208DF8030069460748FFF709FBC5
:10120000ADF800408DF8024028208DF803006946B3
:101210000248FFF7FEFA38BD0018014000080140FF
:1012200008B501210820FFF7DBFC4FF48070ADF812
:10123000000003208DF8020010208DF8030069469D
:101240000148FFF7E6FA08BD000C014070B50446FE
:1012500086B0012144F20400FFF7C2FC234D28466A
:10126000FFF70EFD6815ADF8100003208DF8120091
:1012700018201F4E8DF8130004A93046FFF7C9FA55
:101280002815ADF8100004208DF8130004A930468D
:10129000FFF7BFFA0020ADF80400ADF80600ADF886
:1012A0000800ADF80C000C20ADF80A000094694667
:1012B0002846FFF715FD012240F225512846FFF789
:1012C00091FD01212846FFF783FD06B070BD70B582
:1012D000064D0446C1B22846FFF7D0FD40212846FE
:1012E000FFF72DFE0028F9D0204670BD00380140E0
:1012F0000008014008B501210846FFF768FC0121FC
:101300004FF40470FFF76CFC0220ADF800000020E1
:101310008DF8030069463048FFF77BFABDE80840C6
:10132000AFF3008070B52D4E90B03046FFF736F920
:101330002B4800902B4801A90024012531C1280227
:101340000494CDE905408000079020200890000219
:10135000CDE9090469463046FFF78DF90121304691
:10136000FFF7B3F98DF830400B948DF831504FF4FE
:101370006020CDE90D041A4C8DF83C504C3C0BA973
:101380002046FEF78FFF4FF44040FFF7BEFB0523DA
:1013900001220B212046FFF705F801212046FEF728
:1013A000B3FF01212046FEF7A5FF2046FEF7BFFF51
:1013B0002046FEF7C1FF0028FAD12046FEF7C3FF02
:1013C0002046FEF7C5FF0028FAD101212046FEF78E
:1013D000C6FF10B070BD00000010014008000240C0
:1013E0004C24014030000020420005D0C0F3C75219
:1013F0005242914201DC0020704700EBC15070471F
:101400002DE9FE4F81EA030404F0004421F000417D
:1014100000944FF0000B23F0004350EA010402D087
:1014200052EA030404D10020014603B0BDE8F08F66
:10143000C3F30A54C1F30A552C44A4F2F3340194C3
:10144000A0FB0254C1F3130141F48011C3F3130351
:1014500043F4801301FB024400FB034E840A970A05
:1014600044EA815447EA8357A4FB076802958D0A32
:1014700005FB07854FEA932C04FB0C542705029DBE
:101480004FEA065847EA1637B5EB08056EEB070C2E
:10149000870E920E47EA811742EA8312A7FB0201E8
:1014A000B6EB0B0164EB00042B0D43EA0C335E1822
:1014B00044EB1C50DA465146E7FB0201C5F3130426
:1014C0004FEA0B3343EA14534FEA0432019C43EAD8
:1014D0000603A4F10C040294009CCDE900B400F0D2
:1014E000BFF8A2E796230022114600F07FB800F073
:1014F000004230F000400AD0C10D01F56071C0F328
:10150000160042EA0151C20840071143704700200B
:101510000146704701F0004330B421F0004150EA29
:10152000010206D00A0DA2F56072C1F31301002A70
:1015300002DC30BC00207047440F44EAC104C10003
:10154000E01830BC00EBC25000F047B830B50B4695
:10155000014600202022012409E021FA02F59D42E3
:1015600005D303FA02F5491B04FA02F52844151EB7
:10157000A2F10102F1DC30BD2DE9F05F054600204B
:1015800092469B4688460646814640241BE02846F4
:1015900041464746224600F018FA53465A46C01ABA
:1015A000914110D311461846224600F0FFF92D1A3A
:1015B00067EB01084F4622460120002100F0F6F9B2
:1015C00017EB00094E41201EA4F10104DFDC484660
:1015D00031462A464346BDE8F09F0029A8BF704720
:1015E000401C490008BF20F00100704710B4B0FA59
:1015F00080FC00FA0CF050EA010404BF10BC7047F4
:1016000049B1CCF1200421FA04F411FA0CF118BF0D
:10161000012121430843A3EB0C01CB1D0106000A65
:10162000002BBEBF002010BC704700EBC35010441D
:101630000029A4BF10BC7047401C490008BF20F01F
:10164000010010BC704710B5002B08DA401C41F1B6
:10165000000192185B411A4301D120F0010010BD36
:101660002DE9F04D92469B4611B1B1FA81F202E0AC
:10167000B0FA80F22032904600F098F904460F4606
:1016800040EA0A0041EA0B0153465A46084303D197
:1016900020463946BDE8F08D114653EA010015D0C9
:1016A000C8F14002504600F090F905460E465046FB
:1016B0005946424600F07AF9084301D0012000E083
:1016C0000020054346EAE0762C4337430A984FEA68
:1016D0004453A0EB08004FEAD4240A304FF0000234
:1016E00044EA47544FEAD72502D500200146D1E706
:1016F000010510196941DDE9084500196941BDE896
:10170000F04DA0E72DE9FE4F804681EA0300C00FAF
:101710000C46009021F0004123F00045B8EB020098
:10172000A94105D24046214690461C460B4602463A
:1017300023F00040104304D14046214603B0BDE8E9
:10174000F08F270DC7F30A00C3F30A510290401A25
:101750000190402866DAC3F3130040F4801B009820
:10176000924620B10023D2EB030A63EB0B0B0198E6
:101770005946C0F14002504600F018F906460D46A1
:1017800050465946019A00F030F910EB08006141CB
:10179000002487EA115284EAE7731A433BD0009A87
:1017A0003AB3019A012A4FEA075210DC001B61EBA1
:1017B00002014FF0004202EA0752CDE90042001C4C
:1017C00041F5801132462B46FFF74AFFB6E7001B72
:1017D00061EB0201001C41F5801300185B412018E9
:1017E000A2F5001747EB030140EAD570B6196D4129
:1017F00011E06D084FEA360645EAC0754FEA075218
:10180000001B61EB0201001C41F5801149084FEA01
:1018100030000019514132462B4603B0BDE8F04F6D
:10182000FFF711BF0098012240000023D0EB020215
:1018300063EBE073009821464FEAE074B8EB0000D8
:1018400061EB0401E9E783F000435BE781F00041CD
:1018500058E72DE9F04D81EA030404F0004B21F034
:10186000004514464FF0000A23F0004150EA0502FB
:1018700020D054EA01021DD0C5F30A570246C5F331
:101880001303C1F31300C1F30A5640F4801543F467
:101890008013A7EB0608101BD64608F2FD3873EB41
:1018A000050002D308F1010801E092185B41B8F18C
:1018B000000F03DA00200146BDE8F08D00204FF450
:1018C0008011064684460EE0171B73EB050705D30F
:1018D000121B63EB050306434CEA010C49084FEA6F
:1018E000300092185B4150EA0107EDD152EA030043
:1018F00012D082EA040083EA0501084303D10022E2
:101900004FF0004308E0101BAB4102D2012200233C
:1019100002E06FF0010253101AEB06004CEB085185
:1019200010EB0A0041EB0B01BDE8F04DFFF78BBE59
:10193000C1F30A52C1F3130140F2FF3341F48011A5
:101940009A4202DA00200146704740F233439A423D
:10195000A2F2334202DC524200F037B800F026B85F
:1019600030B5002904DB4FF00044404264EB010134
:10197000002B04DB4FF00044524264EB0303994216
:1019800008BF904230BD0000064C074D06E0E068FD
:1019900040F0010394E8070098471034AC42F6D3B6
:1019A000FEF7CAFBF422000814230008202A04DBF7
:1019B000203A00FA02F1002070479140C2F1200362
:1019C00020FA03F3194390407047202A04DB203AA1
:1019D00021FA02F00021704721FA02F3D040C2F14F
:1019E00020029140084319467047202A06DBCB1796
:1019F000203A41FA02F043EAE07306E041FA02F3CA
:101A0000D040C2F1200291400843194670470000BF
:101A10000FB4054B10B503A9044A029800F0C6F8AC
:101A200010BC5DF814FB0000CF1200083400002049
:101A300002E008C8121F08C1002AFAD17047704797
:101A4000002001E001C1121F002AFBD170470000F5
:101A50002DE9FF5FDDE90220010DDDF838B002431A
:101A600010D10F9801244CA2012808D00021009821
:101A70000F9BC0E90021C0E90243BDE8FF9F6FEA68
:101A80000B01F4E7A1F2FF3144F6105041430D146D
:101A90000F9801280ED0A5EB0B00401C4FF000045E
:101AA0003E4EDFF8FC90B0F1000AA04605DACAF11C
:101AB000000717E0CBF10000F0E7074612E0F80757
:101AC00007D02246334640464946FFF799FC8046F8
:101AD00089462246334610461946FFF791FC0446D4
:101AE0000E467F10002FEAD1DDE90201BAF1000FA6
:101AF00042464B4602DAFFF783FC01E0FFF7A9FEFE
:101B000004460E460022274BFFF72AFF03D84FF06A
:101B1000FF30014607E00022234B20463146FFF705
:101B2000F1FDFFF705FF102409E0002C0ADB0A2273
:101B30000023FFF721FD019B30321A55641E50EA45
:101B40000102F2D1641C019AC4F1110314440F9AEA
:101B5000012A09D00122084301D15B450FDD4FF076
:101B6000000205F101050DE0084303D1A3EB0B05CD
:101B70006D1E09E000204FF0110B0F9088E701DA8D
:101B800000226D1E002A83D000980F99C0E902310F
:101B9000C0E9004571E7000030000000000024406B
:101BA0000000F03F0000F0430000E03F2DE9FF4F50
:101BB00095B09B4689460646002512E2252878D135
:101BC0000024761CF94A2746012105943378203BEE
:101BD00001FA03F0104202D00443761CF6E7307895
:101BE0002A2811D06FF02F033078A0F13002092A93
:101BF00016D8059A44F0020402EB820203EB42027B
:101C00001044761C0590EFE759F8042B0592002A42
:101C100003DA504244F40054059044F00204761C68
:101C200030782E2816D116F8010F44F004042A2823
:101C30000DD06FF02F023078A0F13003092B09D8B6
:101C400007EB870302EB4303C718761CF3E759F849
:101C5000047B761C30786C280FD006DC4C2817D01B
:101C600068280DD06A2814D104E0742810D07A288E
:101C70000FD10DE044F400140AE044F4801401E0B4
:101C800044F440147278824202D1761C04F5801428
:101C9000761C307866280BD013DC582877D009DC06
:101CA000002875D04528F6D04628F4D047281AD108
:101CB0009FE118E0632835D0642879D0652812D1D7
:101CC00097E1702873D008DC6728F1D069286FD0BD
:101CD0006E280DD06F2806D1B5E073282CD075285A
:101CE00075D0782874D05A46179990476D1C76E1C4
:101CF000C4F30250022809D003280DD0D9F80010EF
:101D000004280DD00D6009F1040968E1D9F800102C
:101D1000EA17C1E90052F6E7D9F800100D80F2E7A2
:101D20000D70F0E719F8041B8DF8001000208DF8F5
:101D30000100EA46012003E059F804AB4FF0FF3000
:101D400061074FF0000102D40DE008F1010188465F
:101D5000B9420FDA8045F8DB1AF808100029F4D1EF
:101D600008E008F1010188468142FADB1AF8081000
:101D70000029F6D105985B46A0EB080721463846B6
:101D8000179A00F09EFA284400EB080507E04DE0A2
:101D90002BE10DE01AF8010B5A4617999047B8F15C
:101DA0000108F7D25B4621463846179A14E142E013
:101DB0000A220092C4F302524FF0000A022A08D00D
:101DC00059F804CB032A4FEAEC710AD00DE029E060
:101DD0002AE009F1070121F00702F2E802C1914669
:101DE00009E00FFA8CFC4FEAEC71042A03D14FFA98
:101DF0008CFC4FEAEC71002907DA0A460021DCF17D
:101E0000000C61EB02012D2202E0220504D52B22F9
:101E10008DF80420012203E0E20701D02022F7E739
:101E2000904653E00A2102E010220DE010214FF00D
:101E3000000A00910BE010224FF0000A44F0040465
:101E40000827009203E008224FF0000A0092C4F332
:101E50000252022A05D059F804CB0021032A08D0E7
:101E600009E009F1070121F00702F2E802C19146F9
:101E700005E01FFA8CFC042A01D10CF0FF0C4FF096
:101E80000008220722D5702827D0009B83F010037A
:101E900053EA0A0309D15CEA010206D030228DF828
:101EA00004208DF8050002229046009B83F0080371
:101EB00053EA0A030AD15CEA010201D1620705D59F
:101EC00030228DF804204FF001087F1E582809D0D9
:101ED00037A003900EA8029013E040228DF8042052
:101EE0000122E1E737A0F4E753466046009AFFF786
:101EF00043FB84460398825C0298A0F101000290A3
:101F000002705CEA0100EFD1029806A9A1EB000083
:101F100000F1200A600702D524F4803400E0012794
:101F2000574502DDA7EB0A0000E0002000EB0A01A4
:101F3000009005984144A0EB01000590E00306D411
:101F40005B462146179A059800F0BBF90544002727
:101F500006E001A85A46C05D179990476D1C7F1C8A
:101F60004745F6DBE0030CD55B462146179A0598FA
:101F700000F0A7F9054404E030205A46179990472D
:101F80006D1C0099481E00900029F5DC08E00298BD
:101F900002995A460078491C0291179990476D1C86
:101FA000BAF10001AAF1010AF1DC6BE10928010094
:101FB00030313233343536373839616263646566BF
:101FC0000000000030313233343536373839414281
:101FD000434445460000000000F060F9054406F166
:101FE0000106307800287FF4E9AD19B02846BDE835
:101FF000F08F620700D4062709F1070222F0070CD0
:10200000FCE80223E14603F000485FEA080C02D036
:102010000FF27C2C0DE05FEA045C02D50FF2742C09
:1020200007E05FEAC47C02D00FF26C2C01E0AFF253
:10203000700C4FF0FF3823F00043CDF850C06528F6
:102040000CD006DC452809D046281DD047283ED1B3
:102050003EE0662818D0672839D139E00021112FD9
:1020600001DB112000E0781CCDE9000106A90EA8D3
:10207000FFF7EEFCDDE90F010E9A039100210092BB
:1020800007F1010A04914EE04FF000400097CDE9BE
:10209000011006A90EA8FFF7DBFCDDE90F02039291
:1020A0000E9B11990022DDF80CA00093049219B93F
:1020B00007F1010100EB010AB7EB0A0004D4C0F1FB
:1020C000FF3007F1010A0490AAEB0700019046E0F7
:1020D000012F00DA01270021112F01DD112000E07E
:1020E0003846CDE9000106A90EA8FFF7B1FCDDE9ED
:1020F0000F010E9A0391002104910092BA46210724
:102100000CD40399514500DA8A46BAF1010F05DD76
:10211000009AAAF10101515C302908D0B84202DAD4
:1021200010F1040F06DA0121CDE9011017E0AAF140
:102130000101E9E7002805DC049901440491AAEBB8
:10214000000102E0411C514500DD8A460499A0EBE4
:10215000010000F1010001904FF0004002902007C3
:1021600004D40198504501DBCDF8048000208DF89F
:102170004F0002980DF14F07B0F1004F25D02B20F2
:102180000E9002984FF0020800280CDA40420290AC
:102190002D200E9007E00A210298FFF7D7F9303181
:1021A000029007F8011DB8F10001A8F10108F2DC66
:1021B00002980028EFD1791E0E980870307800F050
:1021C000200040F0450007F8020D12A8A0EB070020
:1021D00000F107081498007800B1012000EB0A0113
:1021E000019801EBE07105984144A0EB0100A0F1DA
:1021F00001000590E00306D45B462146179A059836
:1022000000F05FF805441498007820B15A461799F9
:10221000904705F10105E00323D55B462146179A57
:10222000059800F04EF805441BE00498002807DBF1
:10223000DDE90301884203DD0098405C179901E065
:10224000179930205A46904704986D1C401C049002
:102250000198401E019004D12E205A4617999047AC
:102260006D1CBAF10001AAF1010ADEDC05E017F8E5
:10227000010B5A46179990476D1CB8F10001A8F15F
:102280000108F4DC5B462146179A0598A4E6000095
:102290002D0000002B000000200000002DE9F0417F
:1022A000044600251E461746880405D406E0394634
:1022B0002020B04705F10105641EF8D52846BDE889
:1022C000F0812DE9F041044600251E469046C803E2
:1022D00001D5302700E02027880405D506E04146D7
:1022E0003846B04705F10105641EF8D52846BDE81B
:1022F000F0810000142300080000002038000000D6
:10230000301A00084C2300083800002000040000A8
:10231000401A000800000000020406080000000047
:1023200001020304010203040607080900A24A048B
:102330000000000000000000010203040607080975
:0C23400000000000000000000000000091
:0400000508000131BD
:00000001FF
