:020000040800F2
:1000000090060020B91400088D0200088F02000835
:100010009102000893020008950200080000000009
:10002000000000000000000000000000970200082F
:1000300099020008000000009B0200089D020008D1
:10004000D3140008D3140008D3140008D3140008F4
:10005000D3140008D3140008D3140008D3140008E4
:10006000D3140008D3140008D3140008D3140008D4
:10007000D3140008D3140008D3140008D3140008C4
:10008000D3140008D3140008D3140008D3140008B4
:10009000D3140008D3140008D3140008D3140008A4
:1000A000D3140008D3140008D3140008D314000894
:1000B00007020008D3140008D3140008D314000862
:1000C000D3140008D3140008D3140008D314000874
:1000D000D3140008D3140008D3140008D314000864
:1000E000D3140008D3140008D3140008D314000854
:1000F000D3140008D3140008D3140008D314000844
:10010000D3140008D3140008D3140008D314000833
:10011000D3140008D3140008D3140008D314000823
:10012000D3140008D3140008D3140008D314000813
:1001300000F002F800F03AF80AA090E8000C8244BF
:100140008344AAF10107DA4501D100F02FF8AFF29C
:10015000090EBAE80F0013F0010F18BFFB1A43F0A5
:100160000103184788150000A8150000103A24BFA5
:1001700078C878C1FAD8520724BF30C830C144BF0C
:1001800004680C607047000000230024002500264E
:10019000103A28BF78C1FBD8520728BF30C148BFEA
:1001A0000B6070471FB51FBD10B510BD01F067FA99
:1001B0001146FFF7F7FF00F009F801F085FA03B4E4
:1001C000FFF7F2FF03BC01F089FA000001F094F997
:1001D00001F0E2F901F0B0F901F038FA4FF47A7069
:1001E00001F004FA254D264C284601F0BCF92021E7
:1001F000204600F064F9C0F10100C2B2202120467F
:1002000000F06BF9F0E770B501218C07204601F092
:1002100098F800282FD00121204601F09EF8194CB3
:10022000194D4FF48071207858B10E46284600F0E1
:1002300046F9C0F10100C2B23146284600F04DF93E
:1002400002E0284600F047F96078401CC0B26070B8
:10025000142810D1207878B1002020702021284661
:1002600000F02DF9C0F10100C2B22021284600F0B3
:1002700034F90020607070BD0120EEE790D00300DB
:100280000018014000000020000C01407047FEE70C
:10029000FEE7FEE7FEE770477047704701F06BB975
:1002A00027490843274908607047F0B50F21C478F3
:1002B000027801234FF0E026DCB1224C2468457817
:1002C00004F4E064C4F5E064240AC4F10407E140E6
:1002D0008478BD400C402C4321011B4C1155007803
:1002E00000F01F018B40400906EB8000C0F8003190
:1002F000F0BD02F01F008340500906EB8000C0F8FB
:100300008031F0BD114A114001430E48001F0160C9
:1003100070470C4A121D0029116801D0014300E00A
:100320008143116070474FF0E0210428086903D031
:1003300020F004000861704740F00400FAE7000074
:100340000000FA050CED00E000E400E080FFFF1F74
:100350008F4910B5884206D10121042000F048FAE7
:10036000002104203BE08B49884206D1012108206E
:1003700000F03EFA0021082031E08749884206D18A
:100380000121102000F034FA0021102027E08349D9
:10039000884206D10121202000F02AFA00212020E5
:1003A0001DE07F49884206D10121402000F020FA5B
:1003B0000021402013E07B49884206D101218020A2
:1003C00000F016FA0021802009E0774988420AD11E
:1003D00084150121204600F00BFA00212046BDE8DB
:1003E000104000F005BA10BD10B50121084600F01C
:1003F000FFF90021BDE81040012000F0F9B9F0B587
:10040000CA78002502F00F03D20601D58A7813437B
:100410000C784FF00F0E0122E4B104680F8802FA45
:1004200005F63740B74211D14FEA850C0EFA0CF7AA
:1004300024EA070703FA0CF43C43CF78282F02D0B4
:10044000482F02D002E0466100E006616D1C082DD5
:10045000E4D304600C88FF2C1ED944685FF00006CA
:1004600006F1080702FA07F50F882F40AF420FD1B7
:100470004FEA860C0EFA0CF7BC4303FA0CF73C4328
:10048000CF78282F00D14561CF78482F00D1056162
:10049000761C082EE4D34460F0BD4FF6FF71018056
:1004A000022181700421C1707047024600209268C9
:1004B0000A4200D001207047806880B2704702462F
:1004C0000020D2680A4200D001207047C06880B284
:1004D000704701617047416170470AB1016170471F
:1004E00041617047C160704741F48032826181612F
:1004F00082618169806970472C4B10B51A684FF68C
:100500008074224042EA00100843186010BD284958
:10051000C8617047F0B5254C002801DAE36900E0B6
:100520006368420D120185B2C0F301579540C0F3D4
:100530000346032F05D0C2020AD50322B2409343DB
:1005400007E023F07062636823F07063636002E089
:10055000AB4343F0706201B12A43002801DAE26143
:10056000F0BD6260F0BD10B58A0721F003040F49A9
:10057000130F21440F228C689A4094438C608A6840
:10058000984002438A6010BD0949DC310860704719
:1005900000080140000C014000100140001401401F
:1005A00000180140001C01400020014000000140F3
:1005B00000002042A548016841F001010160416846
:1005C000A34A114041600168A24A114001600168DC
:1005D00021F480210160416821F4FE0141604FF463
:1005E0001F018160704799490A6822F480320A60CD
:1005F0000A6822F480220A60B0F5803F07D0B0F587
:10060000802F03D1086840F4A02008607047086874
:1006100040F48030F9E70246002053098B49012B52
:100620000AD0022B0AD0496A02F01F02012393402C
:100630000B4200D0012070470968F5E7096AF3E72B
:1006400018B500204FF4A06400903120FFF7E3FFBD
:100650000099491C0091A14201D00028F5D0312019
:10066000FFF7D9FF002800D0012018BD77490A689C
:1006700022F0F80242EAC00008607047764908603C
:100680007047724A5368084323F47C131843506040
:1006900070477149086670476C4A516821F0030140
:1006A0000143516070476948406800F00C00704792
:1006B000664A516821F0F001014351607047634A76
:1006C000516821F4E0610143516070475F494A6815
:1006D00022F4605242EAC000486070475B4A002939
:1006E000517A01D0014300E08143517270475A4969
:1006F000D83108607047554A516821F440410143A0
:10070000516070475149002281F8202081F8202053
:10071000012802D0042802D1052081F8200070476A
:100720004E490860704749490A6A02430A627047A5
:100730004A4944390860704730B544494A6812F064
:100740000C03474A03D0042B01D0082B22D00260AF
:100750004A680F23434C03EA1212A35C0268DA4092
:1007600042604B68072505EA1323E35C22FA03F392
:1007700083604B6805EAD323E35C22FA03F2C2608C
:100780004968032303EA9131231F595CB2FBF1F15D
:10079000016130BD4A684B6802F470124FF00204E8
:1007A00013F4803F04EB924202D04B689B0301D5C7
:1007B0002D4B00E02A4B5A43C9E7244A00295169CE
:1007C00001D0014300E08143516170471F4A002975
:1007D000916901D0014300E08143916170471B4A58
:1007E0000029D16901D0014300E08143D161704704
:1007F000164A0029D16801D0014300E08143D1604D
:100800007047124A0029116901D0014300E0814379
:100810001161704711494039086070470E49C8643A
:1008200070470A49C87170470848416A41F08071B1
:1008300041627047054A0146002092680A4200D092
:100840000120704701498872704700000010024083
:100850000000FFF8FFFFF6FE000042428004424223
:1008600000127A000600002000093D00F94910B589
:10087000884202D10121C41486E0B0F1804F09D032
:10088000F54988420DD101210220FFF7BAFF00216E
:10089000022064E001210846FFF7B3FF0021012098
:1008A0005DE0EE49884206D101210420FFF7A9FF4F
:1008B0000021042053E0EA49884206D101210820A2
:1008C000FFF79FFF0021082049E0E649884206D152
:1008D00001211020FFF795FF002110203FE0E249A1
:1008E000884206D101212020FFF78BFF0021202024
:1008F00035E0DE49884202D10121441444E0DC495C
:10090000884202D10121CC043EE0DA49884202D17A
:1009100001210C0538E0D849884202D101214C055B
:1009200032E0D649884206D101214020FFF769FF15
:100930000021402013E0D249884206D101218020C5
:10094000FFF75FFF0021802009E0CE4988420AD1ED
:10095000841501212046FFF754FF00212046BDE801
:100960001040FFF74EBFC849884202D101210C0454
:100970000AE0C649884202D101214C0404E0C4497E
:1009800088420AD101218C042046FFF731FF20461E
:10099000BDE810400021FFF72BBF10BD30B5028825
:1009A000AC4BB24C98420DD0A0420BD0B0F1804F6E
:1009B00008D0A94DA84205D0A84DA84202D0A84D04
:1009C000A84203D122F070054A882A43A54DA842C7
:1009D00006D0A54DA84203D022F44075CA882A4308
:1009E00002808A8882850A88028598420AD0A042BD
:1009F00008D0A54A904205D0A44A904202D0A44A09
:100A0000904201D1097A01860121818230BD30B541
:100A1000028C22F001020284028C8388048B22F073
:100A2000020224F073050C882C430D8915434A8873
:100A30002A43884DA8420BD08C4DA84208D0924D35
:100A4000A84205D0914DA84202D0914DA8420DD1A7
:100A500022F008054A8923F440732A4322F0040552
:100A60008A882A438D891D43CB892B438380048345
:100A7000C9888186028430BD70B5028C22F01002D4
:100A80000284028C8488038B0D8823F4E6464FF69B
:100A9000FF7303EA052535430E8922F0200203EA9D
:100AA000061616434A8803EA02123243694EB042E0
:100AB00002D06E4EB04215D122F080064A8924F44D
:100AC000406403EA0212324322F040068A8803EAB5
:100AD000021232438E8903EA86062643CC8903EA52
:100AE0008404344384800583C9880187028470BDEF
:100AF00070B5028C22F480720284028C8488838B0D
:100B00000D8823F073031D4322F400730E894FF602
:100B1000FF7202EA06261E434B8802EA0323334390
:100B20004C4EB04202D0514EB04215D123F4006673
:100B30004B8924F4405402EA0323334323F48066B0
:100B40008B8802EA032333438E8902EA0616264382
:100B5000CC8902EA0414344384808583C988818760
:100B6000038470BD70B5028C22F480520284048C20
:100B70008288838B0D8823F4E6464FF6FF7303EAE1
:100B80000525354324F400560C8903EA0434344324
:100B90004E8803EA063626432E4CA04202D0334C40
:100BA000A04205D122F480448A8903EA82122243BA
:100BB00082808583C988A0F84010068470BD828B2E
:100BC00022F440628283828B4FF6FF7303EA012195
:100BD0000A4382837047828B22F00C028283828BCD
:100BE0000A4382837047028B22F440620283028BA5
:100BF0004FF6FF7303EA01210A4302837047F0B501
:100C0000048C24F010040484078B048C4FF6FF75C9
:100C100027F4734705EA03333B4305EA02221A43EC
:100C20000C4B05EA011698420ED0104B98420BD09F
:100C3000B0F1804F08D0084B984205D0074B98423E
:100C400002D0074B984225D124F02001314341F0D6
:100C5000100124E0002C0140000400400008004086
:100C6000000C00400010004000140040003401401F
:100C7000004C014000500140005401400018004069
:100C8000001C0040002000400040014000440140A2
:100C90000048014024F0A0030B4343F010010283FD
:100CA0000184F0BD028B22F00C020283028B0A4306
:100CB0000283704770B5048C24F001040484058B12
:100CC000048C4FF6FF7606EA0313134325F0F30571
:100CD000F94A2B4390420ED0F84A90420BD0B0F123
:100CE000804F08D0F64A904205D0F64A904202D092
:100CF000F54A904202D124F0020201E024F00A02F7
:100D00000A4342F001010383018470BD2DE9F05FC5
:100D10000D4604460888E84FDFF8A0C3DFF8A0833B
:100D20004988AA882B894FF0804960B3042832D0C3
:100D30004FF6FF7E082836D0208C9B4620F480504A
:100D40002084A38B268C704600EA022223F473438E
:100D50001A4300EA0B3010430EEA013EBC420BD0AE
:100D6000644509D04C4507D0444505D0D54A944246
:100D700002D0D54B9C4245D126F4005141EA0E01E8
:100D800041F4805143E02046FFF794FFE988204674
:100D9000BDE8F05F86E72046FFF731FFE98820468F
:100DA000BDE8F05F1FE7208C20F480702084B4F849
:100DB0001CA0208C0EEA031313432AF0F30A0EEA58
:100DC000012B43EA0A03BC420BD0644509D04C45D1
:100DD00007D0444505D0BB4A944202D0BA4A944257
:100DE00004D120F4007040EA0B0002E020F42060FF
:100DF000084340F48070A3832084E9882046BDE83E
:100E0000F05FE8E626F402420A4342F48051A083F0
:100E100020462184E988BDE8F05FD0E62DE9F04165
:100E20000C46002649880746012501B90226A288FA
:100E3000012A00D10225208823890028384610D0B5
:100E4000FFF7DDFEE1883846FFF7CDFE23892A460D
:100E500031463846FFF72EFFE1883846BDE8F041BD
:100E600020E7FFF727FFE1883846FFF71BFF2389BC
:100E70002A4631463846FFF7C2FEE1883846BDE8CB
:100E8000F041B0E610B50A884B88CC881A438B88AD
:100E900023431A430B891A434B8989891A430A430E
:100EA000A0F8442010BD4FF6FF7181800021018021
:100EB000C1804180017270470021018041808180A2
:100EC000C180018141818181C18170470021018000
:100ED000418001228280C180018170470021018010
:100EE00041808180C18001814181818170470029D9
:100EF000018802D041F0010101E021F001010180EF
:100F00007047002930F8441F02D041F4004101E04D
:100F1000C1F30E0101807047002A828901D00A4383
:100F200000E08A4382817047818270471143A0F8B4
:100F300048107047002A828901D00A4300E08A43A2
:100F400082817047018921F0070101817047028980
:100F500022F070020A430281704700B50346FFF792
:100F6000F6FF188940F00700188100BD70B51646DD
:100F70000D46602904464FF0010231460AD0FFF7C2
:100F800099FE29462046FFF7E2FF208940F007003E
:100F9000208170BDFFF733FEF3E730B504894FF6CB
:100FA000FF7505EA03231343E4B20B432343038194
:100FB00030BD10B50446FFF7F0FF208940F0770000
:100FC000208110BD10B50446FFF7E7FF208940F4EB
:100FD0008040208110BD018582827047028822F006
:100FE00070020A430280704770B50589048B068C35
:100FF00025F007050D434FF6FC410C4040F201116E
:101000000C434FF6FF7101EA031126F0220611434B
:10101000314305810483018470BD028B22F070028C
:101020000A4302837047028B4FF6FF7322F4E042BB
:1010300003EA0121114301837047828B22F0700281
:101040000A4382837047828B4FF6FF7322F4E0429B
:1010500003EA01211143818370470029018802D0EE
:1010600041F0800101E021F08001018070470029FA
:10107000818802D041F0040101E021F00401818067
:1010800070470029818802D041F0080101E021F079
:101090000801818070470029818802D041F0010158
:1010A00001E021F0010181807047028B22F00802EB
:1010B0000A43028370470000002C014000340140C5
:1010C0000004004000080040000C0040028B4FF676
:1010D000FF7322F4006203EA012111430183E9E76F
:1010E000828B22F008020A438283E3E7828B4FF669
:1010F000FF7322F4006203EA012111438183D9E7DF
:10110000028B22F004020A430283D3E7028B4FF6DC
:10111000FF7322F4806203EA012111430183C9E7CE
:10112000828B22F004020A438283C3E7828B4FF64C
:10113000FF7322F4806203EA012111438183B9E73E
:10114000028B22F080020A430283B3E7028B4FF640
:10115000FF73C2F30E0203EA012111430183A9E7E1
:10116000828B22F080020A438283A3E7828B4FF6B0
:10117000FF73C2F30E0203EA01211143818399E751
:10118000028C22F002020A43028493E7028C22F0CE
:1011900008020A4302848DE7028C4FF6FF7322F0A7
:1011A000200203EA01111143018483E7028C4FF608
:1011B000FF7322F0800203EA01111143018479E7F1
:1011C000028C4FF6FF7322F4007203EA01211143EF
:1011D00001846FE7028C4FF6FF7322F4006203EA8A
:1011E00001211143018465E7028C4FF6FF7322F45D
:1011F000005203EA0131114301845BE710B501237A
:10120000048C8B409C430484038C8A4013430384E6
:1012100010BD10B50423048C8B409C430484038CC4
:101220008A401343038410BD30B50124058C00F1BE
:1012300018038C40A543058489B108290FD0091FE4
:10124000C1F34E001844016821F4E04101600168D7
:101250004FF6FF7303EA02221143016030BD03EB36
:101260005100016821F0700101600168F4E7002974
:10127000018802D041F0020101E021F00201018069
:1012800018E70029018802D041F0040101E021F0B3
:10129000040101800EE70029818802D041F080011D
:1012A00001E021F08001818004E7028822F0080239
:1012B000028002880A430280FCE6828822F07002E3
:1012C000828082880A438280F4E6028922F0070243
:1012D000028102890A430281ECE6028922F080023F
:1012E000028102890A430281E4E68184E2E6818583
:1012F000E0E68186DEE60187DCE68187DAE6A0F8B3
:101300004010D7E6028822F44072028002880A4325
:101310000280CFE6808ECDE6008FCBE6808FC9E6D7
:10132000B0F84000C6E6808CC4E6008DC2E60246F6
:101330000020128A0A4200D00120BBE6C943018284
:10134000B8E602460020138A92890B4202EA0102A3
:1013500002D0002A00D00120ACE6C9430182A9E6F0
:101360000CB500214C4801910091026842F4803292
:1013700002604FF4A063026802F400320092019A06
:10138000521C0192009A12B9019A9A42F3D1026852
:10139000920333D50121009140490A6842F01002BE
:1013A0000A600A6822F003020A600A6842F0020238
:1013B0000A604168416041684160416841F4806170
:1013C0004160416821F47C114160416841F4E811B9
:1013D0004160016841F08071016001688901FCD5BC
:1013E000416821F003014160416841F00201416020
:1013F0004168C1F381010229FAD10CBD00910CBDF5
:10140000254810B5016841F0010101604168244A96
:10141000114041600168234A11400160016821F4D4
:1014200080210160416821F4FE0141604FF41F01F9
:101430008160FFF795FF1C494FF00060086010BD08
:10144000154910B54868194A10F00C03184803D024
:10145000042B01D0082B0BD002604968144AC1F359
:101460000311121D515C026822FA01F2026010BDE4
:101470004A684B6802F470124FF0020413F4803F84
:1014800004EB924202D04B689B0301D5094B00E06C
:10149000064B5A43E0E700000010024000200240E3
:1014A0000000FFF8FFFFF6FE08ED00E000127A00F2
:1014B0001800002000093D000948804709480047FE
:1014C000FEE7FEE7FEE7FEE7FEE7FEE7FEE7FEE7F4
:1014D000FEE7FEE704480549054A064B7047000051
:1014E000011400083101000890000020900600203F
:1014F000900200209002002008B501210820FFF78B
:1015000065F901214020FFF761F92020ADF80000C6
:1015100003208DF8020010208DF80300694604486E
:10152000FEF76DFF69460348FEF769FF08BD00003E
:10153000000C014000180140134814490068B0FB3A
:10154000F1F0B0F1807F0DD220F07F414FF0E0202C
:10155000491E41610E4AF02111700021816107216D
:1015600001617047FEE701B50A4800990160016812
:101570000029FCD108BD07480168002902D0016894
:10158000491E0160704700001800002040420F0013
:1015900023ED00E02C00002038B501210820FFF7E2
:1015A00015F901210420FFF711F901214020FFF76F
:1015B0000DF91C20ADF8000001248DF802404820F0
:1015C0008DF8030069460748FEF719FFADF80040A3
:1015D0008DF8024028208DF8030069460248FEF786
:1015E0000EFF38BD00180140000801407FB50446D9
:1015F00001210846FFF7F3F8641EADF8044041F6F8
:101600001F40ADF8000000244FF08045ADF80640C3
:10161000ADF8024069462846FFF7C0F9012211469D
:101620002846FFF779FC1C208DF80C008DF80D4042
:1016300003208DF80E0001208DF80F0003A8FEF79F
:1016400034FE01212846FFF752FC7FBD08B5012179
:101650000820FFF7BBF84FF48070ADF800000320BE
:101660008DF8020010208DF8030069460148FEF74E
:10167000C6FE08BD000C01407047704770477546B4
:1016800000F028F8AE4605006946534620F00700F2
:10169000854618B020B5FFF71DFFBDE820404FF08C
:1016A00000064FF000074FF000084FF0000B21F04C
:1016B0000701AC46ACE8C009ACE8C009ACE8C00919
:1016C000ACE8C0098D4670470446AFF30080204661
:1016D000FEF775FD004870473000002001491820D2
:1016E000ABBEFEE726000200704700000C170008A2
:1016F00000000020300000006C0100083C170008CA
:10170000300000206006000088010008010002048B
:10171000060800000000010203040102030406079A
:101720000809000000A24A040000000000000000B8
:0C17300001020304060708090000000085
:0400000508000131BD
:00000001FF
